:020000040800F2
:1000000000500020ED2F0008EB2F0008E92F00081A
:10001000E92F0008E92F0008E92F00080000000080
:10002000000000000000000000000000EB2F0008AE
:10003000EB2F000800000000EB2F00084D640008C3
:10004000E92F0008E92F0008E92F0008E92F000830
:10005000E92F0008E92F0008E92F0008E92F000820
:10006000E92F0008E92F0008E92F0008E92F000810
:10007000E92F0008E92F0008CD5400082555000895
:10008000E92F0008E92F0008E92F0008E92F0008F0
:10009000995D0008E92F0008E92F0008E92F000802
:1000A000E92F0008E92F0008E92F0008E92F0008D0
:1000B000E92F0008F9650008E92F0008E92F00087A
:1000C000E92F0008E92F0008E92F0008E92F0008B0
:1000D000E92F0008A1540008E92F0008E92F0008C3
:1000E000B54E0008E92F0008E92F0008E92F0008A5
:1000F000E92F0008E92F0008E92F0008E92F000880
:10010000E92F0008E92F0008E92F0008E92F00086F
:10011000E92F0008E92F0008E92F0008E92F00085F
:10012000E92F0008E92F0008E92F0008E92F00084F
:10013000E92F0008E92F0008E92F0008E92F00083F
:10014000E92F0008E92F0008E92F0008E92F00082F
:10015000012910B51346074C05DD002258681146E9
:100160000EF0C6F920602168034801F096FE0120D8
:1001700010BD00BF00000020E0FB000808B50848E3
:1001800001F05CFE40F2E731064801F086FE0648C9
:1001900001F054FE054801F051FE012008BD00BFEA
:1001A0000FFC000837FC00084EFC000881FC00082A
:1001B00001292DE9F0410F4616463ADD54682046E4
:1001C0000EF078FD1D49024620460EF05BFC044609
:1001D00078BB022F2FD002254FF00108002256F8DD
:1001E000250011460EF084F91F2898BF08FA00F088
:1001F00005F1010598BF0443AF42EFD8104801F064
:100200004CFE1F250F4E24FA05F1304601F0010186
:1002100001F043FE013DF6D20B4801F03EFE2046C0
:1002200006F052F909490A4801F037FE0120BDE8FD
:10023000F0810024E2E74FF0FF34DFE7D1FC000853
:10024000D8FC000819080108CFFC0008241200207F
:10025000E7FC00082DE9F043012907460E46144645
:1002600087B02DDD50680EF025FD022E054611D118
:1002700002469D4960680EF005FC18B32A469B496A
:1002800060680EF0FFFB60B32A46994960680EF083
:10029000F9FB58B32A46974960680EF0F3FB002833
:1002A00040F08880944B02461F460130102803F826
:1002B000012BFAD1022E914B6AD101221A700CE067
:1002C00040F06881012200218D4B8E481A708E4BC0
:1002D0004FF4C07219700EF093FB012007B0BDE817
:1002E000F083874B1870884B1870F6E7844B874A69
:1002F0001978854B864C1878864B002808BF1A461B
:10030000854B8648002914BF1946214601F0C5FDDA
:1003100083490B78002B37D1204601F08FFD3846FA
:100320000DF03AFA7C4A7A49002818BF11467D48F8
:1003300001F0B3FD7C4801F081FD704B1B7813B1D7
:100340007A4801F07BFD00246B4D794E15F8013B96
:100350001BB12146304601F0A0FD0134102CF5D12F
:10036000744B1B7833B1744B74481A68744B19681A
:1003700001F093FD734B744A74491B681268096855
:10038000734801F08AFDA8E7724801F086FDC6E7D0
:1003900002254FF001081A70002254F8250011467A
:1003A0000EF0A6F801350F2898BF07F80080AE427E
:1003B000F2D892E7022E40F0EE802A466649606845
:1003C0000EF060FB002840F00481554B8CE72A4674
:1003D000624960680EF056FB002846D1554B83E712
:1003E000042E23D12A465D4960680EF04BFB00289D
:1003F0003BD1534E5A493246A0680EF045FA0546A5
:100400004D4F57493A46E0680EF03EFA012D494BF0
:1004100006D1012804D13968326891423FF664AFB1
:10042000002250481A7001F009FD56E7052E1CD134
:100430002A464D4960680EF025FB0546A8B90246DC
:100440000146A0680EF054F8404B2A461860294631
:10045000E0680EF04DF83C4B2A46186029462069AA
:100460000EF046F8374B186037E74048DBE72A467E
:100470003F4960680EF006FB06460028A7D13D4BB9
:100480003D48196801F009FD3C4801F0D7FC3446AD
:100490001C4D194FDFF8E8803A4EDFF8EC90D8F8A1
:1004A000003032681A44A2427FF617AF696917F824
:1004B000012B04912969002A0391E96818BF792268
:1004C0000291A96808BF6E22019169682F480091C6
:1004D0002F491835A3428CBF4B460B46214601F0ED
:1004E000DCFC0134DBE700BF21FD00085FFE0008F3
:1004F00058FE0008B0FD00085007002084000020CE
:1005000060070020D00500206407002016FD0008C9
:1005100012FD00081AFD0008071F010829FD000848
:100520006607002048FD000852FD00085EFD000837
:1005300064FD0008620700208007002069FD0008B4
:100540008407002088000020900000208C000020FC
:100550007EFD000843FD0008B8FD000837FE0008D6
:10056000410701083BFE000845FE00084AFE00085E
:1005700051FE0008CC050020CBFD0008DCFD000882
:100580007C07002078070020F41301080DFE000806
:100590001DFD00080025032E7FF422AF2A461549D1
:1005A00060680EF06FFA064600287FF45EAF124DC9
:1005B00010222846A1680EF077FA10232022EE734D
:1005C00015F8011B5F2908BF05F8012C013BF7D185
:1005D00083E62A46094960680EF054FA00287FF441
:1005E00046AF074B074A08491B6812680968074865
:1005F000C7E600BFB8FD00086607002045FE0008FA
:1006000088000020900000208C000020BEFD000823
:100610000129134610B512DD0022586811460DF06D
:1006200067FF04460CF076FF012004F065FB2046CE
:1006300005F0FEFE002004F05FFB012010BD002449
:10064000F0E7000008B5064B00215B6801209847E1
:10065000002211461046FFF7DBFF012008BD00BF56
:10066000580E002010B5094801F0E8FB084801F0D9
:10067000E5FB002107480CF017FF044620B90648A7
:1006800001F0DCFB204610BD0120FCE768FE0008FD
:100690007CFE00089D0600088CFE00082DE9F04352
:1006A000064685B008460D460DF061F8002828463C
:1006B00014BF4FF02A094FF020090DF049F9044604
:1006C00028460DF043F917490EF0DCFAD8B9284650
:1006D0000DF03CF9074628460DF03CF980462846C7
:1006E0000DF03BF9104B4A46002C08BF1C46314622
:1006F000CDE901043B460D48CDF8008001F0CDFB6B
:1007000005B0BDE8F08328460DF020F9064A0346FF
:10071000002C08BF144631464A460548009401F0B3
:10072000BCFBEDE7A6FE0008F5000108B3FE0008DB
:10073000E7FE00080229134613B518D100225868B5
:10074000019201A90A220DF0D3FE019C2CB9104898
:1007500001F0A3FB204602B010BD23784D2B10D032
:100760006B2B02D14FF47A73584305F07DFE05F0F0
:1007700097FE431C014606D1064801F08EFB01207E
:10078000E9E7054BF0E7054801F087FBF7E700BF15
:10079000F7FE00083BFF000840420F004BFF000837
:1007A00030B59FB004F05CFB002830D1244B1B789F
:1007B00013B1012004F0A0FA00234FF0FF3203939D
:1007C0000592204A06A8116801931D9103A91160A2
:1007D0000EF04AFA20B91B4C03AD2368AB421DD082
:1007E000039B012B20D0022B02D1174801F055FBAF
:1007F000019B83F0010212F0FF021AD0002004F0E6
:100800007BFA124801F01AFB00201FB030BD04F043
:1008100027FB01460E4801F040FBC7E708F036FD14
:100820001D9B01902360D8E704990A4801F035FB2D
:10083000DEE711461046FFF715FF0120E5E700BF90
:10084000A0010020A401002077FF0008B4FF0008E9
:1008500063FF0008A5FF000870B59EB004F000FB20
:10086000002832D12C4B1B7813B1012004F044FA3C
:1008700000234FF0FF3203930592284A06A811681F
:1008800001931D9103A911600EF0EEF930B9234CCC
:10089000234D244E226803AB9A421DD0039B012BAB
:1008A0002ED0022B02D1204801F0F7FA019B83F0F1
:1008B000010212F0FF0228D0002004F01DFA1B48AC
:1008C00001F0BCFA00201EB070BD04F0C9FA014668
:1008D000174801F0E2FAC5E708F0D8FC01900028BB
:1008E000DCD1284601F0AAFA019806F0A1FE019099
:1008F0000028D3D1304601F0A1FA1D9B2360C9E73F
:1009000004990C4801F0C9FAD0E711461046FFF7E8
:10091000A9FE0120D7E700BFA0010020A40100200C
:10092000CEFF0008F7FF000877FF0008130001085A
:1009300063FF0008A5FF00081346002230B5012917
:100940009FB0029204DD114658680DF0D1FD02906F
:1009500004F086FA002830D1244B1B7813B1012013
:1009600004F0CAF900234FF0FF3203930592204AA6
:1009700006A8116801931D9103A911600EF074F986
:1009800020B91B4C03AD2368AB421DD0039B012B48
:1009900021D0022B02D1174801F07FFA019B83F08E
:1009A000010212F0FF021BD0002004F0A5F912484A
:1009B00001F044FA00201FB030BD04F051FA0146A6
:1009C0000E4801F06AFAC7E7029806F031FE1D9B57
:1009D00001902360D7E70499094801F05EFADDE74A
:1009E00011461046FFF73EFE0120E4E7A00100207B
:1009F000A401002077FF00082600010863FF00081B
:100A0000A5FF000870B5044638B103681B6823B918
:100A100020460DF031F8012070BD084801F00EFAB3
:100A2000074D084E296811B9002CF1D1F3E7AA68E7
:100A3000304601F032FA0C35F4E700BF3800010807
:100A4000C80401084B0001082DE9F341144605468E
:100A500030B91A4801F0F2F9012002B0BDE8F08186
:100A6000052926D11022002160680DF041FD1022D9
:100A700006460021A0680DF03BFD1022074600212C
:100A8000E0680DF035FD10228046002120690DF050
:100A90002FFD044643463A4631460090084801F08F
:100AA000FCF943463A463146284600940CF0ECFEE9
:100AB000D2E70449044801F0F0F9CDE756000108F7
:100AC00064000108AD000108520001082DE9F0475B
:100AD00005460E464FF00008012482B000AF3046B4
:100AE0000EF0E8F840451CD8A400073424F00704B1
:100AF000ADEB040D0024304622493A1D7C60E846E7
:100B00000EF00DF81F4EB0B91F4ED6F80090B9F197
:100B1000000F19D19DB34246214628460CF06BFFC9
:100B20001BE016F80830202B01D0092B00D101342E
:100B300008F10108D3E748F82400314600203A1DA7
:100B40000DF0EDFF0134DEE75CB942462146284650
:100B50007368984780F00100C0B20837BD46BDE811
:100B6000F087D8F800A050460EF0A4F84946024697
:100B700050460DF087FF0028E7D00C36C5E74FF050
:100B8000FF30EAE7F3000108C804010870B5054624
:100B90000E460EF08FF8044690B102460B492846E7
:100BA0000DF070FF28B90120307070BD3070012049
:100BB000FBE72246284606490DF064FF0028F5D0E1
:100BC000044801F03BF90020EFE700BFF600010800
:100BD0002E010108FD000108012908B50CD00229E9
:100BE00006D10B495068FFF7D1FF28B9012008BD95
:100BF000084801F023F9F9E7054B074A1978074B34
:100C00000748002914BF1146194601F046F9EDE7DF
:100C1000A00100203601010821FD00085FFE000848
:100C2000530101082DE9F04FDFF8D8B01C46DBF87E
:100C30000830A3B043F00103CBF8083007468A46DA
:100C4000904605F00BFC0026814624F00305AE42D9
:100C500020D32C4B641B1E6818D02346384605EB66
:100C6000080202A90CF086FDA8BB274D02AB13F8C1
:100C7000012B86EA02660822002E4FEA4606B8BF1C
:100C80006E40013AF8D101308442F0D10120CAF817
:100C9000006021E005F0E2FB09F57A72824206D29B
:100CA00001900121002005F03DFA019B9946AB1B04
:100CB000802B28BF8023384606EB080202A9019347
:100CC0000CF058FD38B9019B02AA984202F10402C7
:100CD00005D38036BBE7002023B0BDE8F08F12F8C3
:100CE000031C12F804CC090441EA0C6112F801CC8F
:100CF000043041EA0C0112F802CC41EA0C21CBF895
:100D00000010E2E700300240B71DC104094A38B5BF
:100D100013680BB90DF0A2FA9D689C6E284207D0AB
:100D2000C3E90001014603F10C0014600DF0A2FFBD
:100D30002346EEE7A401002073B5054601F06CF9E7
:100D4000012604464FF48061204600F02BFF012865
:100D5000034602D12278042A0BD04FF48062214648
:100D60002846009600F08CFA2378462BEAD102B090
:100D700070BD4FF0FF30FAE7F0B54E7805462D2EE6
:100D80000CBF022701270846002487B00DF10F038E
:100D90000093154905AB04AA3844CDE904448DF805
:100DA0000F400DF071FD002808DC42F20F734FF088
:100DB000FF3085F83A402B8707B0F0BD012818BFF7
:100DC000BDF8144003282C870CD19DF80F30A3F1F7
:100DD00043025342534104982D2E85F83A3008BF00
:100DE0004042E9E70023F6E78805010813B5044609
:100DF00004980090044801F00BF8204602B0BDE8CA
:100E00001040FFF799BF00BF9105010810B50446D7
:100E1000034800F0FDFF2046BDE81040FFF78CBFFF
:100E2000AE05010810B50446034800F0F1FF204666
:100E3000BDE81040FFF780BFBA05010810B50446B1
:100E4000034800F0E5FF2046BDE81040FFF774BFFF
:100E5000D005010810B50446034800F0D9FF20462C
:100E6000BDE81040FFF768BFE705010813B5044669
:100E700004980090044800F0CBFF204602B0BDE883
:100E80001040FFF759BF00BFFE05010810B504462A
:100E9000034800F0BDFF2046BDE81040FFF74CBFFF
:100EA0001E06010810B50446034800F0B1FF2046B5
:100EB000BDE81040FFF740BF3206010810B50446F8
:100EC000034800F0A5FF2046BDE81040FFF734BFFF
:100ED0004A06010810B50446034800F099FF204671
:100EE000BDE81040FFF728BF5A06010810B50446B8
:100EF000034800F08DFF2046BDE81040FFF71CBFFF
:100F00007406010810B50446034800F081FF20462E
:100F1000BDE81040FFF710BF8106010808461146E2
:100F200000F0AABF38B50D4D0C462B688B420ED190
:100F30000B480DF0BFFE0146094800F03DFF09488F
:100F400000F07CFF002301222B60074B1A70074B37
:100F50001A68A24204BF00221A6038BDA80100200E
:100F6000950601089F060108AC010020B001002091
:100F700008B511B103783A2B02D00D4B1B6843B969
:100F80000C480DF097FE01460A48BDE8084000F005
:100F9000D3BE1B6EDB0705D507480DF08BFE01465F
:100FA0000548F2E705480DF085FE01460348ECE7E9
:100FB000A8010020CF060108D10601089D060108FE
:100FC00010B5054C20460DF075FE01462046BDE8E3
:100FD000104000F0B1BE00BFD306010810B5064CAA
:100FE000012000F0ADFD20460DF064FE01462046D4
:100FF000BDE8104000F0A0BED706010810B5074CB0
:10100000206848B10CF01AFC20680CF0A1FB2268A3
:10101000034B1A600023236010BD00BFA80100200D
:10102000B00100201FB5124902AB01AA0DF02CFC43
:10103000022809D10F4B186848B90F480DF03AFE45
:1010400001460D4800F078FE05B05DF804FB03A9E9
:10105000DDE90123FFF7E6FD28B908480DF02AFE77
:1010600001460648EEE70399054800F0D1FEEBE79C
:101070003D070108A8010020CF060108DA06010893
:10108000DE06010808B5002000F05AFDBDE8084062
:101090004FF48061014800F0BBBE00BFE3060108C9
:1010A00073B50E4605460DF005FE00230446CDE956
:1010B00000336A463046124901AB0DF0E5FB0228C9
:1010C00008D010480DF0F6FD01460E4800F034FE41
:1010D00002B070BD009AA242F3D805D10A480DF0C3
:1010E000E9FD01460848F1E7019BA41AA34228BF85
:1010F0002346012105482A4400F0D0FDE8E700BF5F
:10110000C4070108CF060108B6FD000839FE000833
:101110002DE9F0414C0804F1080323F0070300AF68
:10112000ADEB030D6D4601462246284600F0F3FE66
:1011300000234FEAD50804F83830164B29461868C2
:10114000FFF7C4FC002809DA13480DF0B3FD01468F
:10115000114800F0F1FDBD46BDE8F08105D10F4812
:101160000DF0A8FD01460D48F3E70D480DF0A2FD76
:10117000440004F1080323F00703ADEB030D02461E
:101180000749684600F09DFE214600F0D5FDAD46BA
:10119000E1E700BFA8010020F5000108D70601081B
:1011A0002D07010808B510F80B3C662B0BD1094B35
:1011B0001B6843B108480DF07DFD01460648BDE8B7
:1011C000084000F0B9BD05480DF074FD0146034824
:1011D000F5E700BFA801002035070108B6FD0008AB
:1011E00038B50F4B0546186858B90E4B186840B90A
:1011F0000D480DF05FFDBDE8384001460A4800F09B
:101200009BBD0CF09EFB041E2946084818BF2046D3
:10121000FFF746FF2046BDE838400DF04BB800BF51
:10122000A8010020B0010020CF060108F500010848
:1012300010B5104B04461868ADF5806D68B90E4BBB
:10124000186850B90D480DF035FD01460B480DF5F5
:10125000806DBDE8104000F06FBD4FF480626946BC
:101260000CF014FA21466846FFF71AFF0DF5806D61
:1012700010BD00BFA8010020B0010020CF0601086A
:101280002DE9F0439BB01E460B7802AF7A2B0D463A
:10129000904697F8804007D83E2B0AD8042B00F0E0
:1012A0000082212B00F0FE80BB480DF003FD0146BB
:1012B00098E33F3B3B2BF7D801A252F823F000BF45
:1012C0007F150008A9120008A9120008A912000839
:1012D0006F150008A3160008A91200088B16000855
:1012E000751400082F150008A9120008A91200089B
:1012F000A9120008A9120008B1140008A9120008D8
:10130000A91200081D16000889170008DF1600083A
:10131000A9120008A9120008A9120008A9120008C1
:10132000A91200080B170008A9120008E919000803
:10133000A9120008A9120008A9120008A9120008A1
:10134000A9120008A9120008A9120008A912000891
:101350006F150008A9120008A9120008A9120008B8
:10136000B1130008A9120008A9120008A912000868
:10137000D9160008A912000801140008A9120008D3
:10138000A9120008CD15000889170008DF1600080B
:1013900057150008A9120008A91200088F170008A5
:1013A000A9120008A9120008A9120008E9190008EA
:1013B000DFF8E881D8F8000028B979480DF07AFC08
:1013C0000146774821E10CF0BAFA0446002800F003
:1013D0001F81E946C31D23F00703ADEB030D02AEE9
:1013E0003146D8F800000CF0F7F92246314628467D
:1013F00000F067FD610000F09FFCCD4600247FE116
:10140000664C6E46236843B965480DF053FC0146AF
:10141000634800F091FCB546F0E707F10C0328465D
:10142000604907F108020DF02FFAFB68B3EB580F83
:1014300005D95D480DF03EFC01465B48E9E7DA1D41
:1014400022F00702ADEB020D0DF108084146BA6823
:1014500020680CF08FF928B154480DF02BFC0146A0
:101460005248D6E741462846FA6800F02AFDF96856
:101470004900CEE7494C206800289ED00CF05FFA66
:10148000024678B1E846C31D23F00703ADEB030D18
:1014900002AE691C304600F03EFD314620680CF07B
:1014A000B4F9C54642480DF005FC01464048ACE0A1
:1014B00000233A4CC7E901332368E8462BB9384882
:1014C0000DF0F8FB0146364814E007F10C033949EA
:1014D00000933A1D284607F108030DF0D5F9D7E926
:1014E0000221761AB2EB560F08D92F480DF0E2FB15
:1014F00001462D4800F020FCC5467FE7D31D23F0B0
:101500000703ADEB030D02AE2944304600F003FDA6
:101510003246BB68796820680CF035F9002800F085
:10152000A88022480DF0C6FB01462048E2E70023D0
:1015300028463B72FB60204907F10C0307F10802C3
:101540000DF0A2F9FB68012BACD918480DF0B2FBE5
:101550000146164859E00121104B1C684CB9174848
:101560000DF0A8FB0146154800F0E6FBC8E000219D
:10157000F2E720460CF06FF90122114B1A70074B6D
:101580001C682CB90F480DF095FB01460D48EBE7A0
:1015900001220D4B1A7031E7F5000108A801002067
:1015A000380701083C07010845070108CF06010874
:1015B000D706010849070108550701085C0701081B
:1015C0003D1200209B060108AD010020A54E3368A6
:1015D000002B3FF4F2AE9C6AD4B1A34907F1080294
:1015E00028460DF051F90823B968306807F10C025C
:1015F0000CF0E0F8044600283FF4DFAE024607F1A5
:101600000C01284600F05DFC610000F095FBF5E65A
:1016100096480DF04FFB01469448A5E7914E33687C
:10162000002B3FF4CAAEDC6A4CB3914907F10C03BE
:1016300007F1080228460DF027F9F868E846284423
:101640000DF038FB4408E31D23F00703ADEB030D59
:10165000F9680DF1080922462944484600F05BFC70
:1016600023464A46B96830680CF0ADF800287FF789
:1016700026AF80480DF01EFB01467E483AE77D48C4
:101680000DF018FB01467B486EE724B13246FFF7A8
:1016900073FB044634E078480DF00CFB01467648B5
:1016A00062E7704C206848B10122744B1A700CF04C
:1016B0004FF82268724B1A60002323602B78442B6A
:1016C00006D16C480DF0F6FA01466A4800F034FB8A
:1016D000002000F035FA91E6FFF790FC8EE6614DB0
:1016E0002C681CB120460CF0A9F887E6644B1868FA
:1016F0000028CED063490BF081FF28600CF09EF8E3
:1017000020466437BD46BDE8F083564C2368002B65
:101710003FF453AE07F10C0300933A1D07F10803A1
:10172000284659490DF0B0F8D7E90232B61A9E4260
:1017300005D256480DF0BEFA0146544865E779686F
:1017400020682A440CF01FF800283FF4ABAEFCE6FA
:1017500020460DF0AFFAD8F8001002468146284620
:101760000DF090F9044638B9D8F80430A6EB090119
:1017700005EB09009847C3E708F10808D8F80040CE
:10178000002CE5D121468AE7DFF80481F6E74FF027
:10179000000828463F493A1DC7E901880DF074F852
:1017A00001280ED1374978680BF03EFF2D4B1860A9
:1017B00000283FF4CAAE38480DF07CFA014636489E
:1017C00023E70622284635490DF05CF910B9FFF7EA
:1017D00015FC67E60422284631490DF053F900282C
:1017E00040F086804FF0000907F10C0426462B7963
:1017F000DFF8B0803B2B14BF0435053587F80C901B
:101800002B782BB130460DF055FA033052281DD9F4
:101810000022144C244B20681A7058B9184B1868D1
:1018200000283FF492AE17490BF0E8FE2060002834
:101830003FF48BAE31460CF012F820680BF0FEFF3F
:101840001A480DF037FA01461848DEE62B783B2B94
:101850002ED12346202203F8012B013584F8019074
:101860001C46CDE7A8010020600701089C0601087E
:1018700065070108D7060108F50001083D120020A0
:10188000B0010020040000206D0701084507010891
:10189000BC080108790701088707010894070108B7
:1018A0009B070108C52B010864070020A007010859
:1018B0005BB218F8033013F0440FA9D095F901304A
:1018C00018F8033013F0440FA2D002222946204614
:1018D00000F021FB2378202B01D05C2B03D1637017
:1018E0005C2304F8013B84F801900235013487E75A
:1018F0004D49052228460DF0C5F80146F8B96B7927
:101900003F2B05D149480DF0D5F9014647487CE603
:10191000474B186800283FF418AEAB79632B04D00E
:10192000732B0AD0432B7FF469AD0BF094FF012396
:10193000404A1370404A137060E50121F5E72846DC
:101940003E4907F108033A1D0CF09EFF02280FD113
:10195000374C206800283FF430ADD7E901120CF075
:10196000B8F900287FF49EAD20680CF0BAFA24E59F
:101970002846334907F10C033A1D0CF085FF012876
:101980000AD12B4CFA6820680028EDD0B31A796888
:101990002A440CF0FDF9E4E728462A490DF072F9D3
:1019A00038B9234B18680CF09CFA00283FF405ADB9
:1019B00078E5284624490DF065F9044668B9234DB9
:1019C0002B78002B3FF46EAD21480DF073F90146E2
:1019D0001F4800F0B1F92C7010E51E4928460DF0A3
:1019E00051F941461C4810E6114C2368002B3FF486
:1019F000E4AC07F10803194900933A1D07F10C0301
:101A000028460CF041FF2B7839795A2B2068D7E90A
:101A1000023205D10BF041FF0028BFF643AC94E53C
:101A20000BF064FFF8E700BFA4070108AA0701084C
:101A3000A80100203D120020AD010020B8070108D8
:101A4000D0070108E5070108F0070108AC010020F4
:101A50009B060108F9070108F500010809080108BB
:101A600007B51346002200920A4601460248FFF7D6
:101A700007FC03B05DF804FB04000020194B07B518
:101A8000186848B918480DF015F90146164803B012
:101A90005DF804EB00F050B901A90BF0D7FEC8B116
:101AA0000023124A01381370114A1370052816D802
:101AB000DFE800F0030815150B131D210D4800F099
:101AC000A7F907E002210C48F9E70521019A0B4824
:101AD00000F09EF903B05DF804FB0B21F3E705214C
:101AE000F1E700BFA80100209B060108AD0100201E
:101AF0003D120020B51E01081D0801082308010839
:101B000038B5A0F12303012B04460D4603D97D28E7
:101B100001D02A280FD100217D2084F0200404F078
:101B200001FB0021204604F0FDFA2B787D331C4494
:101B3000E4B22C7038BD002104F0F4FA2B78F6E7FB
:101B400038B50446044D28B92B781BB101212B2050
:101B500004F0E8FA2C7038BDB401002070B50546D9
:101B60000C46002604F016FB232810D008D80428C1
:101B70000AD02128F5D0A64211D2A8550136F1E7A6
:101B80002428F8D1012001E02870002070BD002435
:101B900029463046AC5500F091FB2C70F5E700204B
:101BA0002870F3E72DE9F0474FF0000982460F4611
:101BB0004D464E464C46DFF8E08004F0EBFA042C2C
:101BC0005ED8DFE804F0031F2E37420024288AF88D
:101BD000000011D0212812D139465046FFF7BEFF30
:101BE00000269AF80030042B4CD1002301268AF8F5
:101BF00001303046BDE8F08700260120F1E720469D
:101C00002C46EEE7242840D0232841D005447D28E7
:101C1000EDB23FD00AF806000136BE4228BF0024CC
:101C2000CBE7054480F020030AF806300124EDB22A
:101C30000136F2E798F800302BB900F05EF94FEA70
:101C400000195FFA89F90424E7E798F800301BB11E
:101C500000230AF80630CCE700F04FF949EA00000B
:101C60005FFA80F901214D450CBF2B202D2004F097
:101C700059FA98F80040002CEAD14D45CDD1E7E75C
:101C80000024CAE725460446C7E700252E46C4E7D8
:101C90000324C2E70224C0E7B40100202DE9F74F76
:101CA00004460F461546984604264FF0000A0021C8
:101CB00024208DF803A0A14604F034FA07EB040BAE
:101CC000D94527D1A94608EB050BD94529D10021D3
:101CD000232004F027FA9DF80330154A032101A8B8
:101CE0000CF07EFD00219DF8040004F01BFA012198
:101CF0009DF8050004F016FA0E4B1B783BB94FF423
:101D0000FA6004F063FA2B2801D0013ECFD103B072
:101D1000BDE8F08F19F8010B0DF10301FFF7F0FE9C
:101D2000CEE719F8010B0DF10301FFF7E9FECCE74F
:101D30001E080108B40100202DE9F74304460E46B1
:101D400004254FF00008002124208DF80380274649
:101D500004F0E8F906EB04094F4522D100212320C5
:101D600004F0E0F99DF80330114A032101A80CF0BA
:101D700037FD00219DF8040004F0D4F901219DF8FD
:101D8000050004F0CFF90B4B1B783BB94FF4FA6018
:101D900004F01CFA2B2801D0013DD4D103B0BDE8DA
:101DA000F08317F8010B0DF10301FFF7A9FED3E74C
:101DB0001E080108B401002037B50D460021044675
:101DC00025208DF8031004F0ADF92544AC4216D15E
:101DD0000021232004F0A6F99DF803300B4A0321CB
:101DE00001A80CF0FDFC9DF80400002104F09AF914
:101DF00001219DF8050004F095F903B030BD14F8F9
:101E0000010B0DF10301FFF77BFEDFE71E08010860
:101E10000FB407B504AA52F8041B01A800920CF0F5
:101E2000BBFD011E02DD0198FFF786FF01980CF053
:101E300041FA03B05DF804EB04B07047F8B506460C
:101E40000CF038FF47000546791C01200CF00EFA13
:101E5000044670B12A46314600F033F83B4622462C
:101E600004480121FFF71AFF2046BDE8F8400CF0B6
:101E700021BAF8BD1409010807B50A46014601A8B0
:101E80000CF08AFD002805DB0198FFF7D7FF0198C9
:101E90000CF010FA03B05DF804FB0FB407B504A909
:101EA00051F8040B0191FFF7E7FF03B05DF804EB75
:101EB00004B07047092884BF0730C0B23030C0B2C8
:101EC000704738B5034604468D18A94204F1020450
:101ED00004D10021184603F8121038BD0878000913
:101EE000FFF7E8FF04F8020C11F8010B00F00F00F7
:101EF000FFF7E0FF04F8010CE7E7A0F1300302462A
:101F0000D8B2092806D9A2F13703D8B2102884BF65
:101F1000573AD0B27047F8B5044606468518AE4227
:101F200001F1020101D12046F8BD11F8020CFFF7C2
:101F3000E4FF074611F8010CFFF7DFFF40EA071046
:101F400006F8010BEBE7000070B504F087FA2B4AA6
:101F50001368C31A352B2FD9294E1060D6F8082CD8
:101F6000284BD2041D7843D435BB01221A70264B6E
:101F70001C78944221D0022C26D0ECB920461A704D
:101F800002F0E8FE4FF40073022203211F4801F023
:101F900080FE022221461D484FF4806301F079FE45
:101FA0004FF48063C6F8103803F05EFA184801F069
:101FB00000FE4023C6F8103C70BD02221A70204675
:101FC000BDE8704002F0C6BE28461D7002F0C2FE99
:101FD0000F4801F0F3FD03F047FA4FF4C0632A46BF
:101FE00029460A4801F055FE40220A4B9A82E3E74F
:101FF000002DE1D000221A70DEE700BFBC050020F2
:1020000000000140B5010020400000200008014010
:1020100000380140000C014000487047B801002022
:1020200070B59CB002F060FF4022374BC3F8102C13
:10203000002301934FF0FF330393344B04A81A6835
:102040001B9201AA1A600CF00FFE20B92F4C2268D7
:1020500001AB9A4211D0019B002BE9D02C4C2046B9
:102060000CF028FE01462046FFF766FE0BF052FA00
:1020700002992848FFF711FFDAE72022264B274D67
:10208000274E9A822B7833B1264B1B681BB1FFF782
:10209000F5FC2B78EBB920221B4B234DC3F8102CF9
:1020A0004FF480612846FFF77DFD2B780246042B14
:1020B00002D11C4B1B6813B12021174B99824FF49E
:1020C00080611948FFF7CCFCFFF73EFF1B9B2360A4
:1020D000BDE7144B1B68002BDDD0002004F076F820
:1020E0000338C0B2012804D933783BB9FFF72CFF7D
:1020F000C8E70C4B18680BF0A5FBF5E7094B18680F
:1021000000F09EFCF2E700BF00000140A4010020A7
:102110003807010816090108000C0140AD01002034
:1021200060070020A8010020B801002028B1B0FA03
:1021300080F0C0F12000C0B27047FF2070472DE949
:10214000FF4104466F460021262015461E4603F037
:10215000E9FF2046002103F0E5FF0024B84655EAD8
:10216000060305D194B9302301248DF800300DE029
:1021700005F00F00FFF79EFE01342D09102C45EAF3
:10218000067507F8010B4FEA1616E8D1013C00214D
:1021900018F8040003F0C6FF002CF7D1012123201A
:1021A00004B0BDE8F04103F0BDBF38B504460021DE
:1021B000262003F0B7FF00214B2003F0B3FF204699
:1021C0000CF078FD2518AC4205D1BDE8384001215E
:1021D000232003F0A7BF14F8010B0021212803D00E
:1021E000A0F12303012B00D8202003F09BFFEAE796
:1021F00037B504460D462620002103F093FF002149
:102200004B2003F08FFF00232544ADF80430AC428F
:1022100006D10121232003B0BDE8304003F082BF86
:102220000122214601A8FFF74CFE00219DF8040081
:1022300003F078FF00219DF8050003F073FF0134DF
:10224000E5E70000084A92F82D2032B1002345202E
:10225000120242F00302FFF772BF08B1FFF7C8BFD6
:10226000002200234B20F6E74400002070B50E1832
:1022700000200C460146A64200D170BD14F8015B57
:10228000A5F13002D3B2092B04D925F02003413B3C
:10229000052BF2D80B01392D43EA10734FEA0010D9
:1022A00007D9A5F16102192A94BFA5F15702A5F13A
:1022B0003702104343EAE271DDE700002DE9F04FF9
:1022C0000B78B7B04A2BCDE9021010D8402B19D9A2
:1022D000413B092B16D8DFE813F0C30115001500A8
:1022E0001500150015000001480115007000532B62
:1022F00008D1029B5B78532B19D005D8492B2BD0E2
:102300004F2B49D00122BFE0692B3AD06F2BF9D176
:10231000029B0220991CFFF7A9FF029B0446191D8E
:102320004FF0FF30FFF7A2FF9E4B9B6842E0039BFC
:10233000022B40F0A8809C4B9C4A5A609C4A9A60B1
:102340009C4ADA609C4A1A619C4A5A619C4A9A618A
:1023500003F0BCFC00221DE0029902200231FFF7CD
:1023600085FF00248F4B01465B68059405A89847BC
:10237000A042234614BF50204B20059AFFF7DFFEF2
:10238000CFE0029902200231FFF770FF854B1B68F6
:1023900098470246002339E0029B0220991CFFF770
:1023A00065FF029B0446191D4FF0FF30FFF75EFFEB
:1023B0007C4BDB6821469847CCE7029B5C78542C29
:1023C0003CD84D2C24D8442C9CD1039B042B5AD9A7
:1023D000029B0220991CFFF749FF029B0546191D2D
:1023E0004FF0FF30FFF742FF00220023CDE90C231E
:1023F000744BCDE90A01DE682B46A4F1440569421D
:102400000AAA69410CA8B047DDE90C234B20B5E7C7
:102410004E3C062C3FF676AF01A353F824F000BFE4
:10242000B724000805230008052300080523000839
:1024300063240008452400086B240008632C27D07F
:10244000642CC1E70022584BC3E901225E4ADA60DE
:102450005E4A1A615E4A5A615E4A9A6103F07EFAE8
:1024600078E7584B1B68984774E7029B0220991C39
:10247000FFF7FCFE029B0446191D0220FFF7F6FE43
:10248000039B032B02D8022200230CE14D4B4CE7A7
:10249000029B0820191DFFF7E9FE029B0246D9782E
:1024A00098783039474B18BF0121303818BF0120C8
:1024B0005B6998474EE7039B042BE4D1029BD978D4
:1024C0009878A1F131025142A0F131043D4B5141C4
:1024D00060425B68604198475BE7029B5B78562BE4
:1024E00028D00FD8462B33D005D8412B3BD0452BD5
:1024F0003FF430AF06E7502B7FF404AF00220023F7
:102500004E203BE7702B2BD00ED85A2B17D0662BC2
:102510007FF4F8AE03F0C4FF0421069006A8FFF78D
:1025200067FE37B0BDE8F08F7A2B7FF4EBAE02F098
:10253000FFFB2EE702F094FCFFF737FEF1E7029B6A
:102540009878A0F131035842584102F0D5FB01E7D9
:10255000029908200231FFF789FE03F085FFF9E6B2
:1025600002F0EEFB15E71C48E6E720221B4B9A829F
:10257000029B5B78432B03D04A2B0BD001220DE04A
:10258000032200234B20FFF7DAFD2022144BC3F86F
:10259000102CC6E7039B152B24D8022200234520CC
:1025A000F1E700BF780E0020440000209574000879
:1025B000D1740008D5730008FB7300080975000882
:1025C0008D730008580E002099720008B972000837
:1025D0000D720008E571000821FC0008000C0140A4
:1025E00000000140102200210EA80CF009FA029B05
:1025F0000220991CFFF73AFE029B0446191D022097
:10260000FFF734FE029B8DF84000991D0220FFF772
:102610002DFE029B8DF8410003F108010220FFF717
:1026200025FE029B8DF8420003F10A010220FFF70C
:102630001DFE029B8DF8430003F10C010220FFF701
:1026400015FE029B8DF8440003F10E010820FFF7F0
:102650000DFE0EA90F90E0B206F0FEFD002290E7FD
:102660001BAC6C22002120460CF0CAF900231B93FE
:102670004FF0FF331D937F4B1EA81A681C603592E4
:102680000CF0F2FA30B97B4E7B4C7C4F32681BABBE
:102690009A420AD01B9B002B3FF443AF1B9B1A02AC
:1026A00042F004021B0E452068E6039B072B07D867
:1026B000002200235020FFF742FD359B3360E5E701
:1026C000029B0220991CFFF7D1FD029B84F82C008D
:1026D000191D0220FFF7CAFD20235FFA80F98DF84B
:1026E00050901394BB82029B5B78612B56D00AD822
:1026F0004D2B00F08280522B39D0412B5BD0012230
:10270000002345201DE0642B1ED06D2BF7D1029BCA
:102710000820991DFFF7AAFD029B179003F10E01F7
:102720000820FFF7A3FD029B814603F11601082054
:10273000FFF79CFDB0F5806F054650D900220023BD
:102740005020FFF7FCFC0DE0029B0420991DFFF7D1
:102750008DFDE36881B2204698470421079007A8C1
:10276000FFF770FD2022464BC3F8102CA5E7029B13
:102770000420991DFFF77AFD029B804603F10A01B0
:102780000820FFF773FD49460346656920461FFA96
:1027900088F2A8470421089008A8E1E7029B0420DA
:1027A000991DFFF763FDE36981B212A898470421E0
:1027B000099009A8D4E7029B0420991DFFF756FD54
:1027C000029B054603F10A010820FFF74FFD236A2B
:1027D0000246A9B212A8984700210846C0E7FFF7B1
:1027E0001BFC8046139B0146D3F824A012A82B465D
:1027F0004A46D04729464046B2E7029B0820991D29
:10280000FFF734FD029B179003F10E010220FFF742
:102810002DFD029B824603F110010820FFF726FDE3
:10282000029B814603F118010820FFF71FFDB0F558
:10283000806F804682D84FF0FF355FFA8AFA05FA3A
:102840000AF530EA05057FF479AFFFF7E5FB83462B
:10285000029B424603F12001FFF75DFB139BCDF87D
:1028600000A0D3F828A05A464346494612A8D047AC
:10287000B2E700BFA401002044000020000C01408A
:1028800000000140000000002DE9F04F0027A5B036
:1028900081460C4616460021902268460CF0B0F89E
:1028A000BB46B44217D2A6EB0408B8F1800F28BF8C
:1028B0004FF08008102220A968460CF0EDF943463D
:1028C0002246484604A90AF055FF054628B121468C
:1028D0001F48FFF7E2FA00202EE0EA461AA3D3E9E8
:1028E00000231AF8010B1B49A0FB01010BF022FB8E
:1028F0001949881A63EB4301C0194BEB010112A37C
:10290000D3E900230BF016FB19029AF80F3041EAC5
:1029100012611202D01841F100010BA3D3E9002388
:102920000BF008FB0D491746002B08BF8A429B4657
:1029300005D1A4F10F00284425B0BDE8F08F013582
:10294000A845CBD18034ACE791967A79000000009D
:102950002E090108017DB07391967A79CD1041441A
:102960002DE9F04F8246A3B020480C4617460CF0E4
:10297000A1F9431E3F2B064603D9002023B0BDE832
:10298000F08FA0F17F03DFF868B00093A7EB040895
:10299000BC42F2D2B8F1800FC14628BF4FF0800987
:1029A00022464B46504602A90AF0E4FE0546D8B13D
:1029B00021465846FFF771FAC6F17F031C44009B7D
:1029C0009844E5E701355A199145F5D9019305F188
:1029D00008030DEB0300324604490CF053F8019B49
:1029E0000028EFD16019C9E7731CECE766070020E7
:1029F0002E0901082DE9F04102F003071D46FB18DE
:102A00009E0718BF04330C4622F0030118BF23F0C1
:102A100003038A4206D1AB4204D12146BDE8F0410E
:102A20000AF0A8BE0A4621460AF0A4FE06462A4637
:102A30002046E1190BF0CAFF3046BDE8F0810000E6
:102A40002DE9F04F05468DB0002800F03682DFF802
:102A5000508198F80030002B00F02F8203F0FEFC2C
:102A6000504E514F32683B6800901344834202D964
:102A7000824240F222824D4CDFF83491237823B910
:102A800028460AF089FE89F8000099F80030002BEA
:102A90004AD1002301932378002B40F0CF80454A90
:102AA000336012683A60444A136098F80020002AA4
:102AB00036D0424E3360424B1B78002B58D1D5F8AC
:102AC0006C90404FB9F1000F41D1326822B3082316
:102AD0002846103206A90AF04DFEE8B9069BDFF839
:102AE000E890102B88BF1023C9F80030D9F80030C7
:102AF000079A364F3A601A44102A84BFC3F1100275
:102B00003A60FF2B02D83A68FF2A40D93048FFF7D5
:102B100095F9002388F800302378002B40F08E8050
:102B20004FF0000A56462FE1284605A90AF08EFE0E
:102B30000028AED128460AF085FE284605A90AF0ED
:102B400085FE0028F9D0811E4B424B41A2E73B781D
:102B5000D9E9001228460A443BB9FFF795FE3060D8
:102B60000028B2D1D9F80890ACE7FFF7F9FEF6E7F4
:102B7000184B28461968184B1A68124B1B781BB95A
:102B8000FFF782FE3060A0E7FFF7EAFEFAE753EABC
:102B9000020A25D11148FFF751F988F800A0BBE7D8
:102BA00060070020C0050020C80500206407002041
:102BB000650700208C000020C4050020CC05002003
:102BC00062070020660700207C07002078070020AD
:102BD0004809010884070020800700205A090108DD
:102BE0004FF4C07200219B480BF00AFF9A4B1B78F0
:102BF000CBB10023994918460A460133102B01F83E
:102C0000010BFAD1D9F80030191E18BF0121012B90
:102C1000117094BF002101210F2B517003D8396826
:102C200009B10121D1541823284632688C490AF091
:102C3000A1FD00287FF470AF012323701823894F72
:102C400028463A680DEB03010AF094FD30B91822CA
:102C500083480DEB02010BF0A9FE08B1002323709D
:102C60002678002E3FF45CAF3A68002A3FF458AF54
:102C7000DFF8F4B17D4BDBF800101B6828460B44ED
:102C800018214B430A4473490AF074FD002874D19B
:102C9000804682460646714B6E4C0293734B1A680F
:102CA000DBF80030134443456ED9029B13F8019BB7
:102CB0000293B9F1000F5CD0424540F28180616817
:102CC000002956D0A768002F53D0E3689F4240F2F6
:102CD000AA802269974240F2A680934249D06BD2E3
:102CE000BF1AB7F5806F28BF4FF480670A443B4690
:102CF00028465F49FFF77EFE002840F09480236954
:102D0000A2683B44B3FBF2F002FB1033C7F58061CD
:102D10002361D4E90332934218D9B9B19B1A8B428B
:102D200028BF0B46616828460A4451490393394439
:102D3000FFF760FE002876D12269039B1F441344ED
:102D4000A268B3FBF2F102FB113323611820454B5B
:102D500004F1100219680423283100FB08112846E9
:102D60000AF011FD00285ED13946414803F0E4FA2B
:102D7000CA4608F10108183490E739683D4818310F
:102D8000FFF78BF84FF0000A019B1BB1002128468A
:102D90000AF061FD384B009A1A60384A1368BAF19C
:102DA000000F55D0002E53D15B08354913600968D8
:102DB00099426BD211606DE000274FF48061A8E763
:102DC00063693049B3FA83F252090A709A1E53427A
:102DD00053412D4A137003F0A3FA0028C9D1636848
:102DE000002BC6D0A368002BC3D0E26893421AD947
:102DF0002269934217D9E768A3680137B7FBF3F25A
:102E000003FB127723699F4211D003F065FA069005
:102E100001300CD06068E1680123014406AA28460D
:102E20000AF0B1FC08B14E46A3E7E760E3E71820DB
:102E30000C4B04F10C0219680423243100FB081127
:102E400028460AF0A0FC002814BF4E46CA4690E768
:102E50005B00AAE7D0050020840000205007002076
:102E600088070020CC050020780700207C07002080
:102E7000A00700202E090108C0050020C805002079
:102E80008C00002063070020610700200C490968BE
:102E900099428FD88EB10B48FEF7D0FF0A4A1368CB
:102EA00001331360094A12683AB1934205D90848C0
:102EB000FEF7C4FF0022074B1A700DB0BDE8F08F7B
:102EC000900000206E090108C40500208800002041
:102ED0007909010860070020024B0360024B0B6078
:102EE000704700BF481600200030002070B50A4E21
:102EF000054633680C461BB931460848FFF7ECFF1E
:102F0000064A3168106804448C4283BF0C234FF09A
:102F1000FF302B60146070BDAC0B0020A80B0020AC
:102F2000FEE738B504460D4603F098FA012D2CBF94
:102F300040190130206038BD10B5044603F08EFA08
:102F40002368984294BF0020012010BD012243094C
:102F50009B0003F1604300F01F0003F561438240D2
:102F60001A60704701234109034A00F01F008340A3
:102F700042F82130704700BF80E100E0432893BF52
:102F800000F16040044B00F00F0000F564408CBF7E
:102F9000C1540170704700BF14ED00E04FF0E02312
:102FA000014AC3F80C2DFEE70100FA054FF0E023BB
:102FB00020F07F40586170474FF0E022136900F025
:102FC000040023F004030343136170474FF0E02231
:102FD000136943F00203136170474FF0E022136955
:102FE00043F0010313617047FEE7704738B51A4A92
:102FF0001A4B1B498B421AD300211A4A93421BD306
:103000004FF0E022D2F8143D174C43F40073174DF3
:10301000C2F8143DAC4212D3154C164DAC4212D33B
:10302000FEF7FEFF144C154DAC4210D338BD52F8DC
:10303000040B43F8040BDDE743F8041BDEE754F808
:10304000043B9847E6E754F8043B9847E6E754F812
:10305000043B9847E8E700BF242D0108000000204A
:103060009C010020481600201C2D01081C2D010881
:103070001C2D01081C2D01081C2D01081C2D010808
:1030800008B540F2973000F0B1F90022064B07482E
:10309000C3F8402CC3F8502CC3F8442C4FF41C4206
:1030A000C3F8402C08BD00BF00500040B00B00200A
:1030B0000132521001EB4202914200D1704731F8C7
:1030C000023B40F8043BF7E7034670B502F0010409
:1030D000520801EB8205A94204D114B10B7800F823
:1030E000123070BD31F8046B23F8026BF3E783688C
:1030F00023F0010383607047436823F480734360C7
:103100007047836823F40063836070470068C0F3EE
:1031100040007047C06C7047836823F002038360EF
:1031200070471029F0B510D800246FF03B064FF01F
:10313000010C274623465FFA8CF5A94206D20139D5
:1031400043EA0153C36207634463F0BD062D0AD806
:10315000157806F13C0E05FA0EF52C430CF1010C26
:1031600001320536E7E7073D052D15789BBF06F1CF
:103170001E0E05FA0EF5B5402F4388BF2B43EDE731
:1031800014230022013903FB01039A60DA601A61FB
:103190005A610F23426889008B4013434360704794
:1031A000013989008A40426070471423013959432C
:1031B00008300B5823F440530B500B5813430B505B
:1031C000704714230139594308300B5823F44063E6
:1031D0000B500B5813430B507047142301395943BC
:1031E00008300B5823F440730B500B5813430B500B
:1031F000704714230139594308300B5843F08003BA
:103200000B50704714230139594308300B5843F0D1
:1032100020030B500B5823F480430B5070471423AA
:103220000139594308300B5823F010030B507047F5
:1032300014230139594308300B5843F010030B5045
:10324000704714230139594308300B5843F00403E5
:103250000B50704714230139594308300B5843F081
:1032600002030B50704714230139594308300B589F
:1032700043F001030B5070471423013959430830C0
:103280000B5823F001030B5070471423013903FB43
:1032900001008368DB0758BF0261704714230139BE
:1032A00003FB01008368DB0758BF426170471423AA
:1032B000013959430C30085880B270471423013942
:1032C00059430C300A50704701290FD0022918D0F9
:1032D00059B90E4BD3F808240243C3F80824D3F895
:1032E0000C2422EA0002C3F80C247047074BD3F8E1
:1032F000082422EA0002C3F80824D3F80C2402436D
:10330000F1E7024BD3F808240243F4E70000014040
:10331000054BD3F800240243C3F80024D3F8042457
:103320000243C3F80424704700000140014BC3F876
:1033300014047047000001402DE9F04F844600223C
:103340004FF0010E0F271E4EDFF87880DFF87890DF
:10335000DFF878A00EFA02F313EA0C0F19D01C4B19
:10336000994225D01AD8414524D0494524D0A1EB13
:103370000A004342434106EB9204A40002F0030515
:103380002068AD0007FA05FB20EA0B00AB401843AC
:1033900020600132102ADDD1BDE8F08F0D4B99423B
:1033A0000CD003F5806399420CBF06230023E2E7AB
:1033B0000423E0E70223DEE70323DCE70523DAE763
:1033C000024000100010014000140140000C0140B8
:1033D00000180140001C0140034A136823F0070352
:1033E00003431360704700BF0020024001224309DD
:1033F00003F1804303F50433196800F01F00824095
:103400000A431A6070470000024B41F08001C3F884
:103410004C1C7047005000403E2A14D9013AC2F3B8
:10342000441302F4787202F1200043F02003094AA9
:103430009B02D2F8502C9BB292B202EBC101064A19
:103440004900535070470132530822F0010290B2F4
:10345000EDE700BF005000400C6000402DE9F34153
:1034600006464FF0C060444C01F07F08CDE90040B3
:103470004FEA880404F1804404F5B844206802ADA2
:1034800020F4E04020F07F0040EA080080B2206095
:10349000206805EB420232F8082C20F4EC4020F0C2
:1034A0007000104349B280B20029089F20604FEAA3
:1034B000C8022ADBB8F1000F27D03049B58BD1F80C
:1034C000501C304689B20A442D4952008D501A468C
:1034D0004146FFF7A1FF002F47D12368054423F49D
:1034E000415323F030031B041B0C2360236823F497
:1034F000804323F070039BB283F4405343F40043B2
:1035000043F080032360B5832CE01C48B6F81CC050
:10351000D0F8500C80B21044400000F1804000F51B
:10352000C040C0F800C01FB10C2000FB08608767D6
:1035300020689C4420F4E04020F030000004000C9F
:1035400020602568002925F4E04525F04005ADB24E
:1035500085F0200545F4004545F080052560A6F876
:103560001CC0AADA02B0BDE8F0810C2303FB086896
:10357000C8F87C70B1E700BF0002000400500040B2
:103580000860004048F2800170B50B4A0B4E0C4DAC
:103590000C4C136833400B439BB2136013682B40F1
:1035A0000B439BB242F8043BA242F2D10368DB79A1
:1035B00020335B00838370BD045C0040BF8FFFFF3E
:1035C0008FBFFFFF205C004010B599BB002A14BFDD
:1035D000102420242A48D0F8003C23F4E04323F0B0
:1035E00040039BB2634043F4004343F08003C0F8C0
:1035F000003C890001F1804101F5B8413AB90B68FE
:1036000023F4415323F030031B041B0C0B60002AEE
:1036100014BF4FF480524FF440520B6823F48043A0
:1036200023F070039BB2534043F4004343F0800304
:103630000B6023E00B06DCD5002A14BF10222022E9
:1036400001F07F034FEA830303F1804303F5B8439E
:10365000196821F4E04121F0400189B282EA0102B7
:1036600042F4004242F080021A6007D11A6822F444
:10367000E04222F030021204120C1A6010BD00BFAA
:10368000005000400B060ED501F07F01890001F1CA
:10369000804101F5B841086800F03000102814BFDF
:1036A000002001207047890001F1804101F5B841F7
:1036B000086800F44050B0F5805FF0E70B0612D4C4
:1036C0000B4B0C485A54890001F1804101F5B84177
:1036D0000B6803409BB23AB183F4005343F40043B8
:1036E00043F080030B60704783F44053F6E700BF5C
:1036F000C40C00208FBFFFFF08462DE9F0411E4695
:1037000000F07F039D0005F1804505F5B8451146A1
:103710002A6802F03002302A2CD0DFF85C80324672
:10372000D8F8504CDF00A4B204EBC304640004F1E9
:10373000804404F5C0442088400000F1804000F53A
:10374000C040FFF7B5FCD8F8503C9BB21F440B4B70
:103750007F00DE51296821F4E04121F0400189B267
:1037600081F0300141F4004141F080012960304690
:10377000BDE8F0810026FAE70050004004600040F8
:10378000F8B58D0005F1804505F5B8451C462B6858
:103790000E4603F44053B3F5405F10463FD0214F2F
:1037A000CA00D7F8503C9BB203EBC1031E495B0033
:1037B000CB58C3F30903A34207DAD7F8503C9BB2B6
:1037C00013445B00CC58C4F30904164BD3F8503CA7
:1037D0009BB21A44154B5200995A2246490001F1F6
:1037E000804101F5C041FFF76FFC2B6823F0F00327
:1037F0001B051B0D43F080032B600D4B9B5D63B9D4
:10380000296821F4804121F0700189B281F440518E
:1038100041F4004141F0800129602046F8BD0024B8
:10382000FBE700BF005000400C6000400860004013
:10383000C40C00203B4AF8B5D2F8443C04465F056E
:103840009EB209D54FF6FF33C2F8443C4023838330
:10385000BDE8F84000F0F9BB1D041ED503F00F07CA
:10386000BD0005F1804513F0100305F5B8453DD0C6
:103870002B68190543D50823394600F13402FFF7B8
:103880007FFF022307EB470213441E3354F8233013
:10389000002B36D0394620469847320507D54FF2DF
:1038A000FF72204BC3F8442C636A03B19847F304BA
:1038B00007D54EF6FF721B4BC3F8442CA36A03B125
:1038C000984716F4007FE36A164D05D04FF6FF5275
:1038D000C5F8442CF3B19847E36ADBB1114AD2F83A
:1038E000403C43F40073C2F8403CF8BD2A6822F023
:1038F000F0021205120D42F400422A60C2E70123D1
:10390000C0E72B6823F0F0031B051B0D43F0800379
:103910002B60C2E7D5F8403C23F40073C5F8403C67
:10392000E3E700BF00500040C3680B43C36070472B
:10393000C36823EA0103C360704703690B4214BFE5
:10394000012000207047C9430161704710B5046829
:103950001A4324F45C740A432243026010BD0368D6
:1039600023F0080303607047036843F00403036017
:103970007047036843F0010303607047C1627047FA
:10398000C36923F00303C361C369C361C36923F03F
:103990007003C361072907D8DFE801F004070B0FA4
:1039A00013171B1FC369C3617047C36943F010033A
:1039B000F9E7C36943F02003F5E7C36943F0300337
:1039C000F1E7C36943F04003EDE7C36943F05003F7
:1039D000E9E7C36943F06003E5E7C36943F07003B7
:1039E000E1E7062909D8DFE801F0041509190D1DE2
:1039F0001100036A43F0020303627047036A43F055
:103A00002003F9E7036A43F40073F5E7036A43F41C
:103A10000053F1E7036A43F00803EDE7036A43F05C
:103A20008003E9E7036A43F40063E5E7062909D860
:103A3000DFE801F0041509190D1D1100036A43F0B8
:103A4000010303627047036A43F01003F9E7036A56
:103A500043F48073F5E7036A43F48053F1E7036AA4
:103A600043F00403EDE7036A43F04003E9E7036A28
:103A700043F48063E5E706290CD8DFE801F0040B86
:103A8000060B080B0A004263704782637047C263EB
:103A9000704702647047436C43F4004343647047CB
:103AA000436C0B4343647047FFF7FABF01F0FD031B
:103AB000012B02F0030204D1531E012B98BF82F0A8
:103AC000030203291AD8DFE801F0020A121A8369F7
:103AD00023F0030383618369134383617047836920
:103AE00023F440738361836943EA0223F5E7C369E2
:103AF00023F00303C361C3691343C3617047C36900
:103B000023F44073C361C36943EA0223F5E7012349
:103B1000026A89008B40134303627047836823F075
:103B2000070383608368194381607047836823F0CB
:103B300070038360836819438160704738B50C4611
:103B4000054600F031FA00EB5403B3FBF4F3AB602D
:103B500038BDC36808290CBF23F4805343F4805355
:103B6000C3607047C36813F4805F14BF0920082046
:103B70007047036923F440530B43036170470069A6
:103B800000F440507047C36823F4C0630B43C36024
:103B90007047C06800F4C0607047C36823F00C032E
:103BA0000B43C3607047436923F440730B43436185
:103BB0007047C36843F40053C3607047C36823F47D
:103BC0000053C3607047436943F04003436170474B
:103BD000436943F08003436170474068C0F30800C5
:103BE000704703680B4214BF0120002070478368B0
:103BF000DB075EBF836843F001038360704783681F
:103C0000DB0742BF836843F0010383607047000015
:103C1000034AD2F8083443F40003C2F8083470476A
:103C200000200140836823F4801383607047836819
:103C300000F1080243F00803836013681B07FCD4FB
:103C40007047836843F00403836070478068C0F363
:103C50008000704708B50246FFF7F3FF1046FFF7F4
:103C6000F5FF0028FAD108BD0022134610B501FA6D
:103C700002F403321E2A43EA0403F8D1002203614E
:103C800001FA02F40332182A43EA0403F8D1C360AC
:103C900010BD2DE9F0414FF00F0C00250768466874
:103CA00043FA05F4E4071CD5072D94BFBE46B6467B
:103CB000ACB24FEA84048ABF203CA4B2A4B20CFA8E
:103CC00004F82EEA080804F1020E02FA0EFE01FAC8
:103CD00004F44EEA040444EA0804082D2CBF2646E6
:103CE00027460135102DDBD107604660BDE8F08125
:103CF000034A536823F0E0630B4303435360704768
:103D000000000140062824D8DFE800F004090E1363
:103D1000181D2000104B1868C0F3406070470E4B10
:103D20001868C0F3C06070470B4B1868C0F3407050
:103D30007047094B1868C0F340407047064B18683D
:103D4000C0F340007047044B186AF9E7024B586A09
:103D5000F6E70020704700BF00100240024608B599
:103D60001046FFF7CFFF0028FAD008BD06282AD852
:103D7000DFE800F0040A0F14191E2400124A136829
:103D800043F08073136070470F4A136843F08063F9
:103D9000F8E70D4A136843F08053F3E70A4A1368C3
:103DA00043F48033EEE7084A136843F00103E9E780
:103DB000054A136A43F0010313627047024A536ACB
:103DC00043F001035362704700100240034A5368F6
:103DD00023F0030303435360704700BF0010024009
:103DE000034A536823F4701343EA804353607047D7
:103DF00000100240034AD36A23F4706343EA0023AD
:103E0000D362704700100240034AD36A23F4704320
:103E100043EA0033D362704700100240034A5368FC
:103E200023F4803343EA004353607047001002409C
:103E3000034A536823F4003343EA40435360704716
:103E400000100240034A536823F4404343EA80339E
:103E50005360704700100240034A536823F46053D4
:103E600043EAC0235360704700100240034A53687E
:103E700023F4E06343EA00235360704700100240DC
:103E8000034A536823F0F00343EA0013536070477A
:103E900000100240044B5A6818B142F480025A6084
:103EA000704722F48002FAE700100240034AD36A06
:103EB00023F00F030343D362704700BF001002409A
:103EC000034AD36A23F0F00343EA0013D362704736
:103ED00000100240044BDA6A18B142F48032DA6210
:103EE000704722F48032FAE70010024010B5044611
:103EF0004378012B0CBF03200420FFF737FFFFF7A7
:103F00002DFFA078FFF7BCFFE078FFF7AFFF207927
:103F1000FFF7A2FF6079FFF795FF207BFFF7BAFF5D
:103F2000A079FFF759FA2078FFF75AFF6078FFF77A
:103F300075FFE07901282DD9FFF7B8FF207A08B185
:103F4000FFF7C8FF607A08B1FFF7BAFFA07A30B177
:103F5000FFF750FF0120FFF709FFFFF7FFFEE07AB0
:103F600030B1FFF751FF0220FFF700FFFFF7F6FE29
:103F70000020FFF7FBFEFFF7F1FE0220FFF726FF10
:103F80002269064B1A606269054B1A60A269054BEB
:103F90001A6010BDFFF74CFFD0E700BF940000206F
:103FA000980000209C000020034B98420CBF034B5C
:103FB000034B1868704700BF003801409C00002088
:103FC00098000020022389008B401AB1026A134333
:103FD00003627047026A22EA0303F9E72DE9F04120
:103FE0001E4603681746054688469847069B079A6B
:103FF000036100234261BDF82020C0E900870283ED
:10400000084AC0E93C33C0F88020074AC0E936338B
:10401000C267064AC0E93833C0F8EC50C660826710
:10402000BDE8F0817D420008DF42000863430008DC
:1040300081607047D0F8EC305B6A184710B4D0F854
:10404000EC40A468A44610BC604737B50025044680
:1040500003684583DB792A4629460095FFF7EEFF82
:10406000D4F8EC3029465B6820469847236A1BB198
:1040700003B0BDE83040184703B030BD10B4D0F8ED
:10408000EC40E469A44610BC604710B4D0F8EC40A2
:10409000246AA44610BC6047D0F8EC301B6918476E
:1040A000D0F8EC309B691847D0F8EC305B691847C2
:1040B00010B50268B0F84030D17904468B42C26B2B
:1040C00011D90B460021FFF7D9FF022384F83030C5
:1040D0002368DA79E36B1344E363B4F840309B1A46
:1040E000A4F8403010BD0021FFF7C8FF94F8483015
:1040F000C3F1030384F83030002384F84830A4F877
:104100004030E363EEE72DE9F74F04460D460646DF
:1041100000F1200A00F13C0700F1400800F14409D9
:10412000D6F858B0BBF1000F0AD1A36803BB4346D1
:104130003A462946204603B0BDE8F04F00F0B4BD32
:104140002B7896F85D1096F85C200B409A4203D0CD
:104150000836B245E4D1E8E743463A4629462046C8
:10416000CDF80090D8470128F2D803B0BDE8F08F11
:10417000E66C002EDBD02B7803F07F03402BD6D1EA
:1041800043463A4629462046B0470128CFD8ECE7B7
:1041900010B5012200210446FFF77EFF002384F8BA
:1041A000303010BD70B50368B0F84020448FDB7923
:1041B000A41A9C42A8BF1C46C16BA6B20A4433464F
:1041C00000210546FFF761FF864205D02846FFF72C
:1041D000DFFF4FF0FF3070BDB5F84030A0B21E4495
:1041E000A5F84060F7E738B543690446C3638B79A7
:1041F000CA790D4643EA0223A0F84030FFF783FF57
:1042000008B3EB88B3B1B4F8402021689342C97970
:104210000ED932B1B2FBF1F301FB1322B2FA82F2F2
:104220005209204684F84820BDE83840FFF740BFD7
:104230000022F6E71A4619462046FFF71FFF04231F
:1042400084F8303038BD2046BDE83840FFF7A0BFC5
:1042500070B50446002500F1580656F8350028B11F
:104260000135042DF9D14FF0FF3070BD04EBC504CA
:1042700084F85C1084F85D20A365F6E770B500252E
:10428000044601222946456400F13406FFF70CFF7D
:10429000628F2AB931462046BDE87040FFF7A3BFC0
:1042A00094F93430002BF5DB238B934204D2204663
:1042B000BDE87040FFF76CBF6369A4F84050E3634A
:1042C00023682946DB792046934234BF0523062321
:1042D0002A4684F83030BDE87040FFF7E5BE10B5DF
:1042E00090F830300446062B13D0072B28D0052B2E
:1042F00022D1FFF757FF00280ADBB4F84020638F74
:104300009B1A2268D279934202DC062384F830306B
:1043100010BDFFF747FF0028FADB204604F1340107
:10432000FFF7F1FE38B1002320461A461946FFF781
:10433000A5FE0423EAE72046BDE81040FFF728BFAA
:1043400000231A461946FFF7A0FE002384F83030F8
:10435000636C1BB1204604F1340198470023636469
:10436000D6E710B590F830300446032B07D0042B65
:104370000ED0022B23D1BDE81040FFF799BE0723D2
:10438000002280F830301146BDE81040FFF78CBEA7
:10439000436C13B100F13401984794F8343053B9A9
:1043A00094F83530052B06D1E18ED4F8EC30204658
:1043B0005B68C9B29847002384F8303010BDBDE86F
:1043C0001040FFF7E5BE2DE9F04F91B00C938B88BC
:1043D000072B07D0B3F1080018BF0120400011B02F
:1043E000BDE8F08F4B8823B990F85450046DAB4270
:1043F00001D30020F3E7A0464E7898F80A701034F5
:10440000B74240F004814369B8F800700693136026
:104410000C9B41461C880698A74228BF27463A466F
:10442000E41B0AF039FCA3B20293B8F800300993F8
:1044300000230193019A98F80B309A4206D3069B09
:10444000099A01201A810C9B1F80C8E7D8F80C50EC
:10445000019BDDF808A01C0105EB03130793069BE5
:104460003B4408932B5BDDE907109A4528BF9A4629
:1044700052460AF011FC029BA3EB0A039BB2049381
:104480002B5B059300230393079B039A1B7B9A42A4
:1044900014D3059A089BDA80029B934228BF1346E7
:1044A000029AD21A92B23B4402929FB2059A099B99
:1044B00013449BB20993019B0133BAE7039B1C0190
:1044C000079B9D68039B35F804B005EB03130A9323
:1044D000089B0A9903EB0A09049B48469B4528BFA1
:1044E0009B465A460AF0D8FB00232E5B049C0B9394
:1044F0000A9A117B9DF82C20914213D8A9F80660E6
:10450000049B049AB34228BF3346D21A53441FFA7D
:1045100083FA059B92B233449BB20593039B0492AA
:104520000133B0E70A9A95681D446A88042A22D0AC
:1045300003D8032A04D00026E2E7053A032AFAD872
:104540002A882946A24228BF224609EB0B0092B2D4
:104550000E930D920AF0A0FB29880E9B0E440D9A33
:10456000B6B20B44A41A5A441FFA82FB0B9AA4B2A7
:1045700001320B92BCE7082C224628BF08220F9379
:1045800009EB0B03184692B229460D930E920AF0DE
:1045900083FB0E9AA968A41A5A441FFA82FBEA8880
:1045A000A4B2A24228BF224609EB0B000E920AF0E9
:1045B00073FB0E9A05F10C01A41AA4B2022C9344C9
:1045C000224628BF02221FFA8BFB09EB0B000E923A
:1045D0000AF062FB0E9A2969A41A9344AA89A4B22C
:1045E000A24228BF22461FFA8BFB09EB0B000E925A
:1045F0000AF052FBE988A8890D9B01440A3189B26F
:1046000019800F9B31440E9A8EB21433AAE70133FE
:10461000EDE60000024B80F85420C0E913317047EA
:10462000C743000808B50B786BB949887F290BD8B8
:10463000D0F8EC30C9B2817693F830200AB15B68CB
:104640009847012300E00023184608BDF8B50D4641
:104650004988044679B103680D26587C00239842A6
:1046600001D80020F8BD626806FB032252798A4215
:1046700003D00133F3E74FF0FF330133DBB2E376CE
:104680004BB9D4F8EC302046DB689847D4F8D830E2
:104690009BB90120E6E70D22534362680D3B1A44A3
:1046A0000023184611799942EBD9D2F809101E015E
:1046B000715801B108700133F4E7002304F1D40606
:1046C000A3652366A366236704F1E40756F8043F55
:1046D00013B1204669889847B742F7D1D9E71988BE
:1046E000012984BF01211980C37E11682BB1426862
:1046F0000D2000FB032313F8083C01200B707047CA
:1047000070B51C460D23C27E5A4343680D3A1344CC
:104710001D798A88954219D9D3F80950160105EBFD
:1047200002124B8812799A4210D9AA5952B11370C9
:10473000D0F8E83013B14A888988984700230120CF
:10474000238070BD002BF3D01046FAE70020F8E775
:1047500030B50D25C47E40686C430D3C20448D88E7
:104760000479A5420CD201241C808B88D0F8090062
:104770001B011B5803B11B7801201268137030BD58
:104780000020FCE719880120022984BF022119803A
:10479000002311680B7012685370704710B51446EF
:1047A0001A88022A84BF02221A808988C9B2FFF7B8
:1047B00077FC003818BF0120002223681870236896
:1047C00001205A7010BD08B589880122C9B2FFF7CF
:1047D00063FC012008BD08B589880022C9B2FFF733
:1047E0005BFC012008BD00002DE9F04F8BB0019368
:1047F000064648889046040AC7B2032C3D4600F09E
:10480000708105D8012C28D0022C34D000242EE051
:104810000F2CFBD1B46854B3002FF7D1D6F8149005
:10482000019BC2F8009094F800801F882146B8458B
:1048300028BFB846484642460AF02EFAA7EB0807BA
:1048400094F800B0BFB26B0122790293EBB29A42A6
:1048500000F2FF80A9F802B007E133681360019A03
:104860001B781288934228BF1346019A1380204672
:104870000BB0BDE8F08F73694FF00009136003932C
:10488000019BD6F804801C880D235F43ADF8269069
:1048900018F8075008EB0703A54228BF254619461C
:1048A0002A46039805930AF0F7F9039BBDF82620E2
:1048B0005E1918F80730641B1344A4B2ADF8263013
:1048C000CDF80890059B1A79BDF808309A420AD8AD
:1048D000022203980DF1260110440AF0DDF9019B34
:1048E0001D800124C3E7029B029A1B010693059BCE
:1048F000D3F8093003EB0213D3F80880B8F1000FA6
:1049000015D098F800703046A74228BF2746414688
:104910003A460AF0C1F998F80030BDF82620E41BA9
:104920003E4413442F44A4B2BDB2ADF82630002358
:104930000493059B069AD3F8093013441979BDF8FE
:104940001020914203D8029B01330293BAE715214C
:10495000049AD3F80C9001FB02F819F808A009EBAF
:104960000807A24528BFA2463946524630460AF0FB
:1049700093F919F80830BDF82620A4EB0A04134473
:10498000ADF82630D7F80D105644AA44A4B21FFA49
:104990008AF5C1B1D7F811903046A145A8BFA1460C
:1049A0001FFA89F842460AF077F9D7F81130BDF8B6
:1049B0002620A4EB080446441344A844A4B21FFADA
:1049C00088F5ADF826304FF000083A791FFA88F3E1
:1049D0009A4202D8049B0133AAE7D7F809B0C8EB82
:1049E000081A1BF80A200BEB0A09A24228BF22462C
:1049F0004946304607920AF04FF9079A1BF80A30E9
:104A0000A41A16442A4495B2BDF82620A4B2134431
:104A1000ADF82630D9F80710C1B1D9F80BB030463F
:104A2000A345A8BFA3461FFA8BFA52460AF034F9F1
:104A3000D9F80B30BDF82620A4EB0A0456441344E1
:104A4000AA44A4B21FFA8AF5ADF8263008F101088D
:104A5000BBE7D4F80530029A039303EB020A9AF8F5
:104A60000230052B09D04FF00008019BB8F100047B
:104A700018BF0124A3F80080F9E6142F3E4628BF92
:104A8000142609EB080318463246514604930AF0EF
:104A900003F9102245490AF1040009F087FF049B3D
:104AA000E8B9BA1B92B2082A28BF082204929819C2
:104AB000DAF814100AF0F0F8049A1644B6B2DDE9F8
:104AC00002239B5C5B441FFA83FB0EB9002FCAD103
:104AD000BF1B4644BFB21FFA86F80135B3E6002675
:104AE000EDE7776985B90923BB700423FB703B7040
:104AF000019B019A1B88042B28BF042313800323E6
:104B00007B70C8F80070ECE6D6F8F030AB421DD1EF
:104B1000D6F8F4000AF0CEF801304000C0B2019B94
:104B200038701B88019A834228BF034613800023F4
:104B3000019A12885208013A9A42E0DDD6F8F42030
:104B4000D15C07EB430251800133F1E7F468013D8A
:104B5000002C3FF48CAE3369AB427FF757AE40F286
:104B600009438A889A427FF451AE54F825000AF02E
:104B7000A1F801304000C0B2019B38701B88019A37
:104B8000834228BF0346138000234FEA8509019A18
:104B900012885208013A9A42B1DDF26852F80920AF
:104BA000D15C07EB430251800133F0E7480A01086A
:104BB00019880120022984BF02211980002311686D
:104BC0000B701268537070470246002310B500F155
:104BD000D40454F8040F38B1884209D00133042BAF
:104BE000F7D14FF0FF3010BD363342F82310FAE70B
:104BF0000020F8E730B44C78092C12D8DFE804F034
:104C00000D111111110F0B110905074CA44630BCF1
:104C10006047064CFAE7064CF8E7064CF6E7064C08
:104C2000F4E7002030BC70474D460008DF4600081E
:104C3000E9470008854700082546000810B44C786D
:104C40000A2C06D00B2C06D03CB9054CA44610BC4F
:104C50006047044CFAE7044CF8E7002010BC7047AA
:104C6000B14B0008514700080147000810B44C78C8
:104C7000012C04D0032C07D01CB9084C08E04C8848
:104C80004CB1002010BC70474C88002CF9D1044C6A
:104C9000A44610BC6047034CFAE700BF9D470008DC
:104CA000C7470008D747000810B40C7814F0600F0D
:104CB0000FD104F01F04012C05D0022C06D044B9FA
:104CC00010BCFFF797BF10BCFFF7B8BF10BCFFF7D1
:104CD000CDBF002010BC704708B501210548FEF784
:104CE0002CFE0028F9D0BDE8084001210148FEF75C
:104CF0002ABE00BF002C014010230B4A82B0C2F82C
:104D00001038042360B1C2F81038002342F20F7249
:104D10000193019B934205D8019B01330193F8E76E
:104D2000024A938202B0704700000140000801402F
:104D3000024BD3F80C08C0F380007047000001401C
:104D4000034BD3F8080C80F00200C0F3400070471A
:104D50000000014038B5002839D0022303211A464B
:104D60002648FEF796FF01212548FEF7ECFD0124B9
:104D7000FFF7B2FF2246042121480134FEF77BFEF3
:104D8000FFF7AAFF402CF5D102241C4D022301227B
:104D900003212846FEF77DFF002204211848FEF774
:104DA0006AFE4FF40073224603211648AC82FEF7D8
:104DB00070FF4FF48063224600211248FEF769FF1E
:104DC0004FF48062104BC3F81028012038BD022434
:104DD0000D4D4FF40073012221460A48C5F8104CCE
:104DE000FEF757FF4FF48063012221460548FEF786
:104DF00050FF4FF4C063C5F81038E6E7000C0140DF
:104E0000002C01400008014000000140082307B5C4
:104E1000114801210DF107028DF80730FEF781F9E5
:104E20000D48FEF7ECFE0C48FEF770F90028FAD0AA
:104E30000948FEF76FF9094AD2F8003423F002035B
:104E4000C2F800346323584341F6FF73B0FBF3F01C
:104E500003B05DF804FB00BF0024014000200140C6
:104E600010B5FFF7D3FF0A210346B3FBF1F201FBB4
:104E70001233034802F1300430330470837010BDE4
:104E8000A0000020002210B5084C11464FF480739A
:104E90000748FEF7FEFE4FF4805300220221204611
:104EA000FEF7F7FE4FF48053A38210BD000C0140C3
:104EB0000008014008B50A4B0A48D3F8081C4FF413
:104EC000807311F400511ABF002201210122FEF764
:104ED000E0FEBDE808404FF40050FEF727BA00BFDF
:104EE00000000140000801404FF0E022D2F8FC3DF4
:104EF00073B543F48033C2F8FC3D7348FEF7F6FF08
:104F000040F29730FEF772FA40F20230FEF76EFA86
:104F100040F20330FEF76AFA40F20B30FEF766FA11
:104F20004FF44070FEF762FA40F28620FEF75EFA18
:104F30004FF48073654C012200212046A382FEF7C6
:104F4000A8FE4FF48053022200216148FEF7A1FE23
:104F50004FF480535F4E002203212046C6F8103CD8
:104F60002023FEF796FE1023012203212046FEF7A0
:104F700090FE7023002202215548FEF78AFE042588
:104F800010230022C6F8103803212B462046A582A4
:104F9000FEF77FFE02230122C6F8103C03214C4895
:104FA000FEF777FE40210020FEF7A2FE00234A48CC
:104FB0001A461946FEF7CAFC06214748FEF7E0FCF0
:104FC00005214548FEF70DFD05214348FEF72EFD5E
:104FD000002229464048FEF74EFD00213E48FEF7DC
:104FE00063FD3F213C48FEF7C9FC3B48FEF753FDFB
:104FF0003948FEF7B4FC3848FEF7B6FC3648FEF7F1
:10500000B8FC40F20930FEF7F1F900220123114605
:105010002F48FEF73EFE3148FEF769F82F48FEF7AD
:105020006BF82E48FEF778F82C48FEF7FBFD2B486E
:10503000FEF767F807212948FEF716FEFEF7E8FDA0
:105040002648FEF7D4FD0023254A0193019B934295
:1050500036D92248FEF7EBFD2048FEF7FBFD4FF066
:10506000E023204A4FF40054C3F8082D01F0C8F99A
:1050700000F046FE00F038F8E0212820FDF77EFF22
:105080002820FDF763FF4FF48072124B0021C3F814
:10509000104C0F48C3F8102823460222FEF7F9FDF2
:1050A00020460B49FEF748F902212046FEF70CF98D
:1050B0002046FEF72DF902B0BDE87040FFF7FABEBA
:1050C000019B01330193C1E72C0A0108000801404C
:1050D000000C014000000140002C01400024014070
:1050E000FF340C000000000870B540F20E30614C37
:1050F000FEF77CF94FF42070FEF778F920464FF464
:10510000007302220321FEF7C4FD20464FF48063A2
:1051100002220021FEF7BDFD4FF48062564D574B31
:105120002846C3F810284FF41641FEF707FD4FF448
:105130001642534B284608211A60FEF70AFD2846FE
:105140000021FEF716FD28460C21FEF726FD284615
:105150000021FEF718FD28460021FEF724FD494AEC
:1051600004F57844D2F80C38474E43F01003C2F8E7
:105170000C3820460421FEF703F83246204604216D
:10518000FEF783F820460421FEF733F8204600227C
:105190000421FEF722F8204600220421FEF711F830
:1051A0004FF4005220460421FDF7FFFF2046042162
:1051B000FEF750F820460421FEF73AF82046052174
:1051C000FDF7DEFF324620460521FEF75EF8204659
:1051D00005212E4AFEF762F8802220460521FEF7BF
:1051E0006DF820460521FEF704F820460521FEF75C
:1051F00009F8204600220521FDF7EFFF2046002296
:105200000521FDF7DEFF4FF4005220460521FDF792
:10521000CCFF20460521FEF714F820460521FEF7B5
:1052200019F820460521FDF7FAFF20460521FEF773
:105230001AF820212520FDF7A1FE20210E20FDF7E0
:105240009DFE20210F20FDF799FE2520FDF77EFE13
:105250000E20FDF77BFE0F20FDF778FE2846FEF7B7
:10526000A8FC2846FEF7B4FC2846BDE87040FEF7CF
:10527000AABC00BF00080140003801400000014006
:10528000CC0C00200030014004380140D10C00203B
:1052900038B504461948FEF791FC25681748294699
:1052A000FEF74CFC164B62791D60A37902B1013305
:1052B000092B34BF082109211048FEF74AFC217947
:1052C00029B1012914BF4FF400514FF440510B484C
:1052D000FEF74FFC6379012B0AD0022B0BD0002183
:1052E0000648FEF750FCBDE838400448FEF761BCB4
:1052F0004FF4C061F4E74FF48061F1E700380140FA
:10530000CC0C0020134B10B51B68044603601248F8
:10531000FEF735FC20B1B0F5405F14BF022001203C
:1053200020710D48FEF735FCB0F5806F0CD0A0F56C
:10533000C0635842584160710748FEF713FC637917
:1053400023B9C3B2A37110BD0220F4E7431EDBB240
:10535000F8E700BFCC0C002000380140044A137865
:10536000034313701022034BC3F8102C704700BF87
:10537000D00C002000000140054B1A7822EA000200
:105380001A701B7813B91022024B9A82704700BF23
:10539000D00C0020000C0140024B1878024B03EBAC
:1053A000C0107047540E0020530D0020014B187898
:1053B000704700BF530E002070B50D4C0D4B0E4DC5
:1053C00022780E4E03EBC21204212846FDF766FF39
:1053D000042128463278FDF771FF04212846FDF7A5
:1053E00042FF00233370237883F00103237070BDE4
:1053F000540E0020530D002000000240530E0020E8
:1054000008B5094A13780344137058B1074B1A784A
:1054100042B100221A70FFF7CFFFBDE8084001201B
:10542000FFF79CBF08BD00BF530E0020A500002061
:1054300008B505210448FDF73AFF044B404200F04F
:105440007F00187008BD00BF00000240520D002010
:10545000034B1878034B1B78C31A584258417047C6
:10546000520D0020510D0020034B02201A78034BEF
:105470001A70FFF781BF00BF520D0020510D0020B0
:1054800010B5044B044C1A782178044800F0EAFD6A
:10549000207010BD520D0020510D0020D10C0020B5
:1054A00010B50F20FDF75EFD10210748FEF799FBB0
:1054B00004460548FEF791FB0CB100F0F7FDBDE88E
:1054C00010400F20FDF742BD0038014008B5142000
:1054D000FDF748FD04210F48FDF7CEFE012204210F
:1054E0000C48FDF75DFE0C4B1B7863B1FFF764FFC2
:1054F0000A4B002203211868FEF7D6FDBDE80840DC
:105500001420FDF723BD0120FFF736FF044B187070
:10551000F4E700BF00000240530E00208C10002072
:10552000A500002008B52520FDF71CFD0548012237
:105530000521FDF735FE00F0B9FDBDE80840252046
:10554000FDF704BD00000240024B06211F209B68AE
:10555000184700BF580E002010231D4A82B010B318
:10556000C2F81038082309B3C2F810381949184A8C
:105570000B6801334FF02003C2F8103821D00A68BD
:105580000092009BABB92021114BD3F80808A3F877
:10559000141800F040000192019B73B9003818BF45
:1055A000012002B070470C488382DBE70A4A9382ED
:1055B000DCE7009B013B0093E3E7019B013B019388
:1055C000EAE7D2F80808044AC0F380109382E8E7BB
:1055D000000001404012002000080140F7B50822F9
:1055E000224B234DC3F810282A68013236D10022FD
:1055F000102520271F4E00F00104914224D0002CDA
:1056000032D0C3F81058C3F81078400800F00104F5
:1056100000BF00BFB7820132EFE7C4074CBFC3F839
:105620001068BE82C3F810C8D5F800E0CDF800E0DD
:10563000009C5CB9A7F814C04008CDF804E0019CB8
:1056400044B901329142E8D103B0F0BD009C013C65
:105650000094EDE7019C013C0194F0E70022102644
:105660004FF0200C034FEDE7B582CCE7000001407E
:1056700040120020000801402DE9F04FDFF864E1FE
:1056800087B0CDE90001DEF80010102508260131B1
:105690004FF000010292544A0C46958296825CD1EA
:1056A0004FF0010B4FF02008504F8B4263D1590748
:1056B0001FBF03F1FF330099DB08CC5420239382F2
:1056C00056E001F0070B4FEAD10A01318B423BD87B
:1056D0000198002838D0C7F81058012000FA0BFCB8
:1056E000029810F80A8018EA0C0F14BFC7F8106867
:1056F0009682C7F81098DEF800000490DDF810805C
:10570000B8F1000F22D1D7F8088818F0400F1CBF5D
:1057100044EA0C0C5FFA8CF4BBF1070F02BF00984F
:1057200000F80A400024DEF80000A2F8149005906A
:10573000DDF814C0BCF1000F12D0DDF814C00CF17C
:10574000FF3CCDF814C0F3E79582C6E7DDF8108082
:1057500008F1FF38CDF81080D0E74FF02009234F33
:105760008B42AED1580703D0009A013BDB08D454DA
:1057700007B0BDE8F08F019801F0070A4FEAD109A0
:1057800001318B4288BF0020039002980BFA0AFC7B
:1057900010F809E00EEA0C0EA2F81480BEF1000F1A
:1057A0001BD0C7F810680398C8B1C7F8105800BFDD
:1057B00000BF00BFC7F81088D7F808E81EF0400FF8
:1057C0001CBF44EA0C0C5FFA8CF4BAF1070F02BF5D
:1057D000009800F80940002467E79682E3E7958285
:1057E000E5E700BF40120020000801400000014032
:1057F0002DE9F3471025DFF8E8C03A4BDCF800400C
:105800009D8201344FF000043AD14FF001094FF06E
:10581000200E4FF00808344EA2423DD100BF00BF19
:1058200020229A8235E004F007074FEAD40A0134B7
:10583000A2421FD8F0B1C6F8105811F80AA009FA10
:1058400007F71AEA070F14BFC6F810E8A3F814E028
:10585000C6F81088DCF800A0CDF800A0009F5FB962
:10586000A3F81480CDF804A0019F87B1019F013FE8
:105870000197F9E79D82E0E7009F013F0097EDE780
:105880004FF001094FF0080E4FF02008164EA242CB
:10589000C9D102B0BDE8F087E708CF5D04F0070C7E
:1058A00009FA0CFC0134A24294BF82464FF0000A70
:1058B00007EA0C07A3F814E0BAF1000F0AD0C6F803
:1058C00010584FB1C6F8108800BF00BF00BFC6F81F
:1058D00010E8A1E79D82F4E7A3F81480F4E700BF85
:1058E000401200200008014000000140F7B51446B6
:1058F000FFF732FE1648621E036801334FF00003C3
:1059000021D120211348144C9A4212D9C0F8101802
:1059100000BFA1820133F7E7C6F81048056800957B
:10592000009941B9BC820195019941B901339A426C
:10593000F2D803B0F0BD009901390091F0E7019968
:1059400001390191F0E72024024E034FEFE700BF39
:1059500040120020000001400008014010230022F6
:1059600010B503210F48FEF794F90F4B0F4A33246B
:105970001A600F4A5A600F4A9A600F4ADA600F4A5B
:105980001A610F4A5A6101221A7600210120FFF79D
:10599000E3FD013CF9D11021BDE810404EF23C700E
:1059A000FFF71CBE00080140580E002049550008B2
:1059B00059550008DD55000879560008F1570008D0
:1059C000ED5800082DE9F0413B4A84B01378012BD3
:1059D00070D001272026394C394D236817703B447D
:1059E000AE820093009B002B61D12022354BC3F87F
:1059F0001028236801330193019B002B54D1314AB5
:105A0000D2F8003823F4702343F48033C2F800380E
:105A1000236801331DD1B1B1202600234FF0010CC2
:105A20001027B646264D274C0CFA03F2024203F12A
:105A30000103A5F814E014BFC4F81078AF829942AE
:105A4000C4F81068F0D120221D4B9A8204B0BDE842
:105A5000F0810029F7D0202700234FF0010C4FF0F0
:105A60001008BE46164D174E08E0C6F8107822689A
:105A70000392039AAAB901339942E4D00CFA03F2D3
:105A80000242A5F814E018BFC6F81088226808BFC3
:105A9000A5F814800292029A002AE6D0029A013AEE
:105AA000F8E7039A013AE3E7019B013BA3E7009B78
:105AB000013B96E7014CABE7740E0020401200203A
:105AC000000801400000014070B582B00E46054656
:105AD00008F048FA044631462846FFF773FF1022C3
