:020000040800F2
:20000000E01C00200D2E0008312E0008352E0008392E00083D2E0008412E00080000000056
:20002000000000000000000000000000452E0008492E0008000000004D2E0008512E0008BC
:20004000552E0008592E00085D2E0008612E0008652E0008692E00086D2E0008712E0008D8
:20006000752E0008792E00087D2E0008812E0008852E0008892E00088D2E0008912E0008B8
:20008000952E0008992E00089D2E0008152D0008192D0008A92E0008AD2E0008B12E0008B2
:2000A000B52E0008B92E0008BD2E00081D2D0008C52E0008C92E0008CD2E0008D12E00081D
:2000C000D52E0008D92E0008DD2E0008E12E0008E52E0008E92E0008ED2E0008F12E000858
:2000E000F52E0008F92E0008FD2E0008FFFFFFFFFFFFFFFFFFFFFFFFFFFFFFFFFFFFFFFF87
:20010000153CA54700000021772A000810B5DFF8204700B92EE0DFF81C070068006880477D
:2001200020680A3010BD80B5DFF80407DFF8082700685278C1788A420DD38278002A04BF15
:200140008288002A07D18172DFF8E806006840688047002002BD022002BD10B5DFF8D04692
:2001600000B907E0DFF8CC0600688068804720680C3010BD206801210182002010BD10B5AF
:20018000DFF8AC46DFF8B42620681268C17840799269904721688A7A9AB1002804BF0879DB
:2001A00000280ED1887860B9DFF888060068C068804720684179C1722068C1780173002099
:2001C00010BD022010BD10B5DFF86416096818B902200882002010BD0020DFF86446208031
:2001E0007F220878104215D1487A810603D5002141F0020121704006217854BF01F0FE00BE
:2002000041F001002070DFF82C06006800698047204610BD00F07F02012AF9D000F07F0074
:200220000228D7D14879DFF81C2600F00F01000652F8210007D500F030001028E3D1002099
:2002400040F00100DEE700F44050B0F5805FDAD1002040F00100D5E770B5DFF8D4050068AB
:20026000017811F07F0104D1417A01F0DF01417251E0022901BF41880029017900294CD1A2
:200280004179DFF8C04521F080050A0654F825204CBF02F0300202F44052DFF89C351B789F
:2002A0009D423AD2002A1CBF807A002835D0080654F825000BD500F03000102826D128460B
:2002C00000F045FB3021284600F0F6FA1EE000F44050B0F5805F19D14BF68F7665B9DFF824
:2002E000680590F82C10002000F05EFB2068304080F44050206009E0284600F018FB54F842
:200300002500304080F4405044F82500DFF82405006840698047002070BD022070BD38B582
:20032000DFF80C05DFF81C150268537923F080001C0651F820404CBF04F0300404F440547A
:20034000DFF8F4542D78A84206D2558825B9002C1CBF927A002A01D1022032BD1A0651F8D3
:20036000202005D548F6BF731A4082F0100204E04BF68F731A4082F4805241F82020DFF8FC
:20038000B404006880698047002032BDDFF8A0241268538A20B98888C01A10820020704760
:2003A0000868181870472DE9F041DFF88444206800F110052988002904BF007A042802D15C
:2003C0000726102025E0AF888F4205D30426B94288BF39460F4600E00226A9683846884735
:2003E0008046002000F0D1FA01463A46404600F02AFB3946002000F0D0FA2888DFF84C14BA
:20040000C01B28804FF440526888381868800A803020DFF83C14088020680672BDE8F081BD
:2004200038B5DFF80C442068457801787F22114241D1092D02D1FFF776FE50E0052D1BD123
:20044000C178802959DA8178002901BF81880029807A002851D1DFF8FC13DFF8FC230968E2
:2004600089B2002342F811300620DFF8E41330220A802168087231BD032D11D1C17801296D
:2004800004BF818800292CD1417A8A0629D541F020014172DFF89C030068C0698047DAE78D
:2004A000012D04BFC17801291BD18188C9B9407A80060DD415E001F07F00012804D10B2DB5
:2004C0000FD1FFF75CFE0AE002280AD1012D02D1FFF7C2FE03E0032D03D1FFF720FF002822
:2004E000B9D0DFF858130968496928468847032808BF0920BDD00028ADD00820B9E710B5F7
:20050000CB4C20684178062916D101787F22114231D18078012803D1C8480068C16975E012
:20052000022803D1C5480068016A6FE0032822D1C2480068416A69E0002944D141880029DA
:2005400004BFC188022916D10179A1B901787F22114204BF8288002A33D001F07F02012AA5
:2005600015D1B64A4079126892690021904710B92068807A28BBB149206809684078096924
:20058000884703284BD120680921017210BD01F07F010229EFD14079AA4B00F00F0100F059
:2005A0007002000653F821004CBF00F0300000F44050A14B1B789942DDD2002ADBD10028A1
:2005C000D9D0A64922E0082905D100787F210842D1D1A3491AE00A2902BF017801F07F01B2
:2005E0000129C8D1817A0029C5D04188002901BF01790029C1880129BDD1904A407912681C
:200600009269002190470028B5D196490800B2D020680022428281610020884700202168E8
:200620000A8A4FF6FF739A4208BF092004D0022818BF002A02D10820087210BD08780006DC
:200640000BD5C888904238BF08827C48006890F82C008882BDE81040A5E6032008724FF4CD
:2006600040517A48018010BD38B57A487E4900686F4C80B231F8100021680A7A400000F197
:20068000804000F5C040092A14D010F8012B0A70216810F8012B4A70851C35F8040B00F09C
:2006A000CDF921684880288800F0C8F921688880A888C8800121206801722068C08810B903
:2006C000FFF7AEFE01E0FFF71AFFBDE831407DE010B5574C2068017A022918BF042904D1A6
:2006E000FFF761FE2068007A14E0062911D14178052902BF01787F22114206D1C07800F08A
:200700007FF84C480068006A80474C48006880688047082021680872BDE8104056E0F8B587
:20072000434C2068017A032918BF052943D100F11005A9682E88080018BF002E14D0A888F4
:20074000864288BF06463046884707462888801B2880688830186880002000F017F9014632
:200760003246384600F085F9288850B137484FF4405101800020002100F00FF9344830218A
:2007800001802888AA882168904228BF032001D210B1052008720BE00620087200222D483C
:2007A0002D49006880B241F810203021284801802068007A06E0072903D120480068C0689A
:2007C0008047082021680872BDE8F14080B51E4890F82C10002000F0E7F815480068017AC3
:2007E000082906D119494FF480520A80102218490A80007A092801D1012002BD002002BD97
:20080000F0B40D490F4B0978002259B11C4648F68F7526682E40D7B23E43521C44F8046B14
:200820008A42F6D340F08000D864F0BC70470000841400208C140020480300208814002035
:20084000C4140020005C004034020020C8140020CA140020505C004004600040C701000854
:200860000D0100085B01000808600040704710B450F8041B81B102681218001D50F8043B0A
:20088000DC0744BFA9F10104E31852F8044B43F8044B091FF9D1EBE710BC70474FF6F871C0
:2008A0000840DFF8801108607047DFF87C2152F8203048F68F1C5AE0DFF86C2152F820303A
:2008C00048F6BF7C0CEA03035FEAC16C48BF83F01003890648BF83F0200310E0DFF8482144
:2008E00052F820304BF68F7C0CEA03035FEAC14C48BF83F48053890448BF83F4005342F8D7
:2009000020307047DFF8201151F820204BF68F731A4082F4405207E0DFF80C1151F8202036
:2009200048F68F63FFE71A4041F820207047DFF8F81051F82020520408D551F8202048F6B5
:200940008F731A4042F4804241F820207047DFF8D81051F82020520608D551F8202048F6CF
:200960008F731A4042F0400241F8202070470CEA0303194342F82010704738E0294A1268F9
:2009800092B202EBC000294A37E03BE02549096889B201EBC00025493AE0224A126892B249
:2009A00002EBC000224A2AE01E4A126892B202EBC000204A02EB40003F2909DB4A091F23C9
:2009C000194208BF521E1204910941F4004105E04A08C90748BF521C12049109016070471B
:2009E0001049096889B201EBC000124914E00D4A126892B202EBC0000F4A4908490042F808
:200A0000101070470749096889B201EBC0000A4951F8100080B2704751F810008005800D57
:200A200070470000505C0040005C004008600040046000400C600040006000400106090CC3
:200A400041EA10207047490001F18041521C01F5C04152100AD1704710F8013B10F801CB17
:200A600043EA0C2321F8023B891C521E002AF3D17047490001F18041521C01F5C041521047
:200A800005D1704751F8043B20F8023B521E002AF8D17047F0B5046842688368C068DFF82D
:200AA0000C56DFF80C760C604A608B60C8600A26C0F3072EC0F3074C1EF807E01CF807C05C
:200AC0004FEA0E4E4EEA0C6C5FFA80FE1EF807E04CEA0E2C4FEA106E1EF807E04EEA0C0C89
:200AE00055F804EB8EEA0C0C8CEA0404624041F8104F53404A6058408B60C860761ED7D14E
:200B0000F0BDC7E72DE9F04F036852F8A04F84EA030E4368546884EA030883689468C06813
:200B200084EA0309D368DFF88C4583EA000CA2F1200009221B23CCF307464FEA1E65365D68
:200B40002D5D360446EA0565C9F30726CEF30747365D3F5D45EA06255FFA88F63F04365D09
:200B60003543066975404FEA1866C8F3074A365D1AF804A047EA0666CCF307274FEA0A4AB6
:200B80003F5D46EA07265FFA89F7C8F307283F5D18F804803E4347697E404FEA1967C9F305
:200BA00007493F5D19F804904AEA0767CEF3072A5FFA8EFE1AF804A01EF804E047EA0A2719
:200BC0005FFA8CFA4FEA1C6C4FEA09491CF804C01AF804A049EA0C6C4CEA082C4EEA0C0CF7
:200BE000D0F81CE04FEAD5188EEA0C0C08F0013805F07F3E03FB08F888EA4E0E4AEA07078A
:200C00004FEADE19D0F818A009F001390EF07F3803FB09F98AEA070789EA48084FEAD81ACC
:200C20000AF0013A08F07F3903FB0AFA8AEA490989EA050585EA0E0B88EA0E0E89EA0E0EE5
:200C400085EA080A8EEA3B6E8EEA3A4E4FEAD6188EEA352E08F0013806F07F3503FB08F817
:200C600088EA45054FEAD51909F0013905F07F3803FB09F989EA48084FEAD81A0AF0013A8F
:200C800008F07F3903FB0AFA8AEA490989EA060686EA050B88EA050589EA050586EA080A62
:200CA00085EA3B6585EA3A4585EA3628FE0906F0013607F07F355E4386EA45054FEAD51909
:200CC00009F0013905F07F3603FB09F989EA46064FEAD61A0AF0013A06F07F3903FB0AFA6A
:200CE0008AEA490989EA070787EA050B754089EA050587EA060A85EA3B6585EA3A454FEA43
:200D0000DC1685EA372906F001360CF07F355E4386EA4505EF0907F0013705F07F365F4367
:200D200087EA46064FEAD61A0AF0013A06F07F3703FB0AFA8AEA470787EA0C0C8CEA050B19
:200D400075407D408CEA060A85EA3B6585EA3A45103885EA3C2C521E7FF4EDAECEF30743F6
:200D60004FEA18621B5D125D1B0443EA0262CCF30723C8F307451B5D2D5D42EA03225FFA8D
:200D800089F32D041B5D1A4343695A404FEA1963C9F307461B5D365D45EA0363CEF3072540
:200DA00036042D5D43EA05235FFA8CF5CCF307472D5D3F5D2B4385696B404FEA1C653F0409
:200DC0002D5D46EA0565C8F30726365D45EA06255FFA8EF6365D3543C669006975404FEAAC
:200DE0001E66365D47EA0666C9F307273F5D46EA07265FFA88F73C5D3443604008604A60C2
:200E00008B60CD60BDE8F08F2DE9F0470368146855689668A64F634044686C408568C068A2
:200E20007540D66886EA000902F1100009221B26C4F3074E4FEA136C1EF807E01CF807C03B
:200E40004FEA0E4E4EEA0C6CC5F3072EC5F307481EF807E018F807804CEA0E2C5FFA89FE75
:200E60004FEA08481EF807E04EEA0C0C4FEA146EC9F3074A1EF807E01AF807A048EA0E6E70
:200E8000C9F307284FEA0A4A18F807804EEA082E5FFA83F84FEA196918F8078019F8079007
:200EA00048EA0E0E4FEA156818F807804AEA0868C3F3072AC3F307431AF807A0DB5D48EAE9
:200EC0000A285FFA84FAC4F307241B04E45D1AF807A043EA096343EA0423ECB24AEA08083F
:200EE000E45D44EA03094FEADC1303F0013373430CF07F34CCF3066A83EA44058CEA4A6AB4
:200F000083EA0A0A8CEA440463401B0243EA1A636B4083EA3C4350F8044B83EA3C2363408B
:200F20004FEADE1404F0013474430EF07F35CEF3066A84EA450C8EEA4A6A84EA0A0A8EEADE
:200F400045056C40240244EA1A6484EA0C0484EA3E4450F8045B84EA3E246C404FEAD81512
:200F600005F00135754308F07F3CC8F3066A85EA4C0E88EA4A6A85EA0A0A88EA4C0C85EA05
:200F80000C052D0245EA1A6585EA0E0585EA384550F804CB85EA38258CEA05054FEAD91C64
:200FA0000CF0013C06FB0CFC09F07F3EC9F3066A8CEA4E0889EA4A6A8CEA0A0A89EA4E0EC1
:200FC0008CEA0E0C4FEA0C2C4CEA1A6C8CEA080C8CEA394C50F804EB8CEA392C8EEA0C0930
:200FE000521E7FF425AFC5F30746220EF65DD25D360446EA0262C9F30726C9F3074CF65D6A
:201000001CF807C042EA0622DEB24FEA0C4CF65D3243466872402E0EC3F3074EF65D1EF8A8
:2010200007E04CEA0666C3F3072C4FEA0E4E1CF807C046EA0C265FFA84FC1B0E1CF807C08F
:20104000DB5D4CEA0606D0F808C08CEA06064FEA196C1CF807C04EEA0C6CC4F3072EC4F318
:201060000744E45D1EF807E0240444EA03634CEA0E2CC5F307245FFA85FEE45D1EF807E0BE
:2010800043EA04234EEA0C0C5FFA89F4D0F80CE0E45D00682343584008604A608EEA0C0CD9
:2010A0008E60C1F80CC0BDE8F08700006402002000000020000100202DE9F04F93B080467C
:2010C00002AE002014461D460291B0610DF1300A0AE014F8011B0298C0470290002800F04A
:2010E000B481B069401CB061207808B9B069AEE12528EED10020F0603061706101E040F045
:20110000010014F8011F2029F9D023290DD02B2904D02D2906D030290AD00CE040F00200C2
:2011200080B2EEE740F00400FAE740F00800F7E740F01000F4E72A290DD129680A1D2A60EF
:2011400009683162002904D5494240F00400316280B2641C13E0002131620BE0316A6FF0F9
:201160000043994205D001EB810302EB430130393162641C2278A2F130010A29EED3217874
:201180002E2903D04FF0FF31F1611EE014F8011F2A2906D129680A1D2A60641C0968F1618B
:2011A00013E00021F1610BE0F1696FF00043994205D001EB810302EB43013039F161641C56
:2011C0002278A2F130010A29EED3B0840FF28030217800F0C1F908B114F8010B8DF82E0011
:2011E0009DF82E00682804BF2078682803D162208DF82E00641C0CA8B0602278252A13D098
:20120000582A34D0632A00F0A580642A18BF692A68D06F2A2BD0702A20D0732A09D0752A43
:2012200018BF782A23D09FE0F068411CF160252197E02868011D29600068F2697060002A0C
:2012400002D500F0A5F907E0002100F0C1F900281ABF7168401AF069306191E02868011D3A
:2012600029607821006801900CA870606EE09DF82E306C2B08BF286811D0712B08BF2868CC
:2012800002D028686A2B0AD1C01D20F007002860014601F108002860D1E9000102E0011D7C
:2012A000296000680190682B02D101A8008803E0622B02D101A80078019096F82400000767
:2012C0003FD5019800283CD042F02000782838D1F068302100F80A10401C411CF16000F875
:2012E0000A202EE09DF82E00622802D0682806D00BE02868011D296090F9000009E028680D
:20130000011D2960B0F9000003E02868011D296000680190002804D5F068411CF1602D2115
:201320000DE0B08C810704D5F068411CF1602B2105E0C00705D5F068411CF160202100F80C
:201340000A10F0680CA940187060114601A800F081F815E0F068411CF16029680A1D2A6098
:20136000096800F80A100BE0F068411CF160252100F80A1022B1F068411CF16000F80A20A6
:20138000306AF168401A7169401A3169A0EB010996F82400641C40070FD420208DF800007C
:2013A000002708E0012300AA01A9404600F0B9F800284AD17F1C4F45F4DBF7680DF1300BA6
:2013C0000AE01BF8011B0298C047029000283CD0B069401CB0617F1E002FF2D130208DF8A3
:2013E00000004FF0000B776908E0012300AA01A9404600F096F840BB0BF1010BBB45F4DB8D
:201400003769D6F804B009E01BF8011B0298C0470290D0B1B069401CB0617F1E002FF3D1C8
:2014200096F8240040077FF55FAE20208DF8000000E07F1C4F45BFF657AE012300AA01A92C
:20144000404600F06EF80028F3D04FF0FF3013B0BDE8F08FF0B4C2686F2908BF082405D042
:2014600041F02003782B14BF0A241024066818233746642918BF692902D1002E48BF7F425B
:201480005FB9056A4DB9082C27D190F82810090723D530211723D1751FE0B7FBF4F604FB60
:2014A000167730375D1EFFB22B463A2FA4BFA1F1510C6744AF54370003D085689E18B5428E
:2014C000EBD3082C09D190F82810090705D5995C302902D05B1E30219954C3F11801416150
:2014E0009A188260026A914208DA511A81614FF6EF72018D11400185F0BC7047002A0ED56F
:2015000090F8282002F01402102A08D1426A0369D21A8369D21A531A012BA8BF8361F0BC74
:201520007047F8B504460D4616461F46002004E0E869401CE8617F1E002047B116F8011B10
:201540006868A04768600028F2D14FF0FF30F2BD686C747A4C0000000278C9B28A421AB16A
:201560001CBF10F8012FF9E718BF0020704750F8041B61B150F8042BD30744BFA9F101035F
:201580009A18002342F8043B091FFAD1EFE7704700F10103810704D010F8011B89B1810746
:2015A000FAD10268B2F10131914311F0803F04BF50F8042FF6E710F8011B11B110F8011B68
:2015C000FBE7C01A70470268531C036011707047C9B2830706D0521E22D310F8013B9942C5
:2015E000F7D11FE0083A13D302F1040241EA012141EA014150F8043B121F21BF4B40A3F192
:20160000013C2CEA030C1CF0803FF3D0C9B2001F083210F8013B521E28BF91EA030FF8D80E
:2016200018BF0120401E704780B500F0C1F9CA49087001BD2DE9F84304460D46A04615F09C
:20164000030F0BD04FF6FC702840001D854205D2411BC248FF22281800F06EFA0026C04F75
:201660000DB97E8213E0DFF8F49259F8041B204600F0BDF9241D361DAE42F6D30020788271
:20168000788A18F8011B081878826D1EF8D1788A398A88420CBF00200320F872BDE8F1838E
:2016A000AF48022181720021C172AE480170704730B5AD484178491E8BB0092900F243818E
:2016C000DFE811F037004101A700F80013012B011A000A001F0028001422A44905A800F0BF
:2016E0006FFAA34800788DF818001422A02105A8FFF7A9F9142104E19948072101730BB0F3
:2017000030BD81784129A8BF4021924800F013FB0BB030BD01A8002100220B460C461EC0C4
:201720004FF004500190102101A800F004FB0BB030BD8B4CA17A022918BF05295FD18279C7
:20174000002A04BFC17900290BD1012060620620A072E07A207000206070608006202071D1
:20176000F4E084490B78A3B9C378857845EA03232362C37942EA0322A2614279007940EAE9
:2017800002202082A069E0610020E0810120087026E0206A784D98B9002100F029FB2878A6
:2017A000E97820730904287941EA0060A97840EA01206978084360610320A0722071C5E038
:2017C000E089A2690019412A11D340222946283000F0E6F9E0894030E081A0694038A06179
:2017E0004FF440510220FFF779F80BB030BD2946283000F0D5F90320A0722071A6E00A20E9
:20180000A0720F2020700020607060800A2020719CE0534CA07A032814D0042802D00628FC
:2018200041D03AE0607BC1073DD50521A172217100F0FE000021617061806073E17A21707D
:2018400000210DE0607BC1070ED500F0FE0005216073A17221710021E07A617061802070AB
:20186000012000F0C5FA1EE00421A1722171217B412916BF512950210021009140F0020026
:201880009DF80010617060739DF80110A1709DF80210E170E17A217005E0207100206070FE
:2018A0006080E07A20700622A0212046FFF7CBF8062126E02A4CA07A0A2808D10220A0725A
:2018C0000020206002202071002060710BE00A20A0720E2020700020607060800A20207154
:2018E000002060710E20E07230E01D4CA07A60720222E07A2072A02104F10800FFF7A3F8B3
:2019000002210120FFF749F830210120FEF7D4FF1848032101700BB030BD114CA07A801E60
:20192000012884BFC01E012801D9001F0ED10220A072002020600220207100206071206262
:20194000A061E07202E0022000F01BFA00F00EFA0BB030BD303C0008D6140020740B00206E
:201960004C0300209D140020A0140020E0F7FF1F203C00089C14002028140020DFF898114E
:201980000A6802F03802FFE70A600A68104308607047DFF884110A6822F01002F4E7DFF8C1
:2019A0007C01DFF87C110160DFF878110160704770B5054640F6FF76304600F078F8042850
:2019C00014D1DFF86441206840F0020020606560206840F040002060304600F068F8012840
:2019E00004D0216841F6FD721140216070BD70B50E46054616F1010F01D1042070BD0F20B8
:201A000000F055F8042816D1474C206840F0010020602E800F2000F04AF8042804D1300C5E
:201A200068800F2000F043F8012804D0216841F6FE721140216070BD70B5044640F6FF751F
:201A4000284600F034F8042830D1384E3448306034483060B06840F02000B060B06840F071
:201A60004000B060284600F022F8042817D1B06841F6DF710840B060002CB06840F010000F
:201A8000B0602B4814BF0021A5210180284600F00EF801280AD0B16841F6EF7204E0012863
:201AA00004D0B16841F6DF721140B16070BD18B4204A13680421DB0748BF012108D41368EA
:201AC0005B0748BF022103D41368DB0648BF0321FF2304E01468E40648BF0321401E0129FD
:201AE00015D1A8B100210091009302E00099491E009100990029F9D104211468E40748BFD0
:201B00000121EBD414686407E4D50221E6E700B90521084612BC70470020024004200240DA
:201B200023016745AB89EFCD102002400820024000F8FF1F0C20024062F30F2262F31F4249
:201B4000401810F0030308D0C91A1FD3DB0748BF00F8012D28BF20F8022D130030B41446EC
:201B60001546103928BF20E93C00FAD8490728BF20E90C0048BF40F8042D890028BF20F87F
:201B8000022D48BF00F8012D30BC7047C91818BF00F8012DCB0728BF00F8012D70470000D2
:201BA00062B38B0708D0521E11F8013B00F8013B00F024808B07F6D1830740F0208000BFB7
:201BC000103A07D330B4B1E83810103AA0E83810F9D230BC530724BFB1E80810A0E80810BD
:201BE00044BF51F8043B40F8043BD20724BF31F8022B20F8022B44BF0B7803707047083A9A
:201C000007D3B1E80810083A40F8043B40F804CBF7D25307E4E7000000B55048017840780D
:201C200083B08DF8001000A948704D48027A8DF80220427ACA700622817AC07A8DF80410D7
:201C40008DF80500A02100A8FEF7FDFE06210120FEF7A3FE30210120FEF72EFE4148032183
:201C6000017003B000BD10B53E4C607882B000F50070ADF800000222A02100A8FEF7E3FEBD
:201C80000320207002210120FEF787FE30210120FEF712FE13BD33480178891E03D0491EB7
:201CA000012905D970470079F32802D1FFF700BD60E0704710B50220FEF792FE0446224636
:201CC000E0212948FEF7D5FE2648017811B1012904D007E02046BDE8104005E00079F32868
:201CE00001D119E01CE010BD10B51E4C20B11E490246201DFFF754FF2079F12804D0F3287A
:201D000005D0F52804D006E0BDE8104084E703E0BDE81040A7E703E0BDE81040FFF7C8BCFF
:201D200010210120FEF7C8FDBDE810404FF480510220FEF7D3BD10B50C462246A021FEF7B2
:201D400082FE21460120FEF728FE30210120FEF7B3FD04480321017010BD0000FE3F000856
:201D6000A82C00089C14002028140020004801E09C1400200021017002204FF44051FEF7E5
:201D8000ADBD80B518B1022807D00AD301BDBDE8044010210120FEF78FBD10210120FEF77C
:201DA0008BFDBDE80440C1E700B585B000F096F8454802210186018801F09F010180018847
:201DC00001806020ADF800000220ADF808000120ADF8020000A800F08EF8012000F0C6F8D9
:201DE000012000F0C0F8012000F0AAF805B000BD70B5364E0446307882B00D46844218D027
:201E00000021042000F0A0F8002000F095F8062C40D8DFE804F004121427181A2F002C482D
:201E2000016821F0F0010091009941F04001016030E07068A842EAD173BD502000E04020CD
:201E400000F08CF826E0502000E0402000F086F82048858248F6A04101820420012100F0A3
:201E600073F817E01B4864218182818A49080184642105E017488582690801844FF6FF71B9
:201E800001820188C9B20091009941F4D041009100990180012110480160307800281CBF1A
:201EA0000428052809D144B10948016821F0F0010091009941F0B001016034707560012037
:201EC000BDE8764000F038B8002C0140B014002004080140182C01408082254280B50121E4
:201EE0004FF4006000F0EDF8BDE8044000214FF4006000F0E6B8DFF88C10DFF88C300A8897
:201F00004FF0000CC3F800C0D2B2B0F800C042EA0C220A8042881A6082889A6002895A609E
:201F20004289DA608389DFF86420FFE71360C3895360C08808847047DFF8541008607047F8
:201F4000DFF8501008607047DFF84C20012911880CBF084321EA00001080704709490A88D9
:201F600040F67F7308E00D49086070470C49086070470A884FF2FF331A4042EA0020088035
:201F800070470000182C014010842542A880254200802542BC8825420C2C01401C8025426D
:201FA0002C8325425848594A0021C16001611421416100218161C161016841F0010101602B
:201FC000416811404160524A016811400160016821F480210160416821F4FE0141600021B0
:201FE0008160704748490A6822F480320A60B0F5803F0A6822F480220A6003D0B0F5802FF5
:020000040800F2
:2020000004D07047086840F4803002E0086840F4A020086070473F483B490A68520C02F0AF
:20202000010202704268521C4260027812B94268FF2AF2D10868800301D5012070470020D5
:202040007047354A136823F47C1318430843106070473249086070472F490A68920840EA14
:202060008200086070472C48006800F00C00704729490A6822F0F00203E027490A6822F46D
:20208000E06210430860704723490A6822F4605242EAC00008607047214908607047214AE7
:2020A0000029116814BF084321EA0000106070471D4A0029116814BF084321EA000010608C
:2020C00070471A4A0029116814BF084321EA00001060704716490870704741090A4A01299D
:2020E00008BF116803D002290CBF116A516A00F01F0021FA00F000F0010070470D48016821
:2021000041F0807101607047001002400000FFF8FFFFF6FEB8140020041002406000424224
:20212000D8004242181002401C1002400C100240071002402410024000B59248816843681B
:20214000026889B001A800910FF2742100F040F98D4901A8062210F8013B01F8023B521E52
:2021600010F8013B01F8023B10F8013B01F8023B10F8013B01F8023BEDD109B000BD8348F2
:202180000068807A00B9704780B50120FEF7DFFB0220FEF7CCFB7E480021017001BD000054
:2021A00038B5FFF7C9FF794C20680021817200F029F900217748784A784D41604FF4044171
:2021C0001180016076492068C979417208E02878012804D14FF4FA710420FFF709FE00BFBD
:2021E0002068807A0028F2D005216E48017031BD10B56D48002181720020FEF74FFB4FF408
:2022000000710020FEF751FB20210020FEF754FB20210020FEF7B2FB644C94F82C100020AC
:20222000FEF7C2FB60210020FEF7A7FB0020FEF773FB0020FEF766FB00210120FEF735FB54
:20224000A0210120FEF799FB20210120FEF734FB00210120FEF742FB00210220FEF725FBC1
:20226000E0210220FEF78AFB94F82C100220FEF79BFB4FF440510220FEF730FB00210220F3
:20228000FEF71AFB00210320FEF70FFB4FF480710320FEF772FB20210320FEF70DFB0021B6
:2022A0000320FEF71BFB94F82C100020FEF77CFB0020FEF727FB0020FEF7A2FA3448002117
:2022C000017010BD7047704780B5304909680A7802F07F02212A08BFFE280BD14888002832
:2022E00001BF88880028C888012803D10FF28100020001D1022002BD88610020488200F09F
:2023000037F8002002BD80B5204909680A7802F07F02212A08BFFF2815D14888002804BFD1
:20232000888800280FD1C88868B90120FEF70FFB0220FEF7FCFA0320FEF709FB144800214E
:202340000170002002BD022002BD00290CBF0028022070471649FEF719B81649FEF716B810
:202360000A49154A0968C97802EBC101FEF70EB828B90648006801210182002070470F4825
:2023800070470000E8F7FF1F02020020841400209C140020405C0040D4140020CC140020F9
:2023A0008C020020D814002068140020340200203803002040030020B4020020D0140020D9
:2023C000253038582530385825303858000000000CB41CB5044604A801900A46009401ABA6
:2023E00000A9074878441830FEF766FE009900220A7000285CBF0098001B16BC5DF80CFB2F
:20240000C7F1FFFF80B5012000F0F1F80C480D4A012101600021016041604FF4044111806D
:202420000160002002BD10B5054C012020600020606000F0DCF803202060002010BD000071
:20244000405C0040D414002010B582B000F01BF86C4C4FF40041204600F080F94FF4004010
:20246000ADF8000000A914208DF8030001208DF80200204600F012F900F0CEF8FFF794FC0D
:2024800000F07CF813BD80B5FFF78CFD4FF48030FFF7A8FDFFF7BFFD012828D11020FFF7CC
:2024A00078FA0220FFF76AFA0020FFF7E1FD4FF48060FFF7E9FD4FF48060FFF7DEFD002027
:2024C000FFF7EAFD4FF4E0114FF48030FFF7B9FD0120FFF7BEFD3920FFF7FFFD0028FAD03D
:2024E0000220FFF7B9FDFFF7BEFD0828FBD1FFF756FA01214FF40000FFF7DAFD012140F691
:202500000C20FFF7CCFD0620FFF7E4FD4FF48070ADF8000000A918208DF8030002208DF8EB
:202520000200384800F0BAF801BD10B5364C00224FF40041204600F015F9322000F034F9F9
:202540002046BDE810400122012100F00BB92F480068000701D400207047012070472C4948
:202560000A784FF0FF30502A07D128480068000701D4487870476FF00100704780B5002181
:202580004FF0006000F065F92248002101604FF4A06000F019F914208DF8000001208DF8BE
:2025A000010000208DF8020001208DF8030000A800F00FF913208DF8000000208DF80100CC
:2025C0008DF8020001208DF8030000A800F001F91B208DF8000000208DF801008DF802004C
:2025E00001208DF8030000A800F0F3F801BD054A00284FF40041104618BF00F0AFB800F082
:20260000AFB8000000080140000C0140080C0140303C0008445C004010B582B001210120DA
:20262000FFF73DFD0121094800F0A1F808480178462902D14078C00705D401224FF4004164
:20264000044800F08FF8034C06E000BF00023000443C0008000C014000220121204600F022
:2026600081F848F20100ADF8000000A914208DF8030001208DF80200204600F00FF808206F
:20268000ADF8000000A948208DF8030001208DF80200204600F002F813BD00002DE9F041ED
:2026A000CC78002204F00F03E40644BF8C7823430C88E5B22DB3D0F800C001250F2605FA6A
:2026C00002F7BE460EEA0408F04515D14FEA820E06FA0EF82CEA080C03FA0EFE4EEA0C0C8C
:2026E00091F803E0BEF1280F08BF476191F803E0BEF1480F08BF0761521C082ADFD3C0F86E
:2027000000C0FF2C28DDD0F804C0002201250F2602F1080705FA07F7BE460EEA0408F04584
:2027200015D14FEA820E06FA0EF82CEA080C03FA0EFE4EEA0C0C91F803E0BEF1280F08BF48
:20274000476191F803E0BEF1480F08BF0761521C082ADDD3C0F804C0BDE8F0810161704735
:20276000416170470AB1016170474161704770B40C4A1368C0F3034485B2860248BF23F00B
:20278000E06306D4C60243BF032606FA04F4A343AB4321B180024CBF43EA05432B431360A8
:2027A00070BC70470400014041F27C51484381B0002102E000BF0099491C00910099814288
:2027C000F8D301B070470000274908432749086070472DE9F0410578C278012182B3234ABA
:2027E000204C126825F0030302F4E0621F5990F801C0C2F5E062120AC2F1040E0CFA0EFCF5
:2028000090F802E04FF00F0828FA02F202EA0E0205F0030542EA0C02ED00FF261201AE409C
:20282000AA40B74332403A431A510078104B420900F01F0001FA00F043F82200BDE8F081CF
:2028400005F01F03064A6809994042F82010BDE8F081084A114008430749086070470000EA
:2028600080E100E000E400E00000FA050CED00E000E100E080FFFF1F08ED00E02DE9F84FEB
:2028800040F68F7448F60F784BF68F7B654F664DDFF89891DFF898A121E0300404D52868DA
:2028A00020402860FDF73BFF286839880BEA0000CA0448BF80F48050890448BF80F400504B
:2028C000286048F6BF71286808407988CA0648BF80F01000890648BF80F020002860686C50
:2028E000AAF80000000460D547F6FF706864BAF8000010F00F0089F8000035D148F6BF71CF
:20290000286800F440503880286800F03000788028680BEA000080F400502860286808409A
:2029200080F020002860BAF80000C00628680FD408EA00002860FDF7CBFE4FF40841286841
:202940000842B1D0286820402860FDF78DFEABE786B2300605D5286808EA00002860FDF7DD
:20296000B7FE300599D5EDE755F820108EB231040AD555F82010214045F820102D4901EBAD
:20298000800050F8040C80473006A8D599F8000055F8201008EA010145F82010264901EB1B
:2029A000800050F8040C804799E7BDE8F18F2DE9F84FDFF88090DFF870B01C4F1C4CDFF8EE
:2029C0007CA040F68F7547F6FF7824E0CAF80080208800F00F0038705BF820108EB2310460
:2029E00009D55BF8201029404BF8201009EB800050F8040C804730060DD538785BF82010BC
:202A000048F60F7211404BF820100B4901EB800050F8040C8047DAF8000020800004D5D435
:202A2000BDE8F18FC8140020005C0040D7140020CE1400201C03002000030020445C00408A
:202A400080B50120C046C0467B20FFF746FB08B900F018F8FFF752FB3A483B49008880022E
:202A600050F8040C884202D100F082F801E000F009F8002002BD80B5FFF7E6FC00F082F8CF
:202A8000BDE801402DE9F8434FF4FA610420FFF7AFF9FFF7C8FC0A20FFF786FEFFF757FDF7
:202AA0000446012C08BFFFF740FDFFF758FD0546012D02DB0CB92548057200F077F8012DCE
:202AC00002DB0CB9FFF731FD00210120FFF790F9FEF7E6FD1E4C1F4DDFF87C80DFF87C900B
:202AE0001F4E204F1AE0D9F8002092B24146284600F078F8D9F800102068FEF79BFD3878D0
:202B000000F0FD0040F0010038703078072805D1FFF70BFDFFF787FC00F02AF83878800782
:202B2000F3D53078212808D0412802D05128DAD0E5E72068FEF778FDE1E751203070DEE74A
:202B400000000000E0F7FF1FD32700A58C0200206003002074030020740B002068030020EF
:202B6000580300205903002000400008000000085FF80C00016881F3088800F104000168E0
:202B80000847000010B5074979441831064C7C44163404E00A68081D511888470146A14292
:202BA000F8D110BD000200002002000010B50A4C0A49E461022020726162094820620068F6
:202BC00080474FF40070E0624FF48010A0624FF40060206310BD00BF68140020DC02002018
:202BE00034020020F0B5054617460F2085B00E46074200D107B942E0244C207800283BD142
:202C00002348244A01788DF8001041788DF801108178C0788DF802108DF8030001A9042060
:202C2000135C01F8013B401C135C01F8013B401C135C01F8013B401C135C01F8013B401C94
:202C40001028EDDB211D0FF25000FDF723FF221D00A900A8FEF7D8F8211D00A8FDF751FF50
:202C60000120207008E0221D31462846FDF74AFF103F10351036BFB23800F4D102E001200F
:202C800005B0F0BD002005B0F0BD000074130020E0F7FF1FE4F7FF1F4920616D206B65791B
:202CA0002C20776177617761120100020000004083044837000101020301000004030904C9
:202CC0002603530054004D006900630072006F0065006C0065006300740072006F006E00CE
:202CE00069006300730000001A03530054004D00330032002000530054004C0069006E0035
:202D00006B00000010035300540020004C0069006E006B00FFF74BBE00F020B80C4881B094
:202D200001884FF6FB72114001800A480168491C0160C9070848026822F0F002009200994C
:202D40004CBF41F0400141F0B001016001B07047102C0140C01400200408014038B50D484B
:202D60000D4C01680D4D618061882A881140490505D54FF6FF3101600948406880476088C4
:202D800029880840000403D5FFF778FD0120207031BD00BF445C0040CC140020D4140020AD
:202DA00034020020CBE7FFFF901100004C03002000000000BBDAFFFF4C03000044010000D6
:202DC000000000200000000000F00BF8002801D0FFF7D8FE0020C046C046FFF731FE00F0DA
:202DE00002F80120704700F001B800000746384600F002F8FBE7000080B5C046C046024A34
:202E000011001820ABBEFBE7260002000148804701480047492400081D2E0008C046C04682
:202E2000C046C046FFF7D0FFFEF735BFFEF742BFFFF7FEBFFFF7FEBFFFF7FEBFFFF7FEBF16
:202E4000FFF7FEBFFFF7FEBFFFF7FEBFFFF7FEBFFFF7FEBFFFF7FEBFFFF7FEBFFFF7FEBFDA
:202E6000FFF7FEBFFFF7FEBFFFF7FEBFFFF7FEBFFFF7FEBFFFF7FEBFFFF7FEBFFFF7FEBFBA
:202E8000FFF7FEBFFFF7FEBFFFF7FEBFFFF7FEBFFFF7FEBFFFF7FEBFFFF7FEBFFFF7FEBF9A
:202EA000FFF738BFFFF738BFFFF7FEBFFFF7FEBFFFF7FEBFFFF7FEBFFFF7FEBFFFF7FEBF06
:202EC000FFF72CBFFFF7FEBFFFF7FEBFFFF7FEBFFFF7FEBFFFF7FEBFFFF7FEBFFFF7FEBF2C
:202EE000FFF7FEBFFFF7FEBFFFF7FEBFFFF7FEBFFFF7FEBFFFF7FEBFFFF7FEBFFFF7FEBF3A
:202F0000637C777BF26B6FC53001672BFED7AB76CA82C97DFA5947F0ADD4A2AF9CA472C036
:202F2000B7FD9326363FF7CC34A5E5F171D8311504C723C31896059A071280E2EB27B275FC
:202F400009832C1A1B6E5AA0523BD6B329E32F8453D100ED20FCB15B6ACBBE394A4C58CF25
:202F6000D0EFAAFB434D338545F9027F503C9FA851A3408F929D38F5BCB6DA2110FFF3D2B3
:202F8000CD0C13EC5F974417C4A77E3D645D197360814FDC222A908846EEB814DE5E0BDB03
:202FA000E0323A0A4906245CC2D3AC629195E479E7C8376D8DD54EA96C56F4EA657AAE08E5
:202FC000BA78252E1CA6B4C6E8DD741F4BBD8B8A703EB5664803F60E613557B986C11D9EFB
:202FE000E1F8981169D98E949B1E87E9CE5528DF8CA1890DBFE6426841992D0FB054BB169B
:2030000052096AD53036A538BF40A39E81F3D7FB7CE339829B2FFF87348E4344C4DEE9CB44
:20302000547B9432A6C2233DEE4C950B42FAC34E082EA16628D924B2765BA2496D8BD1254E
:2030400072F8F66486689816D4A45CCC5D65B6926C704850FDEDB9DA5E154657A78D9D8410
:2030600090D8AB008CBCD30AF7E45805B8B34506D02C1E8FCA3F0F02C1AFBD0301138A6B2E
:203080003A9111414F67DCEA97F2CFCEF0B4E67396AC7422E7AD3585E2F937E81C75DF6E76
:2030A00047F11A711D29C5896FB7620EAA18BE1BFC563E4BC6D279209ADBC0FE78CD5AF4B6
:2030C0001FDDA8338807C731B11210592780EC5F60517FA919B54A0D2DE57A9F93C99CEF64
:2030E000A0E03B4DAE2AF5B0C8EBBB3C83539961172B047EBA77D626E169146355210C7D20
:203100003203300030003000300030003000300030003000300030003000300030003000AA
:203120003000300030003000300030003000300031000000A1210008F1210008C52200080B
:20314000C7220008C9220008072300084B230008552300085B230008612300080000000051
:20316000400000000000000100000002000000040000000800000010000000200000004090
:20318000000000800000001B000000360902270001010080320904000003FFFFFF0407055B
:2031A0008102400000070502024000000705830240000000BC2C000804000000C02C000843
:2031C00026000000E82C00081A0000000002002032000000042D0008100000006D08000879
:2031E0007F2100086D0800086D0800086D0800086D0800086D0800086D0800086D080008BC
:20320000292E00086D0800086D0800086D0800086D0800086D0800086D0800086D080008E4
:203220002D2E00086D0800086D0800086D0800086D0800086D080008A82C000812000000CC
:203240008C0200202700000004010000FFFFFFFFFFFFFFFFFFFFFFFFFFFFFFFFFFFFFFFFA8
:20326000FFFFFFFFFFFFFFFFFFFFFFFFFFFFFFFFFFFFFFFFFFFFFFFFFFFFFFFFFFFFFFFF6E
:20328000FFFFFFFFFFFFFFFFFFFFFFFFFFFFFFFFFFFFFFFFFFFFFFFFFFFFFFFFFFFFFFFF4E
:2032A000FFFFFFFFFFFFFFFFFFFFFFFFFFFFFFFFFFFFFFFFFFFFFFFFFFFFFFFFFFFFFFFF2E
:2032C000FFFFFFFFFFFFFFFFFFFFFFFFFFFFFFFFFFFFFFFFFFFFFFFFFFFFFFFFFFFFFFFF0E
:203C00005AF08D5B524510DB34982115FDA44399FFFFFFFFFFFFFFFFFFFFFFFFFFFFFFFF81
:203C200041FFFFFFFFFFFFFFFFFFFFFFFFFFFFFFFFFFFFFFFFFFFFFFFFFFFFFFFFFFFFFF62
:203C4000FFFFFFFFFFFFFFFFFFFFFFFFFFFFFFFFFFFFFFFFFFFFFFFFFFFFFFFFFFFFFFFF84
:203C6000FFFFFFFFFFFFFFFFFFFFFFFFFFFFFFFFFFFFFFFFFFFFFFFFFFFFFFFFFFFFFFFF64
:203C8000FFFFFFFFFFFFFFFFFFFFFFFFFFFFFFFFFFFFFFFFFFFFFFFFFFFFFFFFFFFFFFFF44
:203CA000FFFFFFFFFFFFFFFFFFFFFFFFFFFFFFFFFFFFFFFFFFFFFFFFFFFFFFFFFFFFFFFF24
:203CC000FFFFFFFFFFFFFFFFFFFFFFFFFFFFFFFFFFFFFFFFFFFFFFFFFFFFFFFFFFFFFFFF04
:203CE000FFFFFFFFFFFFFFFFFFFFFFFFFFFFFFFFFFFFFFFFFFFFFFFFFFFFFFFFFFFFFFFFE4
:203D0000FFFFFFFFFFFFFFFFFFFFFFFFFFFFFFFFFFFFFFFFFFFFFFFFFFFFFFFFFFFFFFFFC3
:203D2000FFFFFFFFFFFFFFFFFFFFFFFFFFFFFFFFFFFFFFFFFFFFFFFFFFFFFFFFFFFFFFFFA3
:203D4000FFFFFFFFFFFFFFFFFFFFFFFFFFFFFFFFFFFFFFFFFFFFFFFFFFFFFFFFFFFFFFFF83
:203D6000FFFFFFFFFFFFFFFFFFFFFFFFFFFFFFFFFFFFFFFFFFFFFFFFFFFFFFFFFFFFFFFF63
:203D8000FFFFFFFFFFFFFFFFFFFFFFFFFFFFFFFFFFFFFFFFFFFFFFFFFFFFFFFFFFFFFFFF43
:203DA000FFFFFFFFFFFFFFFFFFFFFFFFFFFFFFFFFFFFFFFFFFFFFFFFFFFFFFFFFFFFFFFF23
:203DC000FFFFFFFFFFFFFFFFFFFFFFFFFFFFFFFFFFFFFFFFFFFFFFFFFFFFFFFFFFFFFFFF03
:203DE000FFFFFFFFFFFFFFFFFFFFFFFFFFFFFFFFFFFFFFFFFFFFFFFFFFFFFFFFFFFFFFFFE3
:203E0000FFFFFFFFFFFFFFFFFFFFFFFFFFFFFFFFFFFFFFFFFFFFFFFFFFFFFFFFFFFFFFFFC2
:203E2000FFFFFFFFFFFFFFFFFFFFFFFFFFFFFFFFFFFFFFFFFFFFFFFFFFFFFFFFFFFFFFFFA2
:203E4000FFFFFFFFFFFFFFFFFFFFFFFFFFFFFFFFFFFFFFFFFFFFFFFFFFFFFFFFFFFFFFFF82
:203E6000FFFFFFFFFFFFFFFFFFFFFFFFFFFFFFFFFFFFFFFFFFFFFFFFFFFFFFFFFFFFFFFF62
:203E8000FFFFFFFFFFFFFFFFFFFFFFFFFFFFFFFFFFFFFFFFFFFFFFFFFFFFFFFFFFFFFFFF42
:203EA000FFFFFFFFFFFFFFFFFFFFFFFFFFFFFFFFFFFFFFFFFFFFFFFFFFFFFFFFFFFFFFFF22
:203EC000FFFFFFFFFFFFFFFFFFFFFFFFFFFFFFFFFFFFFFFFFFFFFFFFFFFFFFFFFFFFFFFF02
:203EE000FFFFFFFFFFFFFFFFFFFFFFFFFFFFFFFFFFFFFFFFFFFFFFFFFFFFFFFFFFFFFFFFE2
:203F0000FFFFFFFFFFFFFFFFFFFFFFFFFFFFFFFFFFFFFFFFFFFFFFFFFFFFFFFFFFFFFFFFC1
:203F2000FFFFFFFFFFFFFFFFFFFFFFFFFFFFFFFFFFFFFFFFFFFFFFFFFFFFFFFFFFFFFFFFA1
:203F4000FFFFFFFFFFFFFFFFFFFFFFFFFFFFFFFFFFFFFFFFFFFFFFFFFFFFFFFFFFFFFFFF81
:203F6000FFFFFFFFFFFFFFFFFFFFFFFFFFFFFFFFFFFFFFFFFFFFFFFFFFFFFFFFFFFFFFFF61
:203F8000FFFFFFFFFFFFFFFFFFFFFFFFFFFFFFFFFFFFFFFFFFFFFFFFFFFFFFFFFFFFFFFF41
:203FA000FFFFFFFFFFFFFFFFFFFFFFFFFFFFFFFFFFFFFFFFFFFFFFFFFFFFFFFFFFFFFFFF21
:203FC000FFFFFFFFFFFFFFFFFFFFFFFFFFFFFFFFFFFFFFFFFFFFFFFFFFFFFFFFFFFFFFFF01
:203FE000FFFFFFFFFFFFFFFFFFFFFFFFFFFFFFFFFFFFFFFFFFFFFFFFFFFFFFFFFFFF288136
:020000040800F2
:20400000B83B0020F1BC000819BD00081DBD000821BD000825BD000829BD0008000000005A
:204020000000000000000000000000002DBD000831BD00080000000035BD000851BA00088B
:2040400053BA000855BA000857BA000859BA00085BBA00085DBA00085FBA000861BA000880
:2040600063BA000865BA000867BA000869BA00086BBA000871BA000879BA000883BA0008C0
:2040800087BA00088BBA000839BD00088DBA000891BA00083DBD000841BD000895BA00088B
:2040A00097BA000899BA0008CFBA0008D1BA000825BB000827BB000829BB00082BBB00087C
:2040C0002DBB00082FBB000831BB000833BB000835BB000837BB000839BB00083BBB000828
:2040E0003DBB00083FBB000841BB000878B18378C2780FF208115B5C525C1B0443EA02622D
:20410000437800785B5C405C42EA032210437047F0B5DFF8687C0C4639798026012983B057
:20412000154606D1214602F01FFF00F05FF9064619E0002818BF012802D103F07BF906469B
:204140000FF2B80000EB8410802E90F82000387209D100A907F1080003F0DDF9064600A8E7
:20416000FFF7C4FF2860304603B0F0BD10B5FFF7CFFF0446802C18BF00F0FBF8204610BDBC
:2041800030B50D46DFF8F41B097903468020012983B0144607D12946184602F004FF00F055
:2041A00025F903B030BD13B1012B02D004E0002000E0012003F03EF90FF24001AA01E3B2CE
:2041C000525C8DF8002000AA5B5C537023041B0E5B5C8DF8023023021B0E5B5C8DF80330ED
:2041E000230E595C117100218DF80510802804BF00A803F083F903B030BD0000008040C0FA
:2042000020A060E0109050D030B070F0088848C828A868E8189858D838B878F8048444C40E
:2042200024A464E4149454D434B474F40C8C4CCC2CAC6CEC1C9C5CDC3CBC7CFC028242C286
:2042400022A262E2129252D232B272F20A8A4ACA2AAA6AEA1A9A5ADA3ABA7AFA068646C68E
:2042600026A666E6169656D636B676F60E8E4ECE2EAE6EEE1E9E5EDE3EBE7EFE018141C112
:2042800021A161E1119151D131B171F1098949C929A969E9199959D939B979F9058545C56E
:2042A00025A565E5159555D535B575F50D8D4DCD2DAD6DED1D9D5DDD3DBD7DFD038343C3E6
:2042C00023A363E3139353D333B373F30B8B4BCB2BAB6BEB1B9B5BDB3BBB7BFB078747C7EE
:2042E00027A767E7179757D737B777F70F8F4FCF2FAF6FEF1F9F5FDF3FBF7FFF10B5FFF73F
:204300003FFF0446802C18BF00F033F8204610BD10B582B004460020009000AA0121FFF791
:2043200025FF802802BFDFF8541A0979002904D100AA03210020FFF719FF802818D1DFF8C7
:204340003C1A0979012903D1009A120648BF1820009A9206009A48BF1920920748BF1A20B0
:20436000012908BF012C03D10099490658BF182016BD80B50020009000AA0121FFF7C8FED4
:20438000802802BFDFF8F4190979002904D100AA03210020FFF7BCFE802814D1DFF8DC1959
:2043A0000979009B01290CBFB222322213420AD0012903D11E220021002002E01A460121B1
:2043C0000020FFF7DDFE02BD38B50C46FFF7A0FF0546802D08D0FFF7CCFF142C18BF102C75
:2043E00002D0072C18BF2C46204632BD012108B9802070474FF6F8720240082A04D0302A8F
:2044000004D0382A04D005E0092129E0062127E00A2125E0102A18BF182A00F007000DD1F4
:20442000012804D0022804D0042804D005E0142104E0152102E0172100E01621202A18BFFB
:20444000282A0DD1012804D0022804D0042804D005E0102104E0112102E0132100E01221DC
:20446000084670472DE9F0410646DFF8105982B00120A87090460020E87005F118034FF05B
:20448000FF302866032700200090FF244FF6F070024643F8044B43F8044B7F1E43F8044B3A
:2044A000F7D16B6F092BB8BF40EA036228796A61012805D1002002F00BFEFFF797FF02E02C
:2044C000084603F08DF90746802F21D14FF0A04201210020FFF712FF0746802F18D10024B4
:2044E00000AA01210020FFF713FE0746802F18BFFFF73FFF802F10D1009800F0704010F1F9
:20450000805F02D0022CA8BF0B27641C032CE7DB802F02D1FFF72DFF0746802F08BFB8F1A2
:20452000000F07D1002000F08FF80746802F08BF00F00BF8802F05D1287901280CBF02200B
:20454000012070553846BDE8F68170B584B000200290DFF82848A07800281CBF206E10F1DF
:20456000010F06D0E078012806D103F0E3F9012802D1802004B070BD002000900023206E50
:20458000012202A900F6E47000F0FAFB0646802E0DD10298C0F30315002000900023206E80
:2045A000012202A900F6E87000F0EAFB0646802E24D1029800F00F0045EA0015A02D18D089
:2045C000FDB90020019000900023012201A94FF0402000F0D5FB0646802E27D10198C0F357
:2045E0000B3040F6A811884218BFB0F51B6F01901CD10020E070A07003F066FA304604B046
:2046000070BDBB2D12D10020019000900023012201A9DFF89C0C00F0B3FB0646802E01BF9A
:20462000019800090001B0F5887FE2D003F082F938B903F0E9F903F026FA0020E070A070B2
:20464000DCE70120E070D9E710B584B00021092802910191009157DADFF8204704EB800285
:20466000FF219161A067F02000F06CF8802804D102AA03210120FFF779FD802804D101AABB
:2046800002210120FFF772FD802804D100AA03210020FFF76BFD616F04EB81014FF00C52CA
:2046A000CA63019A02F00F02012A03D1019B13F0F00F0BE0042A08BF4FF0805309D0022A9B
:2046C00014BF062A4FF0004303D0052A02D14FF03063CB63802804BF216E11F1010F14D18F
:2046E000022A1DBF0199DFF8AC2C9142009906D00099C90709D5009911F1010F05D08908CF
:204700008900216604B010BD1D2004B010BD10B5DFF8844C2079012802D102F0F0FC01E08A
:2047200003F07AF84FF6F0706061032104F11800FF2240F8042B40F8042B491E40F8042BC0
:20474000F7D110BD38B5DFF83446A36F656F0146802000229D4207D0092BAFBF1D20626937
:2047600063F31F6262610122636903F07F4589B20D43802811D1AB4208BF002A0DD02A46B9
:2047800002210020FFF7BAFD802803D04FF6F071616132BDA16F6561616732BD70B5DFF8CE
:2047A000DC45DFF8F86B626901464FF6F075802005EA0203AB4212BF1346636F1B063340D1
:2047C00001F00F0141EA0306B2420BD0324602210020FFF793FD802801D0656170BD310EE9
:2047E0006661616770BDF8B5DFF89025936F04468020092B28BF002302EB8305EA6B160AB0
:20480000360200291FBF0B0A1B02120AB3EB022F02D00E0A360202E0A969A14223D0CCB1D3
:20482000022C03D013D3032C16D018E046F012070020FFF787FF802815D13A460021012049
:20484000FFF75CFD80280CD0FF21A961F2BD46F00107EDE73746EBE746F00207E8E7062017
:20486000F2BDAC61EE63F2BD10B5040018BF022C05D100220121DFF8C40C03F0B7F9022C1C
:2048800003D10A2003F02CFB01E0012C05D101220121DFF8A80C03F0A9F9802010BD80B515
:2048A00000920023012200F06BFA02BD00F0EBFB02BD38B504460D4603F024FC0021022097
:2048C000FFF791FF802804BF0020FFF73BFF802805D1DFF8182D01210120FFF70FFD802810
:2048E00004BF1020FFF72EFF802804D1224602210120FFF703FD802807D105F07F0040F45B
:20490000803201210120FFF7F9FC802804D1DFF8A01C284600F013F880280FD1DFF8780A5D
:20492000406E0F2D05D1400840006108B0EB410F00E0A04201D1802032BD0D2032BD38B5AF
:2049400004460D4603F0DEFB00210220FFF74BFF802804BF0020FFF7F5FE802805D1DFF8A2
:204960008C2C01210120FFF7C9FC802804BF1020FFF7E8FE802805D104F07F0201210120D4
:20498000FFF7BCFC802804D12A4602210120FFF7EDFB802804D12A4603210020FFF7E6FB52
:2049A000802803D1BDE832400020CBE632BD2DE9F041DFF8C87306463879802501280C462E
:2049C00005D1DFF82C0C0068306000201AE0DFF8248C0221404602F08FFC054608F10100EE
:2049E000FFF784FB7866802D786E30600BD10321404602F081FC054608F10100FFF776FBA0
:204A00007866786E20602846BDE8F081F8B5044603F078FB00210220FFF7E5FE012C03D154
:204A200021244025002602E0152400250026DFF8C87B802806D1202E39460CBF2120E8B234
:204A4000FFF77DFF761C3F1D6D1CA642F1DBF2BD38B504460020207003F054FB002102209E
:204A6000FFF7C1FE802811D1002000900023C34DDFF8C00C012205F1640100F081F98028E1
:204A800004D1696E890344BF0121217032BD70B582B006460FF26800009114461D4650F897
:204AA00026000023012200A900F0EDFA80280AD10698009000230FF25800012250F826004C
:204AC00000A900F0E0FA802817D10FF254010FF2640051F82520079950F82600802906D1FC
:204AE0000FF2600151F824101143009100E000920023012200A900F0C6FA76BD00000000AE
:204B0000201000E0301000E0401000E0501000E0241000E0341000E0441000E0541000E045
:204B20000400000005000000060000000700000000000000281000E0381000E0481000E0E7
:204B4000581000E0000000000004000000080000000C000038B50C46DFF8DC1B084012B9D5
:204B600040F0804505E0012A0CBF40F0004540F0404545F0010503F0C5FA00210220FFF715
:204B800032FE80280AD10B48784428300095002350F82400012200A900F075FA802808D12B
:204BA000032000900023012200A9DFF8900B00F06AFA32BDE01C0000F8B5044600252570F1
:204BC00003F0A0FA00210220FFF70DFE802808BF00F09AF8802808D1012000900246002376
:204BE00000A9DFF85C0B00F04EFA802809D1DFF8540B00900023012200A9DFF84C0B00F041
:204C000042FA80285D4E09D1002000900023012206F16401DFF81C0B00F0B2F8716E490E0B
:204C20006D1C01F00101802808BF002902D1B5F57A7FE6DB802808BF002928D00025DFF89D
:204C4000F47A002000900023012206F16401384600F096F8716E6D1C890104D5802802D152
:204C6000B5F57A7FEDDB716E89030ED5802808D1DFF8D80A00900023012200A9384600F054
:204C800002FA802803D1012100E000212170F2BD70B5044682B00020207003F033FA0021A7
:204CA0000220FFF7A0FD802809D1DFF8A40A00900023012200A9DFF8340900F0E4F9802830
:204CC00021D1002000902D4DDFF820690023012205F16401304600F053F8696EDFF8742ABA
:204CE000114209D176BD002000900023012205F16401304600F044F8802802D1696EC90145
:204D0000F1D40121217076BD70B582B0002403F0F9F900210220FFF766FD8028174E20D1EE
:204D2000DFF8280ADFF80C5A00900023012200A9284600F0A8F9802808D10020009000235B
:204D4000012206F16401284600F01AF8716E641C890302D5716E090303D5C82C01DA802868
:204D6000DED0802809D10020009000230122DFF84018DFF8C00900F003F876BD20100020D0
:204D80002DE9F84F0646884692461D46002705B12F6003F0B7F90A990220FFF724FDAAF1DB
:204DA000010929E080280AD1424603210020FFF7AFF90446802C18BFFFF7DBFA20460446AB
:204DC0000120FFF7A5FA8346BBF1800F08D0FFF7D0FA142C18BF102C02D0072C18BF5C46B0
:204DE0002046002D18BF802802D0296801B92E607F1C08F10408361D574530D280282ED1BE
:204E00000FB1B1051CD10020FFF79CFC80280AD1324601210120FFF7B3F90446802C18BFD4
:204E2000FFF7A7FA204680280AD100AA03210120FFF76EF90446802C18BFFFF79AFA2046E9
:204E40004F45AFD28028CCD1424603210120FFF75FF90446802CC3D0FFF78BFAC0E7BDE88D
:204E6000F28F2DE9F04B82B08046894616461F46002407B13C6003F045F90A990320FFF773
:204E8000B2FC0546802D03D10020FFF75BFC0546802D05D1424601210120FFF72FFA054628
:204EA000802D29D100AA03210120FFF75FF9054622E003210020FFF72BF90546802D18BF94
:204EC000FFF757FA0120FFF723FA8346BBF1800F08D0FFF74EFA142D18BF102D02D0072DE2
:204EE00018BF5D46002F18BF802D04D0386810B908EB84003860641CB44210D2802D0ED155
:204F0000701E844209EB8402D3D203210120FFF7FFF80546802DE5D0FFF72BFAE2E72846ED
:204F2000BDE8F68B2DE9F84F40080E4691461D464FF0000A47000DB1C5F800A003F0E2F8A0
:204F40000A990120FFF74FFCA9F101081DE0318004460120FFF7DCF98346BBF1800F08D0E9
:204F6000FFF707FA142C18BF102C02D0072C18BF5C462046002D18BF802802D0296801B93A
:204F80002F600AF1010AB61CBF1CCA4545D2802843D10020FFF7D6FB80280AD13A460121E1
:204FA0000120FFF7EDF80446802C18BFFFF7E1F9204680280AD100AA03210120FFF7A8F8EA
:204FC0000446802C18BFFFF7D4F92046C24512D28028CFD100AA03210120FFF799F80446E8
:204FE000802C18BFFFF7C5F9B907009948BF090C20463180BEE78028AAD100AA0321002038
:20500000FFF786F80446802C18BFFFF7B2F9B907009920469BD5090C99E7BDE8F28F70B59F
:2050200082B004460D46164603F06CF831460020FFF7D9FB802825D10020FFF783FB014614
:20504000802905D1224601210120FFF757F90146802905D100AA03210120FFF787F801466F
:20506000802905D100AA03210020FFF77FF80146009804F00302D20020FA02F32B700120E1
:20508000FFF7A2F976BD2DE9F04182B004460D4690461F46002603F035F839460220FFF71E
:2050A000A2FB074623E01EB104EB8600800510D10020FFF747FB0746802F0AD104EB8602B3
:2050C00001210120FFF75CF80746802F18BFFFF750F9802F0DD155F8262003210120FFF7D6
:2050E0004FF80746802F18BFFFF743F9761C464501D2802FD7D02DE02DE9F04182B004464E
:205100000D4690461F46002602F0FCFF39460320FFF769FB0746802F03D10020FFF712FBFF
:205120000746802F12D1224601210120FFF7E6F807460BE055F8262003210120FFF720F8F3
:205140000746802F18BFFFF714F9761C464501D2802FEFD0802F0FD1DFF8FC050079012812
:2051600004D101F054FFFFF741F904E000AA01210120FEF7FBFF074639460020FFF724F927
:20518000BDE8F6812DE9F041460882B00C4690461F460025760002F0B5FF39460120FFF7C8
:2051A00022FB074626E00020FFF7CCFA0746802F0AD106EB450201210120FEF7E1FF07462F
:2051C000802F18BFFFF7D5F8802F15D106EB450134F8150001F00201C9008840009002461C
:2051E00003210120FEF7CCFF0746802F18BFFFF7C0F86D1C454501D2802FD4D0AAE770B53A
:2052000082B004460D46164602F07CFF31460020FFF7E9FA064604F00300C00005FA00F094
:20522000802E009003D10020FFF78CFA0646802E05D1224601210120FFF760F80646802EFD
:2052400005D1009A03210120FFF758F80646802E14D1DFF804050079012805D101F0D7FE56
:20526000FFF7C4F8064609E000AA01210120FEF74FFF0646802E18BFFFF77BF83146002046
:20528000FFF7A2F876BD80B502F03CFF00210220FFF7A9FA802809D1DFF8C004009000233D
:2052A000012200A9DFF88C04FFF7EDFE02BD00001C00904070B582B0044605200D461646BA
:2052C000ADF80000A3B9DFF89804007838B9DFF88804817800291CBFC078012808D03146E1
:2052E000284602F013FF00A80178297041786970012332462946204603F031F873BD10B56E
:205300000C46DFF8601401EB041182B08A78C97842EA01210128084604D101F0CBFAFFF734
:2053200065F801E001F012FFADF800000123022200A9204603F013F8BDF8000016BD00B5F6
:2053400083B000A900220A6008218DF8001000A94A70114A536F8B700521ADF80410DFF8F6
:205360000014097829B9917800291CBFD178012908D000A900220A6001A900AA0B781370CF
:205380004B7853700123042200A902F0E8FF03B000BD00001101172020100020F0FF00FFC4
:2053A0002DE9F0438046DFF8BC0300EB081083B00D468178C278437941EA0221027942EADB
:2053C0000324A20802F00307DFF8942312784FF000093AB9DFF880339A78002A1CBFDA78BA
:2053E000012A09D04FF6FF7291421EBF4FF6F0722240F02A40F08B804FF0010955B9827993
:20540000C37942EA0322037A407A42EA034242EA006001904FF6FF70814233D1200900F0A6
:205420000F00FFF7BBF98028ADF8000069D1012D12D101AA39460020FEF76AFE0746802F78
:2054400018BFFEF796FFADF80070802F02BFC2480079002855D12FE0019A39460020FEF757
:205460004DFF022FADF800004BD18028BA4903D04FF6F070486144E0019848610198000E15
:2054800048673EE0B44EB16704F0F000FFF75AF98028ADF8000034D1012D1AD101AA394663
:2054A0000120FEF735FE0746802F18BFFEF761FF802FADF8007024D101AA03210020FEF7DE
:2054C00027FE0746802F18BFFEF753FFADF8007017E0019A39460120FEF710FFADF800009D
:2054E0007CB9B06F06EB8000FF218161BDF80000802806D1706F019906EB8000090A0902A9
:20550000C16300A8984902780A7042784A70012D954F0AD10020B870F870042201A9381DB4
:2055200002F09CFF4B46082201E04B46022239464046FFF7BFFE03B0BDE8F083000C0140BD
:2055400010B5044682B00F22C821062002F014FD8020ADF800000123022200A9204602F039
:20556000FEFE13BD38B504468048224D0078562808D18020ADF800000B227D49A81C02F034
:205580006DFF07E00820ADF8000020220B21A81C02F0A0FF00206873012300A80E220178B8
:2055A0002970417869702046294602F0D8FE31BD84100020014680B58020092914DADFF86E
:2055C000D02D01EB410302EB83025278012A0CD1614881670023DFF8BC1D416600A9406EF8
:2055E00000905448FFF762B91D2002BDF0ED00E044150020B4150020A41000202DE9F04237
:205600000446584800EB041582B0E8784FF0000908B14FF0FF09012902D0022920D081E04A
:20562000A8784D4AA32818BF002111714A460121A42808BF00212046FEF714FF8028ADF84D
:20564000000006D14B49022008700022002102F093FC687820285DD146490220087064E0BE
:205660003D4E371B787870B1022803D1A878A32805D136E0012804BFA878A32831D10E2060
:20568000ADF800002DE0A878A32806D1A05D012808BFFFF73CF801203071A878A32808BF0B
:2056A00001210BD0A05D022808BFFFF730F8002030710121A878A42808BF0021787840B941
:2056C0004A462046FEF7CEFE8028ADF8000008D102E08020ADF8000000220021022002F06F
:2056E0004BFC6878202820D00520ADF802001C48007828B9B07800281CBFF078012809D02D
:2057000000A8002101800DF1020000A902780A7042784A700123022200A9204602F01FFEC8
:20572000BDE8F382204602F062FE204602F046FEBDE8F382F0ED00E0FCFFFF1F002000E00B
:20574000FCED00E00100FA050CED00E003005FA005005FA0010003012010002001005FA04C
:205760007133002034330020B4150020323C0008333C0008B33300202DE9F04F85B004462E
:2057800000200490DFF8B86D3078012803D0022825D001F07BB8DFF8500E00EB0410407886
:2057A000202818BF302800F0C9803C2800F012873F2800F09187432800F0B780442800F0EF
:2057C000BA80492800F093874A2800F09487204602F00DFE204602F0F1FD01F057B8DFF817
:2057E0000C5E686F012818BF022807D1DFF8F80D00EB041040783F2818BFEC67FEF7A5FEAA
:20580000DFF8E40D00EB041898F80100401E5328DDD8DFE810F0CD00E500F500190197017A
:20582000F701EF033F05E10246039003D804D405C4032F020D03540054005400540054001A
:20584000540054005400540054005400540054005400540093009900550054005400540083
:20586000540054005400540054005400540054005400540093006400F5009701F7012F0233
:2058800082020D039003C40319014E06DF06190171066107ED061B072F078A0090006507FD
:2058A0006A07EF033F056C0770077407C1075400540054003F05B606BA069706EF0386E75C
:2058C00005F5847605F586713046FFF770F8012304223146204602F042FD00F0D7BF05F537
:2058E000847605F5867529463046FFF760F8ADF8080080280CBF0120002002F00DFB02A881
:20590000DFF8907D01783970042241787970381D314602F0A3FD0422294607F1080002F0D4
:205920009DFD01230C223946D4E721460120FFF7E6FC00F0ABBF21460020F8E73178204612
:20594000FFF75CFE00F0A2BF00206055281B407800287FF43FAF0027DFF8348A98F8000001
:2059600078B13846FFF726FEADF80800FF22002088F8000088F801000A2108F1020002F05F
:20598000A9FD7F1C092F08F10C08E7DBDFF8000E0122012102F02AF9FEF7B9FE002028711B
:2059A00002460146012002F0E7FA0120307011E7DFF8E00D0078002840F02E87A87800281A
:2059C0001CBFE878012840F0428703A8FFF740F89DF80C00002800F01C87812000F01ABFCB
:2059E000DFF8B00D0078002840F00182A87800281CBFE878012840F0FA81FFF785F9F6E11E
:205A0000DFF8900D0078002840F00687A87800281CBFE878012840F01A870022012120468E
:205A2000FEF720FDADF8080098F80100032840F0F38603A8FFF7C0F89DF80C00002840F0F0
:205A4000E886812000F0E6BE0420ADF80A0098F80100042804BF0020ADF80A00204602F029
:205A6000B9FC012851D198F80200DFF8281DA867087898F801103D290DD150B9A8780028B3
:205A80001CBFE878012804D10120FEF7BFFFADF80800882011E050B9A87800281CBFE87827
:205AA000012804D10020FEF7B1FFADF8080098F801003A280CBF582054206882DFF8D46BCC
:205AC00098F8010004280CD0BDF8080080280CBF0120002002F020FA02A801783170417833
:205AE000717005F18401BDF80A00C0F14002304402F0B4FC688A4128C0F2C78340386882C9
:205B00000023402028824022E3E6BDF80A006A8A298A4042412A0BDB40312982403A89B223
:205B20006A82491940180023402200F14401D1E649194018002300F184012046FFF7BAFBE9
:205B400000F0A4BE98F80300DFF8486CA867307868B9A87800281CBFE878012807D198F8E9
:205B6000020005F16401FEF7EAFEADF80800BDF8080080280CBF0120002002F0CDF998F885
:205B80000100052819D1ADF80000307828B9A87800281CBFE87801280AD005F164000021BE
:205BA000016000A805F1640102780A7042784A700123042205F164018CE602A8DFF8D47A33
:205BC00001783970042241787970381D05F1640102F044FC0520ADF80000307828B9A87886
:205BE00000281CBFE878012808D00821384602F08DFA00A801783970417879700123082267
:205C0000394667E698F80700A86798F8041098F8030040EA012098F8051040EA014098F8F0
:205C2000061040EA01606866DFF8680B007860B9A87800281CBFE878012806D198F80210F5
:205C4000686EFEF736FEADF80800BDF8080080280CBF0120002002F05FF9BDF80800802878
:205C600000F0DA8598F80100062840F0D585812000F0D0BD98F80A00A86798F8021098F893
:205C8000032041EA022198F8042041EA024198F8052041EA0261696698F8072098F8061002
:205CA00041EA022198F8082041EA024198F8092041EA0261A96698F80B2052B1092808DA49
:205CC00005EB8000DFF8A83BC06B184040EA026000E000202867DFF8BC0A007870B9A8789E
:205CE00000281CBFE878012808D1686E2B6F0091012200A9FFF7C7F9ADF80800BDF8080052
:205D000080280CBF0120002002F006F998F80100062840F0818500F07CBD98F80600DFF853
:205D2000746AA86798F8031098F8020040EA012098F8041040EA014098F8051040EA0160B7
:205D4000686698F8081098F80700090441EA002098F8091040EA01613078296778B9A87820
:205D600000281CBFE878012809D1686E00910023012205F16801FFF703F8ADF80800BDF85E
:205D8000080080280CBF0120002002F0C5F802A8DFF8007901783970042241787970381D5F
:205DA00005F1680102F05AFB0520ADF80000307828B9A87800281CBFE878012808D008213D
:205DC000384602F0A3F900A801783970417879700123082239467DE5DFF8B809007830B923
:205DE000A87800281ABFE8780128FFF74CFA8020ADF808000520ADF80000DFF898090078B6
:205E000028B9A87800281CBFE878012808D002A80021018000A802A902780A7042784A7016
:205E20000123022202A9204602F099FA00F02EBD98F8030098F8041040EA012098F8051082
:205E400040EA014098F8061040EA01606866DFF844090078B0B9A87800281CBFE878012827
:205E600010D198F80B00019098F80800009098F80A3098F80920696E98F80700FEF707FE02
:205E8000ADF80800BDF8080080280CBF0120002002F042F898F80100102840F0BD8400F08E
:205EA000B8BCDFF8F0080078002840F0B584A87800281CBFE878012840F0C98400200090BD
:205EC0000023DFF8B069012205F164013046FEF757FF686EDFF8A019084368660023686EF8
:205EE0000090012200A93046FFF7CDF803A8FEF7CFFE9DF80C00002814BF80208120ADF826
:205F00000800002300200090012205F164013046FEF736FF686EDFF87C1420F00C000843E4
:205F200068660023686E0090012200A93046FFF7AAF800F071BC98F80800A86798F80410C8
:205F400098F8030040EA012098F8051040EA014098F8061040EA01606866DFF838080078C5
:205F600070B9A87800281CBFE878012808D198F8072098F80210686EFEF7ECFDADF80800B9
:205F8000BDF8080080280CBF0120002001F0C4FF98F801000B2840F03F8400F03ABC98F8AF
:205FA0000300A867DFF8EC070078A0B9A87800281CBFE87801280ED10020009000230FF6D1
:205FC000D40098F8026050F82600012200A9FFF75AF8ADF80800BDF8080080280CBF01207B
:205FE000002001F099FF98F801000E2840F0148400F00FBC98F80800A867DFF85C787F4499
:020000040800F2
:2060000007F6560798F801000426472805D1DFF84C787F4407F646070226542804D1DFF82E
:2060200040787F4407F63A07204602F0D3F9012840F0B38098F8020098F80310DFF854A6F1
:20604000DFF850B740EA012098F8041040EA014098F8051040EA0160E86698F8071098F853
:20606000060040EA0120B0F5C05FC8BF4FF4C050688298F80A1098F80900090441EA0020AC
:2060800098F80B10DFF8088340EA0160286700202882688AADF80A008020ADF80800C8F861
:2060A0006C0081464FF4006090FBF6F0ADF8040022E001F031FF288A00F500602882DFF845
:2060C000A017794401F29A71BDF80A00A0F500608F42ADF80A0003D0E86E00F50060E8664E
:2060E000D8F86C00802807D1C8F86C90B9F1800F1CBF0498C8F87000BDF80A109BF80000E6
:20610000B1F5006F17DD80B9A87800281CBFE87801280AD1286FBDF80420009004AB288A55
:2061200000EB0A01E86EB8478146B9F1800F0CBF01200020BDE780B9A87800281CBFE878A8
:2061400001280AD1286F009091FBF6F2298AE86E04AB92B25144B8478146D8F86C00802865
:2061600007D1C8F86C90B9F1800F1CBF0498C8F87000B9F1800F0CBF0120002001F0CCFEAB
:20618000688A4128C0F281804021298240386882002340225146FFF79DBB6A8A288ADFF89C
:2061A000F464412A0CDB40302882A2F14001698280B2304400234022A0F14001FFF78ABB24
:2061C00000238119B9E498F80800714FDFF8C4A4DFF8C0B5A86798F8031098F8020040EA14
:2061E000012098F8041040EA014098F8051040EA0160E86698F8071098F8060040EA012069
:206200004128A8BF40206882002698F80A1098F80900090441EA002098F80B1040EA01606D
:2062200028678020ADF80800F8660FE001F074FEF86E802806D1C7F86C90B9F1800F1CBF1E
:20624000E86E3867E86E401CE866761C688AF1B2814216D09BF8000068B9A87800281CBFA2
:20626000E878012807D12A6FE86EF6B206EB0A01FEF7D5FE8146B9F1800F0CBF0120002056
:20628000D4E7012804BF022068826A8ADFF80414002352E498F80100DFF8C8A5FA440AF200
:2062A000C45A0426482805D1DFF8BCA5FA440AF5B76A0226502804D1DFF8B0A5FA440AF2DF
:2062C000AC5A8020ADF80800204602F083F8012800F07D80688A2E4FF96E41283CDB3029D3
:2062E0001AD0DFF8B004007888B9A87800281CBFE87801280BD1402090FBF6F2DFF87C05BD
:206300002B6F00EB8411E86E92B2D0478146B9F1800F03D1012002E04FF03009002001F052
:20632000FBFDF86E802806D1C7F86C90B9F1800F1CBFE86E3867DFF83405784400F22E5080
:20634000824502D0E86E4030E866688A40386882204602F027F899E230291DD0DFF83414E5
:20636000097881B9A97800291CBFE97801290AD190FBF6F2DFF804052B6F00EB8411E86E14
:2063800092B2D0478146B9F1800F07D1012006E07813002000005FA04FF03009002001F090
:2063A000BBFDF86E80287FF415AAB9F1800FC7F86C903FF40FAAE86E3867FFF70BBA8020B5
:2063C000ADF80800204602F005F8012831D198F80800A86798F8031098F8020040EA012069
:2063E00098F8041040EA014098F8051040EA0160E86698F8061098F8072041EA022169827A
:2064000098F80A2098F80910120442EA012198F80B2041EA02612967DFF86424BDF80810B0
:20642000802903D03021D166106791E78020D0668EE7DFF84C84D8F86C00302834D0DFF808
:206440003C04DFF850B3002600EB841711E001F063FDD8F86C00802807D1C8F86C90B9F112
:20646000800F1CBFE86EC8F87000E86E401CE866761C698AF0B28842BFF4ACA99BF80000A0
:2064800060B9A87800281CBFE878012806D1F6B22A6FF15DE86EFEF7B2FE8146B9F1800FD6
:2064A0000CBF01200020D2E7002001F035FDFFF791B98020ADF808000520ADF80000B54880
:2064C000007828B9A87800281CBFE87801280DD0DFF8AC53022105F16C0002F02FF800A8BE
:2064E00005F16C0102780A7042784A7001230222DFF89013FFF7EEB98020ADF80800052000
:20650000ADF80000A348007828B9A87800281CBFE87801280ED0DFF8685305F16C000021F3
:2065200000220B460EC000A805F16C0102780A7042784A7001230C22D249FFF7CBB900BF01
:20654000B33300204020ADF80A000520ADF800009048007828B9A87800281CBFE87801287F
:206560000AD00DF10A000021018000A80DF10A0102780A7042784A70012302220DF10A012D
:2065800051E4204602F042F880E1204601F022FF012807D105F1800105F1120002F07FF872
:2065A00000202882D5F88000298A6A8A0918412A0DDB00234022204601F0D1FE288A4030DC
:2065C000288205B0688A40386882BDE8F08F0023FFF7B3BA044800EB04108078FEF744F9E9
:2065E000ADF808001CE400BF3433002020100020287901283CD198F8020098F8031040EA22
:206600000120ADF80A0098F8051098F8040040EA012098F8061040EA014098F8071040EA44
:20662000016068665B480078002840F0F580A87800281CBFE878012840F00981BDF80A100E
:20664000686E02F00AF9FDF7D1FEE3E02879012802BF5048007800280AD1A87800281CBF28
:20666000E878012804D102F058F9FDF7BFFED1E02020CFE02879012802BF4648007800286F
:206680000AD1A87800281CBFE878012804D102F09CF902E0B41500200020ADF80A00052058
:2066A000ADF800003B48007828B9A87800281CBFE87801280AD00DF10A000021018000A881
:2066C0000DF10A0102780A7042784A70012302220DF10A01FFF7A7BB2046FEF730FED5E062
:2066E00001212046FEF75CFED0E00021F9E72046FEF726FFCAE02046FEF734FFC6E0802014
:20670000ADF80800DFF88CB09BF8000028B9A87800281CBFE878012802D0A87801287BD132
:2067200098F8027098F80360092F05DA07EB470253489100085C60B93846FDF785FFADF8CE
:206740000800802808BFFDF700FFBDF80800802862D19BF8000000285ED1A87800281CBF2A
:20676000E878012873D11D20092F6EDA07EB47008100434A885C8F1800B97E70B878FF28BF
:2067800004D1885C401C88540020B87080205CE0000C0140713300208020ADF808003A4804
:2067A0000078002838D1A87800281CBFE87801284DD198F80200092846DA00EB40018E00C9
:2067C000DFF8BC8006EB0807B978FF291CD016F8081071B109280CDA00EB4002910011F83B
:2067E0000810012905D1FEF7E5FE8028ADF8080012D1B878FF2807D016F8080038B1401EE6
:2068000006F80800FF20B87016F8080008B9002078708020ADF808000520ADF800001A48D3
:20682000007830B9A87800281CBFE87801283FF4F7AA02A80021018000A802A902780A70E4
:2068400042784A70FFF7ECBA1D20ADF808000520ADF80000E6E700BF29E5FFFFC9E6FFFF2F
:2068600003E6FFFF23E8FFFF1DE9FFFF8DE8FFFF00FFFF00F0ED00E008005FA02832002075
:2068800078130020E41300207133002005B0BDE8F08F0000082000E00C2000E0102000E075
:2068A000142000E0182000E01C2000E0202000E0242000E0DFF8681888600020704738B549
:2068C0004FF40050ADF8000010208DF8030001208DF8020000A9DFF84C58284601F024F980
:2068E0004FF4A040ADF8000000A904208DF80300284601F019F92020ADF8000004208DF87C
:20690000030001208DF8020000A9DFF81C48204601F00AF91020ADF8000000A904208DF867
:20692000030001208DF80200284601F0FDF81020ADF800008DF8030000A901208DF80200AA
:20694000204601F0F1F800221021204601F04EF90220ADF8000000A910208DF803000120BD
:206960008DF80200204601F0DFF800220221204601F03CF931BD10B582B004208DF8030000
:2069800000A94FF4E040ADF80000DFF8980701F0CBF80120FDF768FFDFF88C4704208DF84D
:2069A000030000A91220ADF80000204601F0BCF84FF48460ADF8000000A9204601F0B4F8D1
:2069C00013BDF8B50025DFF85867DFF860374FF480474FF4005220FA05F41A61E4074CBFEE
:2069E000DF601F61B4680094DDF800C0BCF1010ECDF800E0F8D1DA600094DDF800C0BCF159
:206A0000010ECDF800E0F8D16D1C082DE3DBDFF8205702202860186820F0706040F0806015
:206A200018601A6100940098401E0090FBD1D8680090DA6000940098401E0090FBD1087015
:206A400001251A610094009E761E0096FBD15E68DA60360B06F001060094009F7F1E0097C8
:206A6000FBD126B105FA00F70E783E430E70401C0328E6DBF1BD2DE9F54F81B08A46002582
:206A8000DFF8A866DFF8A8B64FF480484FF001094FF40054002000270CE058B1CBF80410DE
:206AA000316821F0706141F0407131603461F1680091F460002134619DF8042022FA01F396
:206AC000DA074CBFC6F80C80C6F81080491C0829F460F0DB0221CBF80010316821F070610C
:206AE00041F0806131603461F1680091F46000210A4634617368F460DB0444BF09FA02F311
:206B00001943521C032AF4DB401CC9B2022902D1C0B21E28C1DB012922D10020CAF8000087
:206B2000014634617268F460D20408D5DAF8002009FA01F31A43CAF8002080F00100491C9A
:206B40002029EEDB3461C2B27168F460090B01F0010102B911B9C0B250B149B9042707E0DA
:206B6000022908BF012703D004290CBF022703270220CBF80400306820F0706040F040709C
:206B800030603461F0680090F460CFB19DF80800B0B9DFF88C15002D48600CBF03256D1E43
:206BA0004EF29E7000F04DFADFF87405DFF884150078012200F0D1F9EDB2002D7FF46AAFE3
:206BC000384644E12DE9F54F83B08B460025DFF85045DFF85875DFF860854FF400564FF0EB
:206BE0000009CA4619E0B9F1000F16D0C8F80000386820F0706040F0407038603E61A06885
:206C000000900099491E0091FBD1F9680091FE6000900098401E0090FBD101A99DF80C000A
:206C2000FFF7CFFE9DF80400022809F1010107D15FFA81F9B9F11E0FD5DB4FF0010A48E02E
:206C4000012840D1CBF800A0002152463E61A0680090009B5B1E0093FBD17B68FE601B0BCD
:206C600003F001030090DDF800C0BCF1010ECDF800E0F8D15BB14FF0010CDBF800300CFA6D
:206C800002FC4CEA0303CBF8003081F00101521C202ADBDB3E610090009A521E0092FBD14F
:206CA0007A68FE60120B02F0010300900098401E0090FBD1C8B200B913B9C9B249B143B92F
:206CC0004FF0040A05E004280CBF4FF0020A4FF0030A0220C8F80000386820F0706040F062
:206CE000407038603E61A06800900099491E0091FBD1F9680091FE6000900098401E009052
:206D0000FBD1BAF1000F14D09DF8100088B96060002D0CBF03256D1E4EF29E7000F091F9F0
:206D200020780122211D00F018F9EDB2002D7FF456AF504605B0BDE8F08F2DE9F24F82B01D
:206D400082460025DFF8E463DFF8E4B34FF480484FF001094FF40054002000214AFA01F257
:206D60003461D2074CBFC6F80C80C6F81080491C0829F460F2DB0221CBF800100027316895
:206D800021F0706141F0806131603461F1680091F460002134617268F460D20444BF09FADB
:206DA00001F21743491C0329F4DB0221CBF80410401C316821F0706141F04071316034614D
:206DC000FFB2F1680091022FF46002D1C0B21E28C3DB012F1CD100200021029A346122FABF
:206DE00001F313F0010214BFC6F80C80C6F810805040491C2029F460EFDBC0B234610028A3
:206E000014BFC6F80C80C6F81080F46000201EE0002D0CBF03256D1EDFF804130020486034
:206E20004EF29E7000F00DF9DFF8F402DFF804130078012200F091F8EDB2002D8CD1022FE5
:206E400008BF012003D0042F0CBF0220032003B0BDE8F08F2DE9F24F82B0804600254EF2A9
:206E60009E79AF4FB14EDFF8D0A24FF400544FF0000B01A94046FFF7A4FD0220CAF8000029
:206E8000306820F0706040F0407030603461B86800900099491E0091FBD1F1680091F4602A
:206EA00000900099491E0091FBD10BF101029DF80410022909D15FFA82FBBBF11E0FD8DBD6
:206EC000002D0CBF03256D1E2FE00129F8D1002100224FF48043029F346127FA02F515F069
:206EE000010714BFF36033610090009D6D1E0095FBD1F4600090009D6D1E0095FBD1794091
:206F0000521C202AE7DBC9B23461002914BFF360336100900099491E0091FBD1F460009033
:206F20000098401E0090FBD191E700207860484600F087F838780122391D00F00EF8EDB2D4
:206F4000002D94D19DF80400022808BF012003D004280CBF0220032079E7714B9B68002B9B
:206F600008BFFFF788BD2DE638B50B4611460024002520B1012804BF704C202501E0684CCB
:206F800010253CB1185D0022FFF7E7FF18B1401980B232BD302032BD614A9268002A08BF44
:206FA000FFF7CBBE56E710B50B4611460022002420B1012804BF624A282401E0614A1824E5
:206FC00032B1985CFFF7E8FF18B1001980B210BD302010BD18B45C48514A4FF4804101608F
:206FE00035219268521C4FF4005343600092009C641E0094FBD10468009403600092009CF9
:20700000641E0094FBD1491EEFD111BC704738B503240120424D21464C1E01290EDBE878DB
:20702000A96821B9002200A9FFF725FD03E0002200A9FFF7C7FD0128EDD008B1103080B209
:2070400032BD2DE9F041394C3B4982B080464FF48047E760022008604FF40055206820F0EE
:20706000706040F040702060E560FFF7B3FF00202B4EB168491C48FA00F22561D2074CBF3E
:20708000E76027610091009A521E0092FBD1E5600091009A521E0092FBD1401C1028EADB91
:2070A000FFF798FF27610220B168491C25610091009A521E0092FBD1E2680092E5600091EA
:2070C000009A521E0092FBD1401EEFD1BDE8F38138B50446124D002068601CB9FFF7EFFBDE
:2070E00001F01BFB4EF29E70FFF7ABFF28782246291DFFF732FF08B1083080B232BD80B5DF
:20710000104840780021FFF747FF4EF23C70FFF798FFFFF730FCBDE8014001F070BB000065
:2071200040150020000C014000080140040C01401008014044150020140801404C15002043
:20714000801500207C150020100C014010B5802402280FD0042815D0082815D0102815D0B7
:20716000202808D0402813D0802813D0B0F5807F12D013E00020DFF82817888100F010F869
:20718000204610BD0820F6E71020F4E71820F2E72820F0E73020EEE73820ECE70824EFE72A
:2071A0002DE9F04186B00020ADF800004FF48270ADF8020000200190ADF808004FF40070A0
:2071C000ADF80A0000A9DFF8D846DFF8D856A089ADF80C000020ADF80E000720ADF81000D4
:2071E000284601F0C9FC4FF44040ADF800000020ADF8020000A9DFF8B066304601F0BCFC87
:207200000121284601F0E1FCDFF8A086404601F0E7FC04F1940020640020606404F13C0196
:20722000206FDFF88C76A064E7630020E0648020206500206065A065E0654FF400502066C7
