:020000040800F2
:20000000005000206D1600086916000867160008671600086716000867160008000000004A
:200020000000000000000000000000006916000869160008000000006916000859010008C9
:20004000671600086716000867160008671600086716000867160008671600086716000878
:20006000671600086716000867160008671600086716000867160008671600086716000858
:20008000671600086716000867160008671600086716000867160008671600086716000838
:2000A000671600086716000867160008671600086716000867160008671600086716000818
:2000C0006716000867160008671600086716000867160008671600086716000867160008F8
:2000E0006716000867160008671600086716000867160008671600086716000867160008D8
:200100006716000867160008671600086716000867160008671600086716000867160008B7
:20012000671600086716000867160008671600086716000867160008671600086716000897
:200140006716000867160008671600086716000808B501F0F3FA704738B50F4C2268A3883C
:200160002AB91946BDE838400C4800F0B6BBA26812F001020BD0094D00220221284600F088
:200180007DFBA388AB82A3680133A36038BD1146024800F073FBF6E74800002000080140CB
:2001A00038B500F0E7F9224C206000283BD14FF48073A38002231F4DE380D5F800385B06AD
:2001C00012D50222E38800211B4800F057FB42F21073E288C5F8102C013BD5F8081CFBD1D0
:2001E0000A4201D000F0AEF9002000F0AAF9134800F070FC002001F089FA114801F080FA89
:2002000001F08EFA01F093FA23680E48012B82BF4FF40042074BC3F8102800F00FF900F0E7
:2002200061F9002038BD4FF40073A3800123C2E74800002000000140000C0140641F000828
:20024000A0BB0D00901F0008054AD37810791B0403EB006350780344907803EB0020704710
:20026000540000202DE9F8431E460B780F4603F07F03212B66D14C781568631E052B61D85A
:20028000DFE803F003406236923CDFF828910EB133882BB9062389F800302046BDE8F883AD
:2002A000CA788B78DFF8108143EA0223A8F80834328829464046A8F8002401F021FD7B88DE
:2002C000A3B998F80030212B10D1FFF7BDFF3B4B1B68834203D8D8F80C34834204D80123A5
:2002E00088F810340A23D6E7C8F804040323D2E7304B1A780A2A02D00124CEE72D4B022220
:200300001A70F9E72B4A1178092917D84FF40973CB40DB0712D57888274B81B2A3F8080475
:20032000092001291070E7D9D3F8043402392846328803EB812101F0E3FCDDE7012200215C
:2003400000F0A2FC0024A8E71A4C2378062B21D00A2B24D0032B1FD104232370FFF774FFCF
:20036000154F014697F80080B7F80824404600F0E6F800232B70030AAB70237868702B719F
:2003800000236B710623000CE8700D4A3380089B1A60B1E70723237000200346EAE7064BCA
:2003A000002093F81034E5E70124024B1B782B70348072E70400002054000020000000201D
:2003C000C503000810B51A4C2378042B02D0072B2AD010BD00F038FA1649B1F80804C8B9D6
:2003E0000B78412B11D1FFF72FFF134A1268904203D3D1F80C24904205D30A232370BDE881
:20040000104000F02DBA00F077F800F029FA05232370DEE7D1F804340238B1F8002403EBCD
:20042000802000F079F8F0E7BDE81040FFF790BE04000020540000200000002030B585B0D9
:20044000044600F07FF9402808BF802040F2E633A0F108029A421F4928D9392381F82730C4
:2004600081F8283081F829301B4D830203F10063C5F80C3400F03EF94FF48063029305F2BF
:200480001143019304230093144B204603F1100203F11D0100F09CFB7F222121104BC5F85B
:2004A000140805B0BDE8304000F0CCBC0A25B2FBF5F305FB1322303281F82920B3FBF5F22C
:2004C00005FB12333032303381F8283081F82720CAE700BF0400002054000020941E0008BF
:2004E0006502000808B5034CD4F8140800F09AFBFAE700BF5400002038B5064D20F47F74B9
:200500002B6824F00304A34203D0204600F062F92C6038BD38000020F8B506460F46154642
:200520000024AC4203D3BDE8F840FFF714BE6308A01937F8131000F01BF90234F1E7642022
:2005400070477047094B0A4A1B6819680A40B2F1005F0AD14FF0E022C3F31400C2F8080D80
:2005600081F30888D3F804F0FEE77047000000200000FE2FF7B5524E746814F00F044ED171
:2005800040F2023000F004FB40F2033000F000FB4FF4417000F0FCFA40F2973000F0F8FA03
:2005A00040F2172000F002FB464F4FF4407000F0EFFA40F2862000F0EBFA4FF4C04302226D
:2005C0002146384600F05AF94FF4C0433E4D3B6128464FF400630222214600F04FF94FF46C
:2005E0000063AB8225460094009B632B1CD9374F0DB3D7F8083C13F4006F40F2011318BF62
:200600001C4614F0FE0F07D14FF48053304801220221838200F032F9204603B0F0BD7368FA
:2006200023F003037360A7E7BD68009BC5F3403501330093D8E74FF4407000F0A9FA7B6864
:20064000234C43F000737B6002224FF400432946204600F013F94FF40043A3820195019B52
:20066000632B23D955B34FF40045174F4FF4004301220221384600F001F92B46012202210F
:200680001348BD8200F0FAF8A58202247368022223F0706373607368032143F0C0637360B1
:2006A0000B484FF4807300F0E9F8AAE7D7F80858019BC5F3C03501330193D0E70124E5E767
:2006C0000010024000100140000C0140000001400008014008B5022300211A46044800F001
:2006E000CDF84FF0E0230022C3F8082D08BD00BF00080140104B10B5D3F8E827D3F8EC174C
:20070000D3F8F0370A4400210C481A4422FA01F303F00F0303F13004392C88BF373301F181
:20072000040194BF04700370202900F1FF30EDD10022034B1A7210BD00F0FF1F73080020E1
:200740006C080020014BB3F8E007704700F0FF1F38B5064DEC68FFF7F5FFB0F5007F84BF7D
:20076000E86C044304F0350038BD00BF0020024038B504460D4600F07BF8FFF7E3FFB0F535
:20078000007F124B17D9124A944214D91A6D42F001021A65258000F06BF8FFF7D3FFB0F5CE
:2007A000007F0A4B0CD90A4A944209D91A6D22F001021A6538BD1A6942F001021A61E9E761
:2007C0001A6922F001021A61F4E700BF00200240FFFF070810B5044600F04AF8FFF7B2FF15
:2007E000B0F5007F164B1BD9164A944218D91A6D42F002021A655C651A6D42F040021A65E2
:2008000000F036F8FFF79EFFB0F5007F0C4B11D90C4A94420ED91A6D22F002021A6510BDC6
:200820001A6942F002021A615C611A6942F040021A61E5E71A6922F002021A61EFE700BFE0
:2008400000200240FFFF0708034B044A5A6002F188325A60704700BF0020024023016745C4
:20086000024A136943F08003136170470020024008B5FFF76DFFC307FBD408BD2DE9F041A9
:2008800000264FF00F0E9C46036847684CFA06F4E4071BD5072E94BF9846B846B4B24FEABC
:2008A00084048ABF203CA4B2A4B20EFA04F528EA0508A51CADB202FA05F501FA04F42C43C7
:2008C00044EA0804072E94BF234627460136102EDCD103604760BDE8F081C36801EA030223
:2008E00021EA030141EA024101617047062824D8DFE800F004090E13181D2000104B186823
:20090000C0F3406070470E4B1868C0F3C06070470B4B1868C0F340707047094B1868C0F3F3
:2009200040407047064B1868C0F340007047044B186AF9E7024B586AF6E70020704700BFD2
:2009400000100240024608B51046FFF7CFFF0028FAD008BD06282AD8DFE800F0040A0F1457
:20096000191E2400124A136843F08073136070470F4A136843F08063F8E70D4A136843F027
:200980008053F3E70A4A136843F48033EEE7084A136843F00103E9E7054A136A43F0010345
:2009A00013627047024A536A43F001035362704700100240034A536823F0030303435360F3
:2009C000704700BF00100240034A536823F4701343EA80435360704700100240034AD36A77
:2009E00023F4706343EA0023D362704700100240034AD36A23F4704343EA0033D3627047DF
:200A000000100240034A536823F4803343EA00435360704700100240034A536823F4003334
:200A200043EA40435360704700100240034A536823F4404343EA803353607047001002400C
:200A4000034A536823F4605343EAC0235360704700100240034A536823F4E06343EA002346
:200A60005360704700100240034A536823F0F00343EA00135360704700100240044B5A689F
:200A800018B142F480025A60704722F48002FAE700100240034AD36A23F00F030343D3626F
:200AA000704700BF00100240034AD36A23F0F00343EA0013D362704700100240044BDA6ACD
:200AC00018B142F48032DA62704722F48032FAE70010024010B504464378012B0CBF032093
:200AE0000420FFF737FFFFF72DFFA078FFF7BCFFE078FFF7AFFF2079FFF7A2FF6079FFF7C0
:200B000095FF207BFFF7BAFFA07900F01FFE2078FFF75AFF6078FFF775FFE07901282DD920
:200B2000FFF7B8FF207A08B1FFF7C8FF607A08B1FFF7BAFFA07A30B1FFF750FF0120FFF75F
:200B400009FFFFF7FFFEE07A30B1FFF751FF0220FFF700FFFFF7F6FE0020FFF7FBFEFFF713
:200B6000F1FE0220FFF726FF2269064B1A606269054B1A60A269054B1A6010BDFFF74CFF7B
:200B8000D0E700BF3C00002040000020440000200122430903F1804303F50433196800F0F9
:200BA0001F0002FA00F00843186070470122430903F1804303F50433196800F01F0002FACF
:200BC00000F0014319601A6822EA0000186070472DE9F0411E460368174605468846984740
:200BE000069B079A036100234261BDF82020C0E900870283084AC0E93C33C0F88020074ACC
:200C0000C0E93633C267064AC0E93833C0F8EC50C6608267BDE8F081710E0008D30E0008AC
:200C2000570F0008D0F8EC305B6A184710B4D0F8EC40A468A44610BC604737B500250446C2
:200C400003684583DB792A4629460095FFF7EEFFD4F8EC3029465B6820469847236A1BB1FE
:200C600003B0BDE83040184703B030BD10B4D0F8EC40E469A44610BC604710B4D0F8EC4093
:200C8000246AA44610BC6047D0F8EC301B691847D0F8EC309B691847D0F8EC305B69184754
:200CA00010B50268B0F84030D17904468B42C26B11D90B460021FFF7D9FF022384F8303034
:200CC0002368E26BD979B4F840300A445B1AE263A4F8403010BD0021FFF7C8FF94F848300B
:200CE000002B14BF0223032384F83030002384F84830A4F84030E363ECE72DE9F74F0446ED
:200D00000D46064600F1200A00F13C0700F1400800F14409D6F858B0BBF1000F0AD1A368F7
:200D200003BB43463A462946204603B0BDE8F04F00F04ABC2B7896F85D1096F85C200B4097
:200D40009A4203D00836B245E4D1E8E743463A4629462046CDF80090D8470128F2D803B033
:200D6000BDE8F08FE66C002EDBD02B7803F07F03402BD6D143463A4629462046B0470128FC
:200D8000CFD8ECE710B5012200210446FFF77CFF002384F8303010BD70B50368B0F84020B1
:200DA000448FDB79A41A9C42A8BF1C46C16BA6B20A44334600210546FFF75FFF864205D0FF
:200DC0002846FFF7DFFF4FF0FF3070BDB5F84030A0B21E44A5F84060F7E738B54369044667
:200DE000C3638B79CA790D4643EA0223A0F84030FFF783FF08B3EB88B3B1B4F8402021683A
:200E00009342C9790ED932B1B2FBF1F301FB1322B2FA82F25209204684F84820BDE838404D
:200E2000FFF73EBF0022F6E71A4619462046FFF71DFF042384F8303038BD2046BDE838400E
:200E4000FFF7A0BF70B5002400F1580656F834502DB10134042CF9D14FF0FF3070BD00EB40
:200E6000C40484F85C10284684F85D20A365F5E770B50025044601222946456400F134067D
:200E8000FFF70AFF628F2AB931462046BDE87040FFF7A3BF94F93430002BF5DB238B934286
:200EA00004D22046BDE87040FFF76CBF6369A4F84050E36323682946DB792046934234BFC6
:200EC000052306232A4684F83030BDE87040FFF7E3BE10B590F830300446062B13D0072B4C
:200EE00028D0052B22D1FFF757FF00280ADBB4F84020638F9B1A2268D279934202DC06231A
:200F000084F8303010BDFFF747FF0028FADB204604F13401FFF7F1FE38B1002320461A46A8
:200F20001946FFF7A3FE0423EAE72046BDE81040FFF728BF00231A461946FFF79EFE0023F4
:200F400084F83030636C1BB1204604F13401984700236364D6E710B590F830300446032BDF
:200F600007D0042B0ED0022B23D1BDE81040FFF797BE0723002280F830301146BDE81040BC
:200F8000FFF78ABE436C13B100F13401984794F8343053B994F83530052B06D1E18ED4F86C
:200FA000EC3020465B68C9B29847002384F8303010BDBDE81040FFF7E5BE08B50B786BB9D4
:200FC00049887F290BD8D0F8EC30C9B2817693F830200AB15B689847012300E000231846A2
:200FE00008BDF8B50D464988044679B103680D26587C0023984201D80020F8BD626806FBFF
:20100000032252798A4203D00133F3E74FF0FF330133DBB2E3764BB9D4F8EC302046DB6813
:201020009847D4F8D8309BB90120E6E70D22534362680D3B13440022104619799142EBD9EC
:20104000D3F809101601715801B108700132F4E7002304F1D806A3652366A366236704F185
:20106000E80756F8043B13B1204669889847B742F7D1D9E71988012984BF01211980C37E6F
:2010800011682BB142680D2000FB032313F8083C01200B70704770B51C460D23C27E5A43CD
:2010A00043680D3A13441D798A88954219D9D3F80950160105EB02124B8812799A4210D914
:2010C000AA5952B11370D0F8E83013B14A888988984700230120238070BD002BF3D01046C9
:2010E000FAE70020F8E730B50D25C47E40686C430D3C04448D88207985420CD201201880C3
:201100008B88D4F809001B011B5803B11B7801201268137030BD0020FCE719880120022916
:2011200084BF02211980002311680B7012685370704710B514461A88022A84BF02221A80B7
:201140008988C9B2FFF7A4FD003818BF0120002223681870236801205A7010BD08B58988F6
:201160000122C9B2FFF790FD012008BD08B589880022C9B2FFF788FD012008BD2DE9F04F47
:201180004C889B46E3B2240A032C16461D4689B000F0538105D8012C29D0022C35D0002492
:2011A0002FE00F2CFBD184685CB3002BF7D1D0F81490BBF80070C2F8009094F800802146DF
:2011C000B84528BFB8464846424600F099FD2378A7EB0807BFB201936B0122790293EBB217
:2011E0009A4200F2E280019BA9F80230E9E0036813601B78BBF80020934228BF1346ABF88B
:201200000030204609B0BDE8F08F4269476832600D265E43BBF80040BD5DBB19A54228BFEC
:201220002546039219462A460398059300F068FD0022039B641BBE5D2B44A4B20292059A05
:201240001179BDF80820914205D8039B5E80ABF800500124D5E7029A029912010692059AA6
:20126000D2F8092002EB0112D2F80880B8F1000F13D098F800701846A74228BF274641466C
:201280003A4600F03DFD034698F80020E41B3D4416443B44A4B2ADB2B6B200220492059ADE
:2012A0000699D2F809200A441079BDF81010884202D8029A0132C1E715200499D2F80C80AD
:2012C00000FB01F718F8079008EB0702A14528BFA1461846019208EB07014A4600F010FD4B
:2012E000034618F80720A4EB09041644019A4D44D2F80D104B44A4B2ADB2B6B2A9B1D2F895
:2013000011801846A045A8BFA0461FFA88F73A4600F0F6FC0346019AE41BD2F811203D4453
:2013200016443B44A4B2ADB2B6B20027019A1179BAB2914202D8049A0132AFE7019AC7EB9E
:201340000719D2F809A018461AF809200AEB0908A24228BF22464146079200F0D1FC034602
:20136000079AD8F80710A41A154413441AF80920A4B21644ADB2B6B2A9B1D8F80BA0184692
:20138000A245A8BFA2461FFA8AF94A4600F0B8FC0346D8F80B20A4EB09044D4416444B44ED
:2013A000A4B2ADB2B6B20137C0E7D4F80530029A039303EB020A9AF80230052B08D04FF0F9
:2013C0000008B8F1000418BF0124ABF8008018E7142F3E4628BF142609EB0803184632467D
:2013E0005146049300F08CFC102243490AF1040000F052FC049BF0B9BA1B92B2082A28BFD2
:20140000082204929819DAF8141000F079FC049A1644B6B2DDE902239B5C019A1A4493B280
:2014200001930EB9002FCAD1BF1BB044BFB21FFA88F80135D0E60026ECE747697BB90923BA
:20144000BB700423FB703B70BBF80030042B28BF0423ABF8003003237B703760F9E6D0F8E2
:20146000F030AB421CD1D0F8F440204600F0BEFC01304000C0B23870BBF80030984228BF37
:2014800018460023ABF80000BBF800205208013A9A42E0DDE15C07EB430251800133F3E7D4
:2014A000C468013D002C3FF4ACAE0369AB427FF776AE40F209438A889A427FF470AE54F8CD
:2014C0002540204600F092FC01304000C0B23870BBF80030984228BF18460023ABF8000070
:2014E000BBF800205208013A9A42B4DDE15C07EB430251800133F3E7801F0008198801205B
:20150000022984BF02211980002311680B7012685370704710B44C78092C12D8DFE804F034
:201520000D111111110F0B110905074CA44610BC6047064CFAE7064CF8E7064CF6E7064C8C
:20154000F4E7002010BC7047E30F0008751000087D1100081B110008BB0F000810B44C7862
:201560000A2C06D00B2C06D03CB9054CA44610BC6047044CFAE7044CF8E7002010BC7047AC
:20158000FD140008E71000089710000810B44C78012C04D0032C07D01CB9084C08E04C8810
:2015A0004CB1002010BC70474C88002CF9D1044CA44610BC6047034CFAE700BF33110008D9
:2015C0005D1100086D11000810B40C7814F0600F0FD104F01F04012C05D0022C06D044B95A
:2015E00010BCFFF797BF10BCFFF7B8BF10BCFFF7CDBF002010BC704708B540F29730FFF7FD
:20160000C7FA0022064B0748C3F8402CC3F8502CC3F8442C4FF41C42C3F8402C08BD00BF72
:2016200000500040780800200132521001EB4202914200D1704731F8023B40F8043BF7E79F
:20164000034670B502F00104520801EB8205A94204D114B10B7800F8123070BD31F8046B51
:2016600023F8026BF3E7FEE77047000038B51A4A1A4B1B498B421AD300211A4A93421BD350
:201680004FF0E022D2F8143D174C43F40073174DC2F8143DAC4212D3154C164DAC4212D308
:2016A000FEF77EFD144C154DAC4210D338BD52F8040B43F8040BDDE743F8041BDEE754F860
:2016C000043B9847E6E754F8043B9847E6E754F8043B9847E8E700BFC41F000800000020E5
:2016E0004800002094090020C41F0008C41F0008C41F0008C41F0008C41F0008C41F000843
:201700004FF0E02320F07F40586170474FF0E022136900F0040023F004030343136170470C
:201720004FF0E022136943F00203136170474FF0E022136943F00103136170474FF0E02328
:20174000014AC3F80C2DFEE70400FA05034A136823F0070303431360704700BF00200240EC
:20176000024B41F08001C3F84C1C7047005000403E2A14D9013AC2F3441302F4787202F191
:20178000200043F02003094A9B02D2F8502C9BB292B202EBC101064A490053507047013237
:2017A000530822F0010290B2EDE700BF005000400C6000402DE9F34106464FF40070ADF8BA
:2017C00000004FF48060ADF802000020ADF804004FF4C06001F07F084FEA880404F180441D
:2017E00004F5B844ADF80600206802AD20F4E04020F07F0040EA080080B22060206805EBF3
:20180000420232F8082C20F4EC4020F07000104349B280B20029089F20604FEAC80C2DDB81
:20182000B8F1000F2AD02F4AB18BD2F8502C304692B294442C4A4FEA4C0C42F80C101A46AC
:201840004146FFF795FF002F45D1236823F4415323F030031B041B0C2360236823F4804388
:2018600023F070039BB283F4405343F4004343F080032360B38B1844B08329E01948B28B64
:20188000D0F8500C80B26044400000F1804000F5C04002601FB10C2000FB08608767206831
:2018A0001A4420F4E04020F030000004000C20602568002925F4E04525F04005ADB285F0A4
:2018C000200545F4004545F080052560B283AADA02B0BDE8F0810C2101FB0868C8F87C7060
:2018E000B3E700BF005000400860004048F2800170B50B4A0B4E0C4D0C4C136833400B43DC
:201900009BB2136013682B400B439BB242F8043BA242F2D10368DB7920335B00838370BDC6
:20192000045C0040BF8FFFFF8FBFFFFF205C004010B5002935D1002A14BF102420242C48D6
:20194000D0F8003C23F4E04323F0400363401BB243F4004343F080039BB2C0F8003C890089
:2019600001F1804101F5B8413AB90B6823F4415323F030031B041B0C0B60002A14BF4FF47D
:2019800080524FF440520B6823F4804323F0700353401BB243F4004343F080039BB20B6085
:2019A00024E00B06DBD5002A14BF1022202201F07F034FEA830303F1804303F5B843196894
:2019C00021F4E04121F0400182EA010212B242F4004242F0800292B21A6007D11A6822F4F2
:2019E000E04222F030021204120C1A6010BD00BF005000400B060ED501F07F01890001F1D7
:201A0000804101F5B841086800F03000102814BF002001207047890001F1804101F5B84158
:201A2000086800F44050B0F5805FF0E70B0612D40B4B0C485A54890001F1804101F5B841DD
:201A40000B6803409BB23AB183F4005343F4004343F080030B60704783F44053F6E700BFD6
:201A60008C0900208FBFFFFF2DE9F0410C461E4604F07F039D0005F1804505F5B84511464C
:201A80002A6802F03002302A2CD0DFF85C803246D8F8504CDF00A4B204EBC304640004F15F
:201AA000804404F5C0442088400000F1804000F5C040FFF7B9FDD8F8503C9BB21F440B4BC9
:201AC0007F00DE51296821F4E04121F0400189B281F0300141F4004141F08001296030463B
:201AE000BDE8F0810026FAE70050004004600040F8B58D0005F1804505F5B8451C462B68B4
:201B00000E4603F44053B3F5405F10463FD0214FCA00D7F8503C9BB203EBC1031E495B00E5
:201B2000CB58C3F30903A34207DAD7F8503C9BB213445B00CC58C4F30904164BD3F8503C00
:201B40009BB21A44154B5200995A2246490001F1804101F5C041FFF773FD2B6823F0F003DB
:201B60001B051B0D43F080032B600D4B9B5D63B9296821F4804121F0700189B281F4405146
:201B800041F4004141F0800129602046F8BD0024FBE700BF005000400C60004008600040D0
:201BA0008C0900203B4AF8B5D2F8443C04465F059EB209D54FF6FF33C2F8443C40238383FE
:201BC000BDE8F840FFF739B81D041ED503F00F07BD0005F1804513F0100305F5B8453DD092
:201BE0002B68190543D50823394600F13402FFF77FFF022307EB470213441E3354F8233030
:201C0000002B36D0394620469847320507D54FF2FF72204BC3F8442C636A03B19847F3041D
:201C200007D54EF6FF721B4BC3F8442CA36A03B1984716F4007F174D06D04FF6FF52E36A3C
:201C4000C5F8442CF3B19847E36ADBB1114AD2F8403C43F40073C2F8403CF8BD2A6822F021
:201C6000F0021205120D42F400422A60C2E70123C0E72B6823F0F0031B051B0D43F080032F
:201C80002B60C2E7D5F8403C23F40073C5F8403CE3E700BF00500040032A10B516D940EAE0
:201CA000010C1CF0030F04460B4622D119462046D1F800E0D0F800C00433F44504F1040408
:201CC00017D1043A032A20461946EFD8541EA2B100F1FF3C013901E0C3180CD01CF801EF5E
:201CE00011F8012FA4EB0C039645F5D0AEEB020010BD541EECE7184610BD104610BD00BFB3
:201D0000844641EA000313F0030349D1403A23D30B6803604B6843608B688360CB68C360E0
:201D20000B6903614B6943618B698361CB69C3610B6A03624B6A43628B6A8362CB6AC362DB
:201D40000B6B03634B6B43638B6B8363CB6BC36340304031403ADBD230320BD30B680360F5
:201D60004B6843608B688360CB68C36010301031103AF3D20C3205D351F8043B40F8043B3C
:201D8000043AF9D2043208D0D2071CBF11F8013B00F8013B01D30B8803806046704700BFF9
:201DA000082A13D38B07B1D010F00303AED0C3F10403D21ADB071CBF11F8013B00F8013B97
:201DC000A4D331F8023B20F8023B9FE7043AD9D3013A11F8013B00F8013BF9D20B780370EC
:201DE0004B7843708B7883706046704720F0030110F00300C0F1000051F8043B00F1040CC9
:201E00004FEACC0C6FF000021CBF22FA0CF213434FF0010C4CEA0C2C4CEA0C4CA3EB0C0221
:201E200022EA030212EACC1204BF51F8043B0430F4D0C2F1000102EA0102B2FA82F2C2F1FE
:201E40001F0200EBD2007047426C61636B204D6167696320446562756700426C61636B200B
:201E60004D616769632050726F626520444655202853542D4C696E6B2F7632292076312ECB
:201E8000392E302D3838302D676537336537383961000000481E00085A1E00086C0800208B
:201EA0000500002009020000010100C032C41E00081201000200000040501D1760000101D9
:201EC00002030100000000000100000000000000D41E00080904000000FE010204000000EF
:201EE00000E91E00080900000009210BFF0000041A0100000401000400020200000000006A
:201F00000000000000A24A040051250200A24A040701000400020201000000000000000058
:201F200000A24A040051250200A24A040701000400020204010406000000000000A24A043A
:201F40000051250200A24A040101000000000000000000000000000000366E0100366E01CD
:201F600000366E010701000400030200000000000000000000A24A040051250200A24A0453
:201F8000DF60DDD88945C74C9CD2659D9E648A9FF915000861170008B5170008ED1800085A
:201FA000311900082D1A0008F5190008691A0008F11A0008A51B0008000000000000000004
:201FC00000000000002000080240496E7465726E616C20466C6173682020202F30783038AD
:201FE0003030303030302F382A3030314B612C3030302A3030314B6700000000FFFFFFFFCE
:020000040800F2
:202000000050002025710108217101081F7101081F7101081F7101081F71010800000000B2
:20202000000000000000000000000000217101082171010800000000217101084B4A010831
:202040001F7101081F7101081F7101081F7101081F7101081F7101081F7101081F710108B8
:202060001F7101081F7101081F7101081F7101081F7101081F7101081F71010841460108A1
:202080002D5D0108D55C01081F7101081F710108955501081F7101081F7101081F71010883
:2020A0001F7101081F7101081F7101081F7101081F7101081F7101081F7101081F71010858
:2020C0001F7101081F7101081F7101081F7101081F7101081F710108A95C01081F710108C3
:2020E0001F7101081F7101081F7101081F7101081F7101081F7101081F7101081F71010818
:202100001F7101081F7101081F7101081F7101081F7101081F7101081F7101081F710108F7
:202120001F7101081F7101081F7101081F7101081F7101081F7101081F7101081F710108D7
:202140001F7101081F7101081F7101081F710108836818470021C368184710B40469A4460B
:2021600010BC604743689B69184710B404691346A4460A4610BC00216047436813B51C6A8D
:2021800004230A460DEB0301A047019802B010BD73B504460B460D46082200210669B04706
:2021A00094F82930072B0ED1084B20215B6801A898470121E368204698472B4608220021DC
:2021C00020462669B04702B070BD00BFEC29002070B50D4604461646017A05F0F003406817
:2021E00043EA0161FFF7D4FF324629466068BDE87040BAE738B50D460446017A05F0F003F5
:2022000043EA01614068FFF7C3FF29466068BDE838409DE790F8302012B10421436918472C
:2022200098E71FB543680A461C6A69461023A0479DF808309DF804001B0443EA00239DF897
:20224000000003439DF80C0043EA006004B010BD03681BB941680A6801320A6001330360FB
:202260007047036810B5013B0446036063B940680368013B05D003602046BDE8104015F08B
:20228000F5BC15F0F3FCF7E710BD70B50C4601F57D610646FFF7C5FF054604F57E61304604
:2022A000FFF7BFFF294670BD2DE9F34721F47F6626F00F0604461746002E6DD006F57F616C
:2022C000FFF7AFFF0190606890F82980B8F1000F62D1FFF73FFF00285ED1019B4C4A23F411
:2022E0007043934258D1019B31462046C3F30339FFF7CBFF10F4002F4FEA103525D0090251
:2023000001F4706105F07F030B43B3F5846F21D040F25552934208BF2023B9F1010FC0F381
:202320000B053CD1C7B923846584226A394B9A4212D120463849FFF720FFC2030CD5204699
:2023400002B0BDE8F04703F063B905F07F0343F40043E2E72023E0E7B046DFF8C0A006F5F4
:20236000706901376068FFF7F5FE41462046FFF704FF05466068FFF7EDFE68B965B1EB0798
:2023800006D505EA0A013A4620463144FFF78CFF08F10408C145E5D102B0BDE8F08740F2CB
:2023A0003B42934203D040F675229342F4D1B9F1090F1FD106F6CC712046FFF7DEFE06F672
:2023C000BC715FFA80F82046FFF7D7FE034610F4801000D098B2124B9A79032ADCD01988ED
:2023E000A94205D19978414502D19988814203D00833F1E70020EEE7012AA0D0022ACBD190
:202400003146204602B0BDE8F04702F055B800BF0D0005B11F00D00C0021004100F0FFFF85
:2024200078A5010870B505460C468AB02422002101A815F0CDFC4FF4FE7101A802958DF825
:202440000C40FFF78FFE4FF4FC71049001A8FFF789FE0590013003D1002630460AB070BD26
:20246000049B002BF8D04FF4807101A8FFF77AFE20F0804323F0370343F000430693030647
:20248000EAD4242015F0EAFB06460028E5D0054601AC0FCC0FC50FCC0FC5236830462B6045
:2024A000FFF7D6FED9E770B50446104601280D46626914D00238012894BF42F0120242F074
:2024C0001002636820464FF48071DB6998472B4660684FF48272BDE8704000213DE642F027
:2024E0001102EEE7012B0FD007D9991E012912D9012202FA03F31844704701F00301C90057
:2025000022FA01F10170F3E701F00201C90022FA01F10180ECE70260EAE72DE9F74F0E4660
:202520009907154616BFDC43022404F00104AA0718BFEA4307460CBF022202F00102002B7C
:2025400053D09442A8BF14465FFA84FAE340524629460093FFF7A7FF00234FF48672012111
:202560007868FFF7FAFD0123AB46A846A340DDF800900193B9F10109786812D1009B0C226F
:20258000013B03FA04F401214B46FFF7E6FD2544024653462946304603B0BDE8F04FFFF7C2
:2025A000A1BF00234FF486720121FFF7D6FD5346024641463046FFF795FF019B0C4A98443C
:2025C0008BEA080313420646D4D043464FF4827200217868FFF7C1FD00234FF48672012141
:2025E0007868FFF7BAFDC346C4E703B0BDE8F08F00FCFFFF30B523B1012B0DD00868106027
:2026000006E00D7800F00304E40005FA04F4146001209840084430BD0D8800F00204F3E772
:202620002DE9F74F0C469DF830801546424623FA08F70646FFF737FF0123A146DFF854B04A
:2026400003FA08FA2FB90C21706803B0BDE8F04F7EE5002329462046019301AA4346FFF7DE
:20266000C9FF5444019B05464FF4867200217068FFF773FD89EA040313EA0B0F07D02346A8
:202680004FF4827200217068FFF767FDA146013FD8E700BF00FCFFFF73B59D0716BFDD4350
:2026A000022505F001058C0716BFCC43022404F001044668A542D4BF00950094746AA0474C
:2026C00002B070BD944B2DE9F04FC361934BA7B08361934BCDE901010362924B436200230A
:2026E00005930B934FF0FF330D938F4B0EA81A6825920BAA1A6015F09FFC28B98A4C8B4E6B
:202700000BAD2368AB4207D00B9B83B1019815F0ADFA27B0BDE8F08F029BB34204D0002111
:202720000198FFF715FD0590259B2360E9E7059B019AC3F3033382F83030BBB1059BDC0760
:2027400014D5059A019902F47063C2F346021343019A5386059AC2F307528A86059AC2F3B6
:20276000004281F831200BB90B638B860198FFF751FD019B93F83030012B22D90222082132
:202780000198FFF7F2FC04210198FFF7E1FC0446002201980821FFF7E8FCC4F3460204F42C
:2027A00070631343019A92F82A00D386230B24F0704424F0010444EA007444F001041387C4
:2027C000D462019B5A8E40F613139A420ED1019B9B8E022B0AD12421012014F0EBFF0028DF
:2027E00097D0019A42600AF0A9FC92E7002306930B9302230D934C4B0EA81A6825920BAAC3
:202800001A6015F019FC28B90426474C0BAD2368AB421FD00B9B2BBB07ACC921204612F0D6
:20282000D9F8069A0421019842F0A042FFF79DFC042529460198FFF78BFC0690069B03F0EE
:202840002043B3F1204F18D0204612F0CEF80028EFD05BE731460198FFF77AFC0690259BF1
:202860002360D4E7019B01215B690198984704210198FFF76DFC0690CEE707ACC8212046B6
:2028800012F0A8F8069A0421019842F08062FFF76CFC042529460198FFF75AFC0690069B12
:2028A000180104D4204612F0A0F80028F2D0069A0421019822F08062FFF757FC019BDB8E9D
:2028C000152B25D00027B846019B019A1B68DFF860900133DFF85CA013600198F9B2FFF769
:2028E000A1FD044640BB019808F10108FFF792FCB8F1080F03D00137B7F5807FEDD1019B06
:20290000019A1B68013B1360002B7FF402AFFDE6019807F024FED5E7D1210008F521000832
:202920001B25000821260008940100207704A04BF0ED00E003005FA008F012FC204609F0C1
:202940008DF9204603F0ACFD204607F087FF257A8DBBE36803F00F03012B2CD104216068BF
:20296000FFF7F6FB544B064619680AA812F032F8626963684FF480712046DB6942F002027C
:2029800098474B464FF4827229466068FFF7E5FB4FF486722946494B6068FFF7DEFB0C2181
:2029A0006068FFF7D5FB46F47F0646F470460AA812F01BF878B1002220462169FFF774FC72
:2029C0003F4B404E1D68DFF800B1002D60D12046FFF747FC8FE7606890F8311041B3534641
:2029E0004FF4867200216068FFF7B7FB00234FF4867201216068FFF7B0FB0346606890F889
:202A000031202AB100230C220121FFF7A6FB0346591CCCD023F07F6222F00F12002AC6D13E
:202A20009A010AD54DB9274B1B7853B90125BEE733460422FFF791FBD1E7244A32EA0303D1
:202A4000B5D100266368224D83F8296029462046FFF793FB1F4B2946A06108932046042331
:202A600008AAFFF719FE144B09AD2846196811F0B1FF304611F064FE49462046FFF77DFBA6
:202A8000830198D5284611F0B0FF0028F4D092E7317811B1D5F8F05097E7D5F8F8305B4537
:202AA000F8D12846039102F0AFFD84420399F1D1284611F0B6F9EDE70000002001005FA077
:202AC000C4080020900100207147000801000200FCED00E00104000113B504464B0FC90092
:202AE000CDE9001390F82800082105F0ABF823236A46002194F8280005F0E2F802B010BD83
:202B0000003918BF012170B5054641EAC301580F530803F00603194386B012F4807FCDE919
:202B2000021014BF0B210A2195F8280005F08AF8FA2101A811F04EFF232395F8280002AA74
:202B400004A905F0BDF8049C059BE60801A846EA437604F0070411F048FF40B9012CEBD036
:202B6000022C0DD00120084903F0CCFC08E0012CF6D10026214628466B69984785F82940AD
:202B8000304606B070BD00BF10A8010810B504460A4600230121FFF7B3FF2046BDE81040B5
:202BA00000230C220121FFF7ABBF38B504218368044698470021054B04220340256920464E
:202BC00084F82910A84700F0320038BD320000F0F8B53C210546012014F0ECFD044600B3B8
:202BE0001427104B104E8360104B80F82850C3600F4B03610F4B436107FB05635A680E4B4F
:202C00009A420AD10021FFF7D0FF07FB056520466968BDE8F840FFF755BD0421FFF75CFF19
:202C2000F3E7F8BD8D2B000834020020AB2B0008012B0008D92A00087704A04B10B404693B
:202C40001346A4460A4610BC0021604710B5064C2021A3684FF0FF309847A3682021BDE8AC
:202C600010406FF070401847EC2900200A460021E4E773B5044600230A460D46066901215C
:202C8000B04794F82930072B0ED1084B20215B6801A898470121E3682046984700232A4623
:202CA000012120462669B04702B070BDEC290020CB0570B504460AD5FFF7DBFF2569204610
:202CC000AC46BDE8704000230C2201216047BDE87040CEE711F4807F0CBF8123A32308B197
:202CE00083F0240301F00C01042943EA410001D0082901D180F02000704770B50C4D0E46B4
:202D000001460020FFF7E6FF0821AB6898472B68032098470446EB68304620219847082165
:202D20000020AB689847E0B2013818BF012070BDEC29002073B50C4E01460120FFF7CAFFB3
:202D40000821B36898473368032098470024054620217368019401A8EDB29847012D14BF6B
:202D60002046019802B070BDEC29002038B590F830300446012B02D990F8293003B961B16B
:202D8000FFF764FF94F83030012B03D90C20E16AFFF7B3FF0020FFF7CDFF0420FFF7CAFF02
:202DA00010F0020118BF1021C30648BF41F00201820648BF41F00401030600F0B20505D5B5
:202DC00041F008010020FFF798FF01E00029F9D10023284684F8293038BD2DE9F7439846AF
:202DE000D3050E460546114602D590F8293033BB3046FFF76FFF00238146FA2101A8009344
:202E000011F0E8FD224F08214846BB68984703203B689847C4B2042C36D11E220021284681
:202E2000FFF70CFF01A811F0E0FD0028EBD0022C07D1012128466B69984785F829400020D8
:202E400016E0042CF9D0072CF7D0012C03D00120104903F057FB76B1202168467B689847F2
:202E600028B101200C4985F8290003F04BFB009803B0BDE8F0834046FB682021984708218F
:202E80003046BB689847F2E7022CCBD0DBE700BFEC29002024A8010834A8010870B5054638
:202EA000B2B010F019FE3C22002108A814F090FF964B974C0993974B0A93974B0B93974B96
:202EC0000C93974B0D9308AB009312F009FB012011F04EFD20214FF0FF30A368984720213E
:202EE0004FF0FF30A36898472021A3688D4898472021A3688C4898472021A3688B4898477D
:202F00002021A3688A489847A3680C214FF4D07098470395039B002B40F092800193FFF7ED
:202F200095FE019B1AA8049317934FF0FF331993804B1A68319217AA1A6015F07DF820B9A4
:202F40007C4C17AD2368AB4232D0179B23B9009B93F82930002B42D06D4C20214FF0FF30B9
:202F6000A368984720214FF0FF30A36898474EF29E70A36810219847FFF768FE0023009A4C
:202F8000179382F829304FF0FF331993694B1AA81A68319217AA1A6015F04EF820B9654CCC
:202FA00017AD2368AB420CD0179898B1002045E0009B00219B6808A898470490319B23608B
:202FC000C0E7009B00219B6808A898470490319B2360E6E7009B93F82930002B2ED1049B04
:202FE000C3F3073313F00E0F15D001220192009A03F00F0382F830300821022208A8FFF7BA
:203000001DFE04210A9B08A8984700220390082108A8FFF713FE019B002B0CBF01231023BE
:2030200005930023069308AB069A0093059B9A420AD3414B1868003818BF012032B070BDB2
:20304000012301931023EBE7019B002B3ED00024009B83F82940FFF7F9FD069B03990C20E6
:2030600021F0704121F0010141EA0371009B41F001015B6898474FF0FF332E4A079417943D
:20308000199313681AA8319317AB136014F0D4FF20B917AC274B1B68A34204D0179B6BB15F
:2030A000069B0133BEE7002301211A460C9D08A8A8470790319B1F4A1360EBE7009B93F872
:2030C0002930002BECD1079B002BE9D03C21012014F070FB06460028E2D0044608AD0FCD3B
:2030E0000FC40FCD0FC40FCD0FC495E8070084E80700069B3046042186F82A3073699847D9
:2031000000213046FFF7DEFACAE700BFFB2C0008EC290020B12C00086D2D0008DB2D0008DF
:203120006D2C000892F30962952D8586E9AFDDE3A20EBC1994010020C4080020012910B5C4
:203140001346074C05DD00225868114615F0B6FE20602168034804F07EF9012010BD00BF83
:203160000000002045A8010808B5064B196821B1054804F070F9012008BD044804F03CF9D3
:20318000F9E700BFBC080020BEAA010874A8010801292DE9F8430F46904649DD5068037817
:2031A000303B092B44D80022114615F087FE2B4B002806464FF0020508BF1E46BD4247DAD6
:2031C00058F82540204615F0EFFA25490246204615F040FB044600283AD1012D0CBF0223EF
:2031E0000323BB4236DA4FF001090135AF4222D831461C4804F02FF91B4804F02CF91F257B
:203200001A4F24FA05F1384601F0010104F023F9013DF6D2164804F01EF92146304611F063
:2032200053FA1449144804F016F90120BDE8F88301250A4EC2E7002258F82500114615F02A
:203240003DFE1F289CBF09FA00F004430135CDE70024CDE74FF0FF34CAE700BF105522002C
:2032600080A8010887A8010896A80108CAC1010889AB010860290020A5A80108012913464B
:2032800010B512DD00225868114615F017FE044610F022FC012011F053FA204611F0C8FB26
:2032A000002011F04DFA012010BD0024F0E708B5054B00215B6801209847002211461046FD
:2032C000FFF7DCFF012008BDCC29002010B5094804F092F8084804F08FF80021074810F053
:2032E000C5FB044620B9064804F086F8204610BD0120FCE7D0A80108E4A80108053300089E
:20330000F4A801082DE9F043064685B008460D4610F013FD0028284614BF4FF02A094FF073
:20332000200910F002FE0446284610F0FCFD174915F05CF9D8B9284610F0F5FD074628464D
:2033400010F0F6FD8046284610F0F5FD104B4A46002C08BF1C463146CDE901043B460D480C
:20336000CDF8008004F077F805B0BDE8F083284610F0D9FD064A0346002C08BF1446314637
:203380004A460548009404F066F8EDE70EA9010817AC01081BA901084FA9010802291346B8
:2033A00013B518D100225868019201A90A2215F085FD019C2CB9104804F04DF8204602B05F
:2033C00010BD23784D2B10D06B2B02D14FF47A73584311F05BFB11F073FB431C014606D1B6
:2033E000064804F038F80120E9E7054BF0E7054804F031F8F7E700BF5FA90108A3A90108D6
:2034000040420F00B3A9010870B59EB011F062FA002831D12F4B1B7813B1012011F090F940
:2034200000204FF0FF33039005932B4B01901A6806A81D9203AA1A6014F0FEFD30B9264C69
:20344000264D274E226803AB9A421CD0039B012B2DD0022B02D1234803F0FDFF019B5BBBB1
:20346000184611F085FA019811F06AF91E4803F0C3FF01981EB070BD11F02CFA01461B48F1
:2034800003F0E9FFC6E704F0E7FA01900028DDD1284603F0B1FF0198FFF700FD0190002812
:2034A000D4D1304603F0A8FF1D9B2360CAE704990F4803F0D0FFD1E7002211461046FFF738
:2034C00005FF002011F054FA0021084607F0FCFE0120CFE79001002094010020DFA901084B
:2034E00008AA010826AA010863AA0108CBA9010854AA01081346002230B501299FB0029231
:2035000004DD1146586815F0D9FC029011F0E2F900282FD1284B1B7813B1012011F010F94E
:2035200000204FF0FF3303900593244B01901A6806A81D9203AA1A6014F07EFD20B91F4C06
:2035400003AD2368AB421CD0039B012B20D0022B02D11B4803F07FFF019BF3B9184611F022
:2035600007FA019811F0ECF8164803F045FF01981FB030BD11F0AEF90146134803F06BFF3B
:20358000C8E70298FFF78AFC1D9B01902360D8E704990E4803F05FFFDEE700221146104603
:2035A000FFF794FE002011F0E3F90021084607F08BFE0120DCE700BF90010020940100208E
:2035C00026AA010876AA0108CBA9010854AA010830B59FB011F07EF900282FD1274B1B788C
:2035E00013B1012011F0ACF800204FF0FF3303900593234B01901A6806A81D9203AA1A6080
:2036000014F01AFD20B91E4C03AD2368AB421CD0039B012B1FD0022B02D11A4803F01BFF10
:20362000019BEBB9184611F0A3F9019811F088F8154803F0E1FE01981FB030BD11F04AF96D
:203640000146124803F007FFC8E704F005FA1D9B01902360D9E704990D4803F0FCFEDFE7FD
:20366000002211461046FFF731FE002011F080F90021084607F028FE0120DDE7900100209A
:203680009401002026AA01088AAA0108CBA9010854AA010870B5044638B143681B6823B979
:2036A000204610F0D5FC012070BD084803F0A4FE074D084E296811B9002CF1D1F3E7AA68C1
:2036C000304603F0C8FE0C35F4E700BFA4AA0108C8AF0108B7AA010808B5084803F08CFE15
:2036E00011F028F80146064803F0B5FE054803F083FE054803F080FE012008BDC2AA010894
:20370000F6AA01080DAB01083BAB01082DE9F3411446054630B91A4803F06EFE012002B0E4
:20372000BDE8F081052926D110220021606815F0C5FB102206460021A06815F0BFFB1022D6
:2037400007460021E06815F0B9FB102280460021206915F0B3FB044643463A46314600904B
:20376000084803F078FE43463A4631462846009410F070FBD2E7044803F06DFECEE700BFCC
:203780008BAB010899AB0108DFAB01082DE9F0470E4682B0054600AF084615F005F8324675
:2037A0000123304482421CD100249B00073323F007033046ADEB030D21493A1D7C60E846C1
:2037C00015F0CAFA1E4EA0B91E4ED6F80090B9F1000F17D18DB342462146284610F0F9FB5F
:2037E00019E012F8011B202901D00929DAD10133D8E748F82400314600203A1D15F0ACFAC3
:203800000134E0E75CB94246214628467368984780F00100C0B20837BD46BDE8F087D8F86F
:2038200000A0504614F0C0FF49460246504615F011F80028E7D00C36C7E74FF0FF30EAE706
:2038400015AC0108C8AF010870B506460D4614F0ABFF044688B102460A49304614F0FAFF1B
:2038600010B90120287070BD22463046064914F0F1FF10B928700120F5E7044803F0BCFD22
:203880000020F0E718AC01081FAC010827AC0108012908B50CD0022906D10B495068FFF7ED
:2038A000D3FF28B9012008BD084803F0A5FDF9E7054B074A1978074B0748002914BF114684
:2038C000194603F0C8FDEDE79001002069AC010858AC010860AC010886AC01084368DB69E2
:2038E00018470022D0F8F43093F8E60083F8E6207047D0F8F430C26903F1080014F0F2B9F0
:2039000003460846D3F8F410DA69083114F0EAB92DE9F74F2F4B304A1B680C4601932F4BEB
:2039200007461B68264600932D4B4FF000081B6814F01AFD0546DFF8AC9004B1661B43463E
:2039400078194A46314614F00FFD08F10108B8F10D0F0544F1D1DFF89080DFF890B008F1F6
:203960000409CA46224A18F8013B04B1661B5BF8233078190093314659F8043B14F0F4FC77
:20398000D0451B4A0544EED104B1661B78193146184A14F0E9FC4FF00008DFF85C900544C9
:2039A00004B1661B434678194A46314614F0DCFC08F10108B8F1100F0544F1D104B1661BC9
:2039C00031460E4A781914F0CFFC284403B0BDE8F08F00BF580000207CB001085C0000208D
:2039E00060000020B5B00108BCB101084C000020D4B00108F4B0010843B101086FB1010897
:203A0000002138B50846FFF783FF451C284614F025F9044610B12946FFF77AFF204638BD9D
:203A200010B50C46112C1146D0F8F4001ED007DC102C19D0002C0CDA00204FF0FF340CE099
:203A4000A4F112020F2AF7D8083C00EBC400082403E0023400EB840004249C4208D82246C0
:203A600014F040F9204610BD4830F5E74C30F3E74FF0FF34F6E710B5044611291046D4F872
:203A8000F4401FD007DC102919D000290CDA00214FF0FF340CE0A1F112020F2AF7D8083981
:203AA00004EBC101082403E0023104EB810104249C420AD8224614F015F9204610BD04F118
:203AC0004801F4E704F14C01F1E74FF0FF34F4E770B51546D0E90026304602EB81024FF4D3
:203AE0008271FFF7FBFE70682B4604694FF48672A446BDE8704000216047002370B59EB056
:203B0000039302230593114B01901A6806A81D9203AA1A6014F090FA28B901260B4C03ADC2
:203B20002368AB4207D0039B1BB10949019810F07AFA1EB070BD019B3246D3F8F40024215A
:203B4000FFF7C6FF1D9B2360EAE700BF9401002083B1010870B50B790646012BD0F8F450C0
:203B60000C691BD005D9023B022B4FF0010028D970BDCB68022B04D0042B0AD04FF0FF3084
:203B8000F6E78968A2B210F0FFF9304610F0CFF8EEE72246896810F0DEF9F6E7B5F8D4204B
:203BA000A34022EA030304F1500100222846A5F8D43089B2FFF78CFF0CB9C5F8D840002023
:203BC000D6E7B5F8E430A04023EA000004F17001A5F8E4000022284689B2FFF779FFEEE785
:203BE00038B504460D46D0F8F4002021FFF770FF044AD4F8F40042EA05322121BDE8384009
:203C000066E700BF150E10EE2DE9F04104460026D0F8F450DFF8948005F1500701212046F4
:203C20007A68FFF7DDFF0021204657F8082BFFF7D7FF46EA08022121D4F8F4000136FFF792
:203C400047FF102EEAD1EA6C00212046FFF7C8FF2121174AD4F8F400FFF73AFFAA6C0021C2
:203C60002046FFF7BDFF2121124AD4F8F400FFF72FFFAA6C6B6CC2F340121A4300212046D2
:203C8000FFF7AEFF21210C4AD4F8F400FFF720FF00260835F1B2204655F8042B0136FFF7FF
:203CA0009FFF0F2EF6D1BDE8F08100BF100B41EC100AE1EE00F02FE100F0A0E170B5D0E90D
:203CC0000024204602EB81024FF48271FFF706FE606800234FF4867201210569A84760684D
:203CE000002304690C22A446BDE87040012160472DE9F04F83B098460446D0F8F43002F070
:203D0000030A08F1030500AF55447B6025F00303073323F00703ADEB030D22F00302894672
:203D20000021FFF75DFF2221D4F8F400FFF7C6FFEB4620F440162221D4F8F40046F4001268
:203D4000FFF7C6FE214A2121D4F8F400FFF7C0FE2321D4F8F400FFF7B1FF5A4625F0030521
:203D60005D44AA4221D142460BEB0A01484613F0B9FF2221D4F8F40046F48012FFF7A8FE87
:203D80002221D4F8F400FFF799FF430617D504222421D4F8F400FFF79BFE01237A6882F823
:203DA000E6300C37BD46BDE8F08F2321D4F8F4003A60FFF783FF3A6842F8040BD1E7232186
:203DC000D4F8F400FFF77AFFEBE700BF015EB0ECF8B50446D0F8F4600FF0A9FF2221D4F85F
:203DE000F400FFF76BFF20F440122221D4F8F40042F48312FFF76CFE204610F009F80A2743
:203E000010F05AFD054688B10025D6F8D030AB4216D80020A6F8D400C6F8D80010F090FC45
:203E200001250BE0C82010F003FEE9E7014620460FF0F2FF0028E7D1013FF3D12846F8BD14
:203E400005F150010022D4F8F40089B2FFF740FE0135DAE700B54DF60D729FB02349019010
:203E600010F079F822490122019810F074F8012010F066FC002010F063FC4FF47A7102A864
:203E800010F0A8FD002303934FF0FF33194A0593136806A81D9303AB136014F0CDF8F8B1EC
:203EA00002A810F0A2FD10B9039B012BEAD0039B012B03D10398049902F024FB642010F001
:203EC000B7FD0198FFF784FF1FB05DF804FB019B0021D3F8F400FFF7F1FE1D9B054A13601E
:203EE000044B03AA1B689342F1D0D9E7080000F8000200F89401002073B504460025D0F8DF
:203F0000F460D6F8D030AB4228D82046FFF77CFE2121D4F8F400164AFFF7DAFDC82101A8FB
:203F200010F058FD2221D4F8F400FFF7C7FEC301054604D401A810F058FD0028F2D0D4F8D3
:203F4000F40025F4C0422221FFF7C2FD06222421D4F8F400FFF7BCFD02B070BD05F1500158
:203F60000022D4F8F40089B2FFF7B2FD0135C8E7150F07EEF7B504460E46D0F8F450002902
:203F800053D0D5E9112399064CD512F0020F0CBF60274FF4C07722F0030240212846FFF791
:203FA00097FD47F4800242F007025021D4F8F400FFF78EFD2046FFF727FE2121D4F8F40040
:203FC000204AFFF785FDC82101A810F003FD2221D4F8F400FFF772FEC201054604D401A875
:203FE00010F003FD0028F2D046B345F400652221D4F8F40025F40052FFF76AFD0622242108
:020000040800F2
:20400000D4F8F400FFF764FD2221D4F8F400FFF755FE830704D401A810F0E7FC0028EDD06A
:2040200003B0F0BD4FF4F077B5E7D5F8DC2040212846FFF74DFDD5F8D820B6E725F4006522
:20404000D5E700BF150F07EE2DE9F84304460F4616461D466BB1194311F003013A46D0F858
:20406000F48025D00D21FFF7BBFD2A4F3544B54201D1BDE8F8830021204616F8012BFFF769
:20408000AFFD3A462121D4F8F400FFF721FD2221D4F8F400FFF712FE4206E8D50422242165
:2040A000D4F8F400FFF714FD012388F8E630E0E7FFF796FD2221D4F8F400FFF7FFFD20F426
:2040C00040172221D4F8F40047F40012FFF700FD2121114AD4F8F400FFF7FAFCB14659F8B5
:2040E000042B2021D4F8F400FFF7F2FCA6EB0903EB42F4D12221D4F8F40047F48012FFF757
:20410000E7FC2221D4F8F400FFF7D8FD4306B0D5C4E700BF0100CDE4015EA0EC10B504460A
:20412000064AD0F8F40042EA01322121FFF7D0FCD4F8F4002321BDE81040BFE5150E00EE62
:204140002DE9F04791F804C00646BCF1010F0D46D0F8F47046D022D9ACF10203022B00F26B
:20416000D8800021D7F8E0308B421DD0B7F8E42042FA01F414F0010440F09F8001238B4002
:2041800013432961A7F8E430EB68022B00F09780042B00F0B580012B06D1202290E0CB68C9
:2041A000022B04D0042B13D04FF0FF340DE089680FF0DBFE4FF43E422861A96830460FF0F2
:2041C000E3FE30460FF0B3FD04462046BDE8F08789680FF0B3FE504A2861A96830460FF0C3
:2041E000BAFEEEE7CB68042B01D0022BDCD14FF00008D7F8D0304345D6D0B7F8D42042FA02
:2042000008F414F001044FD14FF0010AD5F808900AFA08F3134321464A463046C5F81080BB
:20422000A7F8D430FFF7DCFC21213C4AD6F8F400FFF74EFC21213A4AD6F8F400FFF748FC81
:2042400021463046FFF76AFFC30730D42B7B20F47F6020F00F00C9F30B09042B40EA09006A
:2042600028D010F0020F0CBF4FF060094FF4C0791FFA88FA20F003050AF140012A46D6F819
:20428000F40089B2FFF724FC49F007090AF150014A46D6F8F40089B2FFF71AFCB8F1000FF3
:2042A00093D1C7E9369590E708F10108A3E787F8E6A0CBE74FF4F079DAE7013154E7602209
:2042C000AB68BCF1030F03F0030302FA03F21AD0BCF1040F1AD042F017021FFA81F808F1B8
:2042E0007001384689B2FFF7F3FBAA6808F16001D6F8F40022F0030289B2FFF7E9FB64E70B
:204300004FF4F072DCE742F00F02E6E742F01F02E3E7012459E700BF700020E1180F07EE57
:20432000140F17EE00232DE9F04F9FB0029303934FF0FF3305935B4BCDE900011A6806A8CD
:204340001D9203AA1A6013F077FE28B92226554C03AD2368AB427ED0039C012C00F085800E
:20436000022C00F09C80029C14F001047FD0029B222143F400530293009B029AD3F8F40018
:20438000FFF7A6FB029B03F03C0203F01C03082B71D0002A14BF042402240026009BD3F85B
:2043A000F45005F10807F1B20098FFF7B7FE01360F2E47F8040BF6D1009B3B4AD3F8F40066
:2043C0002121FFF785FB00210098FFF7A7FE009B364A21216864D3F8F400FFF779FB00215E
:2043E0000098FFF79BFE009B2121314AA864D3F8F400FFF76DFB00210098FFF78FFE0026B3
:204400004FF0210A4FF00109DFF8A8B0E86405F15007009B46EA0B02D3F8F4005146FFF7FD
:2044200057FB49460098FFF779FE002180460098FFF774FE0136102EC7E9000807F108077B
:20444000E7D1D5E9113212F0200F14BF042208229B1A6B640BE0009B3146D3F8F400FFF719
:204460002DFC02901D9B236073E70FF035FB20461FB0BDE8F08F04240521009B1B6D002BC8
:204480008BD01A79023A022A05D8052C05D00C469A68019802601B68F1E704247DE7002489
:2044A000E5E700BF940100200F00A0E100000FE1100AF1EE100B51ECF8B506460F460FF09E
:2044C00059FB044608B90020F8BD3046FDF7C0FEE821012013F06EF905460028F3D0214B4A
:2044E000C4F8F400C4F8F8301F4B4660726963611E4B4FF48071A36142F0020207603046C5
:20450000FFF7ECF90021D4F8F400FFF7D7FBC0F303630133C5F8D030000F154B0130C5F8B0
:20452000E0002361134B0120A367134BA360134BE360134B2362134B6362134BA362134BC5
:20454000E362134B2363134B6363134BE363134B2364134B6364C823E361124BA364124B70
:20456000E364B1E76D7C0108F13C000849400008E3380008D0B10108D13D0008F93E0008A2
:20458000013A000801390008F3380008773A0008213A0008553E0008FB3A000825430008FF
:2045A000753F000841410008553B000808B5D0F8F43000211B685868C3689847003818BFF7
:2045C000012008BD02292DE9F74F04461746D0F8F4802FDD92464FF0000902EB81060025C6
:2045E000DFF8A0B05BF8040B48B1DAF8001013F0FDFF012318B903FA05F249EA02090135FB
:204600000B2DEFD10AF1040AB245E8D178680DF10701FFF719F980B19DF80730D8F82020EE
:2046200063B349EA020220461749C8F820200FF092FC02E015490FF0F6FC204614490FF0E7
:20464000F2FC002501270F4EDFF8489056F8042B4AB1D8F8200007FA05F3034203D049460B
:2046600020460FF0E0FC01350B2DEFD120460A490FF0D9FC012003B0BDE8F08F22EA09022F
:20468000D1E700BF18B40108FCED00E0DDB1010831B2010844B2010889AB010810B50B690D
:2046A0000979D0F8F42001290DD00239022914D800241A4494712246094901EB03110FF003
:2046C0004AFC204610BD002403F160511A4401F60201147589002246F1E70120F2E700BF35
:2046E000281000E0F8B504460025D0F8F460194FF369AB421DD80025174F3369AB4220D8B8
:20470000D4F8F43020461B6814499A690FF023FC2046134A13490FF01EFC2046124A1149EE
:204720000FF019FC2046BDE8F840104A0D490FF012BC07EB8501002220460FF00CFC013568
:20474000D6E707EB0511002220460FF004FC0135D3E700BF082000E0281000E0FCED00E075
:2047600003005FA0F0ED00E001005FA000005FA010B504460068FDF774FD2046BDE8104044
:2047800013F074BA10B5044604490F220FF0E3FB2046BDE8104002490FF0D0BBF4ED00E08D
:2047A000F8ED00E0002370B59EB0039302230593104B01901A6806A81D9203AA1A6013F056
:2047C0003BFC30B90B4C0C4D0C4E206803AB984207D0039B1BB10A4901980FF024FC1EB085
:2047E00070BD2A46314601980FF0B5FB1D9B2360EBE700BF9401002003005FA0F0ED00E01D
:2048000083B10108F8B51C4BD0F8F4700D1E1B4E18BF1E463B790446AB4205D0184946F0F5
:2048200002020FF098FB3D717B79B3B12046FFF7A9FF0146054620460FF097FB00F47F409C
:20484000B0F53E4F09D120460E49AA1C0FF083FB20460D4A0D490FF07EFB97F8243023B10A
:20486000002220460A490FF076FB32462046BDE8F84003490FF06FBB0D005FA001005FA0B1
:20488000F0ED00E0F8ED00E00F000100F4ED00E050EF00E02DE9F043C9B0D0F8F43002AF47
:2048A000BB6000237B61C7F8AC304FF0FF33C7F8B430A54BF8601A6807F1B800C7F81421C1
:2048C00007F1AC0279601A6013F0B6FB30B99E4C9E4E07F1AC052368AB420AD0D7F8AC40B6
:2048E000012C0FD0022C02D07B699C0312D400200BE03146F8680FF021FB7861D7F8143159
:204900002360E8E70FF0E8F8204607F58E77BD46BDE8F0838E4CF86821460FF00FFB0546EF
:2049200002462146F8680FF016FB28076BD5DFF82492F86849460FF001FBDFF81C820446B3
:204940004146F8680FF0FAFA064622464946F8680FF001FB04F0804432464146F8680FF0C9
:20496000FAFA54EA06034ED0FB686E46DB69F86823F00303073323F00703ADEB030D02AC5D
:2049800021460FF00FFAD4F83880202318F0040914BFA26C626CF86807F14C010FF0CFF9B1
:2049A000F8680FF0C4F900282CD13B6E18F01002A3637B6EB96EE3630CBF68232023890570
:2049C00048BF0433B9F1000F18D0E16C41F08061E164A16C0B44A36463631AB9E36C43F0D6
:2049E0000073E3645D4A5E49F8680FF0B4FAF86821460FF0F0F90620B54686E7616C0B4449
:204A00006364E9E7B54605F00204002C14BF01230023BA68537100F0FE81F868FFF7B2FE68
:204A20000146F8680FF0A1FA4BF6AB63984240F0F2810022FB686E46DB69F8689B000733B7
:204A400023F00703ADEB030DFB6802AD5B68294683F83A200FF0A6F9D5E90042182C00F0A6
:204A600050811023F86807F13C010FF068F9631E302B00F24E81DFE813F031007900930099
:204A80009A008B007F0028017E01B700BD004C01E0009801D200C700FC00FC00D9004001E5
:204AA0004C01550190014C014C014C014C014C014C014C014C014C014E014C014C014C01D7
:204AC0004C014C014C014C014C014C014C014C014C014C014C014C01610161013B6C07F1D7
:204AE00018015A081F4BF86803EB8203DC6AFA6B04230FF024F91C4907F1180013F076FD25
:204B000038B924B114F4806F14BF0120022001300BE04FF4D2737A6C00930132F96BF868AE
:204B2000A3B20FF0B9FA421CF1D128602946F8680FF051F9FB685B6893F83A30B546002B6D
:204B400000F063810220E0E694010020F0ED00E030ED00E02CED00E028ED00E00200FA053B
:204B60000CED00E018B4010848B20108F96BF86801390FF09EFAD8E7F96BF8680139D7E972
:204B800010230FF09FFA0028CFDB7B6C181ACCE7F96BF8680139D7E910230FF09DFAF2E74C
:204BA000012302216A68F8680FF096FABDE7D5F8048044462146F8680FF0F1F918B1F86895
:204BC0000FF0B5F870B1B4EB080400F0A280234642460221F8680FF07FFA201A18BF4FF00F
:204BE000FF30A2E70134E5E7F96BF86801390FF0D8FA9AE70023D7E90F12F86801390FF00F
:204C000096FA3B6C181AE9E7BB6C3A6C013300937B6CF96BF86801320FF093FA85E73A6C4B
:204C2000F96BF86801320FF099FA7EE73A6CF96BF86801320FF0BBFA77E7FB68FA68D3E956
:204C40000584904BF96B53618F4BF8689361013907F16C020FF098FAFB68C3E905840028B9
:204C60006CD1D7E92230002B68D100BA40EAE0705BE7FB68FA68D3E90598824BF86853610C
:204C8000814B07F13001936100220FF083FAFB68C3E90598002851D1386B112C00BA3FF4CA
:204CA00044AF7A4ABB6B11681BBA884238BF1060764A64211268801A42F21072B3FBF2F3F6
:204CC00001FB003020F000402FE73F23FB74FB68FA68D3E905846B4B002153616A4BF868C7
:204CE0009361012307F113020FF0ECF9FB680128C3E9058422D1F87C17E7FB685B68188FB8
:204D000013E76349F8680FF08EF90121F8680FF088F8002009E75F49F868D7E90F320FF0EE
:204D200082F9F2E7FB68D7F83C8003F18404204613F03AFD3A6C431C9A4202D24FF0FF30F2
:204D4000F3E622464146F8680FF002F80028F5D12046C7F81C8013F027FD0823013069682F
:204D6000386207F11C02F8680EF0F2FF003818BF01204042D9E6F86B421E1D2A03D8464B4D
:204D8000D340DB073FD458283DD05B283BD042F20F73C41A60426041C7E6FA681023696806
:204DA000F868D8320EF0D4FFB3E7DFF8F0C007F12402DCF80000DCF80410D7F8448003C265
:204DC000D7E90F43BCF808009CF80A1010809170002CB3D0B8F1000FB0DDFF2BAED803F02F
:204DE0000F021B114133413207F1240087F8283087F8292013F0D8FC431C98459ED32146E9
:204E000007F12402AFE701208FE6BB68F86819790FF007F86BE5690728D57B6823B300249B
:204E2000FB68DFF87C80D3F8F450AE1D2B699C420BD216F8013B0BB90134F7E7F86808EB9F
:204E400004110FF07BF8C201F6D52B699C4201D1002007E004F1606101F58171F8680901EA
:204E60000FF06CF87B68186005204EE544B9EB0706D5BB681B79002B3FF464AE032044E5DF
:204E8000042042E5AF4E0008A54E0008040000204CB2010859B201081BB1FD3C6AB201085E
:204EA000281000E0084611461A4612F01BBF084611461A4612F016BF37B504461E490FF081
:204EC0003DF8606E10F0040508D101200FF038FC28460FF035FC0A200FF0AAFD2046164966
:204EE0000FF02CF8820104D42046144A14490FF032F8A36B0BB1204698474FF47A7101A804
:204F00000FF068FD0C4D294620460FF017F8830104D501A80FF069FD0028F4D00A200FF071
:204F200087FD1F22204607490FF015F820460EF0FEFE03B030BD00BFF0ED00E00400FA056B
:204F40000CED00E030ED00E02DE9F04F284B85B01B68284A0193284B0D461B6807460093CC
:204F6000264BAA461B6813F0FFF900260446DFF890800DB1A5EB040A3346381942465146B6
:204F800013F0F2F901360D2E0444F2D11D4E1E4A06F10A0806F1140B06F13C090DB1A5EB2A
:204FA000040A16F8010B194918F801CB51F82000174919F8013B029051F82C005146CDE921
:204FC000003038195BF8043B13F0CEF9114B0E4A9E420444E2D10DB1A5EB040A51460E4A1A
:204FE000381913F0C1F9204405B0BDE8F08F00BF5800002075B201085C0000206000002003
:20500000B5B001085CB40108B2B201084C0000204400002066B401086FB101082DE9F8432F
:2050200007460D46FFF790FF044615BB2E4638193146124A13F098F94FF00008DFF8409017
:20504000044405B12E1B434638194A46314613F08BF908F10108B8F1100F0444F1D105B117
:205060002E1B3146074A381913F07EF92044BDE8F883A0F109042E1BD9E700BFFEB00108B3
:2050800043B101086FB1010870B5456E15F002050FD000210846FFF7C1FF441C204612F03A
:2050A000DDFD064618B1214645B1FFF7B7FF304670BD29462846FFF747FFEEE7FFF744FF2E
:2050C000F5E72DE9F74F8846D0F8F410064691F8240080B1D1F82890B9F1000F0BD0174860
:2050E0001749346F002B14BF83468B4608EB0205C9F1000A14B903B0BDE8F08FD4E90037BF
:205100001F44AF4228BF2F4698452CBF0AEA08020AEA03020192019B9F4201D8A468E9E75B
:205120000423D6F8F4000DEB030259460068FDF7B3FA019B4B440193EDE700BF70EF00E050
:2051400068EF00E02DE9F04114461D4607460E462A4621460023FFF7B4FFD7F8F430224675
:205160001868314643681F6A2B46BC46BDE8F04160472DE9F0411C4607460D46164601234B
:205180002246FFF79EFFD7F8F400234632462946BDE8F0410068FDF77FBA2DE9F743012223
:2051A0000446D0F8F45000262B68B1465B68DFF8EC8083F829200EF0BAFD20460EF028FEE0
:2051C00020462A6A36490EF0C6FE1F22204635490EF0C1FE08233449EB6120460EF0AEFEAE
:2051E000EA69C0F303139A4288BFEB610423000FE8602B6120462D490EF0A0FE2A69030FFD
:20520000B2EB107F88BF2B6105F11407EB69B3422ED80026B146DFF89880AF1D2B69B342CE
:2052200030D80322204620490EF095FE214920460EF084FE20461F490EF080FE82012BD5C4
:2052400000200FF07DFA4FF47A7101A80FF0C2FB184D294620460EF071FE83011CD501A860
:205260000FF0C3FB0028F4D0002003B0BDE8F08308EB8601002220460EF06DFE013607F8F9
:20528000019BC3E708EB0611002220460EF063FE013607F8019BC1E70120E6E7082000E067
:2052A000FCED00E030ED00E0002000E0001000E0281000E0F0ED00E0132905D8064B03EB0B
:2052C0008101D1F88C007047436E9B0701D53429F4D94FF0FF30704718B40108032B38B5D8
:2052E00004460D460FD9126808490EF034FE29462046FFF7E1FF064940F4803220460EF0EA
:205300002AFE042038BD4FF0FF30FBE7F8ED00E0F4ED00E0032B38B5044615460DD9FFF7DA
:20532000CBFF0749024620460EF015FE204605490EF004FE2860042038BD4FF0FF30FBE7EF
:20534000F4ED00E0F8ED00E010B404691346A4460A4610BC00216047012938B504460CD131
:2053600090F8EC100C4A0D4B0D48002914BF1146194602F070F8012038BD5568284613F056
:2053800013FA08490246284613F064FAB0FA80F35B0984F8EC30EEE758AC010860AC010888
:2053A000D4B2010818AC01082DE9F8438A680D46097906460129D0F8F4301FD002390229C2
:2053C00078D800271869991DB8422BD011F8018BB8F1000F3FD1012107F1606404F5817401
:2053E0003B4424019971304621460EF0B4FDEB6804F10409012B30D8424639E0D96859B9F6
:2054000012F0020F22F0604114BF4FF000424FF0804221F003010A430027D86903F114019E
:20542000B84203D14FF0FF30BDE8F88311F8014B7CB901213B44197507F1605101F60201B4
:2054400042F00102890030460EF085FD00202F61EAE70137E4E70137B6E703F1FF3840468E
:2054600005F028FF1E281AD8404605F023FF0246494630460EF06FFD726E2B7912F0010FEE
:2054800014BF00224FF40062032B04F1080108D0042B09D0022B0AD142F00602D3E71F2229
:2054A000E6E742F00502CEE742F00702CBE74FF0FF32C8E70120B7E72DE9F8430E46D0F8F9
:2054C000F4304FF480711C680746626963682046DB6942F0020298474FF482711C4A6068EA
:2054E000FFF732FF237A60681B0605690822002143F01003DFF85C80A84706F14C09351FBE
:205500004FF48A7158F8042B6068FFF71DFF60684FF48C718368984745F8040F4D45EFD180
:205520007B6E9B0711D50C4FD0364FF48A7157F8042B6068FFF708FF60684FF48C71836825
:20554000984745F8040FAE42EFD1BDE8F88300BFF0ED00E0A4B40108F4B401082DE9F8436D
:205560000E46D0F8F4304FF480711C680746626963682046DB6942F0020298474FF482715B
:205580001E4A6068FFF7E0FE237A60681B0605690822002143F01003DFF86480A84706F1E1
:2055A0004C09351F55F8042F4FF48C716068FFF7CBFE58F8042B4FF48A71606842F480328E
:2055C000FFF7C2FE4D45EDD17B6E9B0713D50D4FD03655F8042F4FF48C716068FFF7B4FEC0
:2055E00057F8042B4FF48A71606842F48032FFF7ABFEB542EDD1BDE8F88300BFF0ED00E04F
:20560000A4B40108F4B40108D0F8F43018687047F8B506460EF0AEFA044608B90020F8BDD6
:205620003046FCF715FE736893F83020012A40F2C780DA8E002A00F0C380A4F8FC201A8F6E
:20564000A4F8FE2040F67F42B4F8FC10914206D140F675225B8E934208BFA4F8FC302C21D0
:20566000012012F0A7F805460028D7D0A94BC4F8F400C4F8F830A84B06602361A74B204691
:205680006361A74BA749A361A74BA3670EF056FC4CF2702220F00F039BB29342E06700F0C9
:2056A000B28000F299804CF23022934200F0A98000F28B80B3F5995F00F09B80B3F5424F4E
:2056C00000F0A380994B9A49A3609A4B2046E3600EF034FC40F470063246204694490EF0CE
:2056E0003AFC934920460EF029FC934B07462362924B20466362924BA26FA362914B9249AD
:20570000E362924B2363924B6363924BE363924B2364924B63645023E361914BA364914B9D
:20572000E3640EF00FFAB74206D1636E43F002036366E3698433E3618B4B2B620FF0BCF81C
:20574000064688B12A6A894920460EF004FC2046FFF728F800200EF0F3FF854F39462046B5
:205760000EF0ECFB8301F9D4204682490EF0E6FB420F042A4BD1012385F8243000F00F0351
:2057800002FA03F3AB6226B10022204677490EF0E2FB40F23B42B4F8FC30934200F07181D2
:2057A00064D8202B56D8142B35D80E2B00F09380B4F8FE20B4F8FC106F4801F04CFE8EE0CA
:2057C000328CA4F8FC20728C3AE74CF2402293427FF478AF694B0DE0B3F5524F0FD04DF21D
:2057E0001022934209D0B3F5464F7FF46BAF644B00E0644BC4F8803064E7634BFAE7634BCD
:20580000F8E7634BF6E7634BF4E7634BF2E720460EF08DFAB7E7153B0B2BC9D801A252F871
:2058200023F000BF675A0008B1570008575A0008B1570008B1570008B1570008B1570008C4
:20584000B1570008B1570008B1570008115A00089D590008B3F5117F00F0D68040F2234292
:205860009342A5D120460DF03BFF40E040F61312934200F0F48010D840F27362934200F0D8
:20588000E68040F25172934237D040F2015293428ED1204602F020FE29E040F675229342F7
:2058A00000F02281B3F5004F82D1204607F0F2FEA8B920460EF03BFA204606F055FB70B9EF
:2058C00020460EF034FA204603F068F938B920460EF02DFADDE7204605F0A8F908B1012066
:2058E0009DE620460EF023FA204601F0E9FF0028F5D120460EF01BFA5AE7204609F006FE5A
:205900000028ECD120460EF012FA20460BF0A4F9EDE700BF71470008AD4500084551000849
:205920007351000800ED00E00EA901089B51000888ED00E0E546000889500008B95400089C
:205940005D5500081553000878B50108DD520008B94E0008A5470008954800080548000873
:20596000A95300089D46000801040001FCED00E0F0ED00E07CED00E019B301080CB30108C6
:2059800012B30108F8B2010801B3010805B3010809B301080FB3010816B30108204609F047
:2059A0004BFF00289BD120460EF0C1F920460BF0EFF8002893D120460EF0B9F920460BF0A0
:2059C00041FB00288BD120460EF0B1F920460BF079FE002883D120460EF0A9F920460CF03D
:2059E00076FB00287FF47BAF20460EF0A0F920460CF06EFF00287FF472AF20460EF097F9F5
:205A000020460DF0FBFA72E7204606F09BF86EE7204607F0D5FD00287FF461AF20460EF053
:205A200086F9204607F0BAFF00287FF458AF20460EF07DF9204608F091FB00287FF44FAFD2
:205A400020460EF074F9204608F0C6FF4FE7204600F076FC4BE7204605F0AAFD47E720468C
:205A600007F036FB43E74DF21022E36F23F00F031B041B0C93427FF49BAE204604F0A0FD1E
:205A800035E7B4F8FE30B3F5986F3FF402AF40F2C14293423FF4FDAE40F2C342934227D191
:205AA000204602F05DFA00287FF419AF20460EF03EF920460AF0E8F900287FF410AF204638
:205AC0000EF035F9204609F0B7FE00287FF407AF20460EF02CF9204603F096F900287FF429
:205AE000FEAE20460EF023F9204609F053FEFEE640F27142934215D1204602F0EDFC0028DD
:205B00007FF4EDAE20460EF012F9204603F0C6FF00287FF4E4AE20460EF009F9204609F0F8
:205B2000EFFDE4E640F2C442934239D1204607F0B1FD00287FF4D3AE20460EF0F8F82046B7
:205B400002F00EFA00287FF4CAAE20460EF0EFF8204604F095FA00287FF4C1AE20460EF096
:205B6000E6F8204603F09AFF00287FF4B8AE20460EF0DDF8204603F065FA00287FF4AFAE6B
:205B800020460EF0D4F8204605F050F800287FF4A6AE20460EF0CBF8204609F01BFDA6E619
:205BA00040F2CB4293427FF403AE204609F0AEFC9DE62DE9F3411D4604460E461746012355
:205BC0002A46FFF77EFAD4F8F4309DF820201868314643680092D3F824803A462B46C04787
:205BE00020460EF0A4F802B0BDE8F0812DE9F04383B00546C069914620F003029846D31D33
:205C000023F0070300AFADEB030D6C460E462046002112F0DDF8BB6A2146A360FB6A28464A
:205C2000E3604FF0807323640023C4E90098E364E663FFF793FC28460EF079F8014628B1EE
:205C4000002420460C37BD46BDE8F0832846FEF7D9FD41F28831381D0EF0BCFE381D0EF0D7
:205C6000C4FE044618B12846FEF79CFDE8E701462846FEF70FFE0028F0D0012803D10B4994
:205C800000F040FCDDE70428DAD12846FEF77AFD014628460EF069F9C0F30F23BE2BCFD1E0
:205CA000C0B2041E18BF0124CBE700BF57B301082DE9F04FDFF8B8A01C46DAF80830A1B08F
:205CC00043F00103CAF808300746894616460EF0D7FE8046032C10D8254B32461D6869464F
:205CE000234638460EF02BF810BB6B462148013C31D20120C9F800501BE00EF0C1FE08F590
:205D00007A738342054604D20121002000F028FCA846802CA34628BF4FF0800B2BF0030BFD
:205D20005B463246694638460EF009F8054618B1002021B0BDE8F08F05F180036B4453F882
:205D4000803C04351BBAAB45CAF80030F4D85E44A4EB0B04BEE713F8012B85EA02650822AF
:205D6000002D4FEA4505B8BF4540013AF8D1BEE700300240B71DC10438B5836E0446CBB11F
:205D800093F83C20531E012B0FD80B490EF0D6F80A49054620460EF0D1F82B4602460849A3
:205DA00020460EF040F9012038BD06490EF03BF90020F9E71846F7E7F481E00FF081E00FAF
:205DC0009CB50108B6B50108F8B5836E04460E4617460BB90020F8BD1B6C002BFAD0DD89E1
:205DE0001DB92A490EF01FF9F4E729499D680EF0A5F8012E0BD1274B10F0020F264A2046F3
:205E000008BF1A4625490EF00EF90120E3E77B6823491B7841F67132652B0CBF40F00206AE
:205E200020F002068D420CBF3C214021204629440EF091F805F10801012220460EF08BF88F
:205E400005F10C0705F110012046114A0EF083F80122394620460EF07EF805F118013246F5
:205E600020460EF078F80822394620460EF073F81C35294620460EF061F8C307C5D520468F
:205E80000DF055FF0028F4D0A4E700BFFBB50108E841E00F60AC010858AC01081BB60108AE
:205EA00000000C402DE9F84F04688046A36E0F46154613B90020BDE8F88F1B6C002BF9D0B3
:205EC0009E681E4941F671328E420CBF3C214021204631440EF03FF80122204606F1080189
:205EE0000EF039F806F1100A06F10C09DDB13A46514620460EF02FF80122494620460EF010
:205F00002AF80222494620460EF025F806F11C0B594620460EF012F8C30706D4D8F80C3050
:205F2000AB421F4407D30120C5E720460DF0FFFE0028EDD0BEE7ED1AD8E700BF00000C40AF
:205F4000F8B505460F460120402116461C4611F031FC014660B1074BC0E901760362064B06
:205F6000C460436204612846BDE8F8400DF05EBEF8BD00BFA55E00087D5F00082DE9F341E2
:205F800005680F46AC6E90461E46FCB1206CD0B150234FF000510E4A28460DF0D9FE33461B
:205FA00042460C4928460DF0D3FE236C3A469B684FF00051CDE900632846064BFFF716FE44
:205FC00080F00100C0B202B0BDE8F0812046FAE794BB010850000020012908B503D0022922
:205FE00006D0002008BD04490DF0D9FF80B2F9E701490DF0A3FFF9E7FC81E00F012908B596
:020000040800F2
:2060000003D0022906D0002008BD0549BDE808400DF0ABBF02490DF091FF80B2F4E700BF81
:20602000F881E00F836E2DE9F34104461BB9002002B0BDE8F0811A6C002AF8D01178472946
:2060400001D0492904D1204629490DF0ECFFEEE793F83C109568FFF7D1FF05F1540705F1B2
:2060600008010122064620460DF075FF05F10C0846F21A32394620460DF06DFF4FF48072C0
:20608000414620460DF067FF4FF4FA7101A80EF0A1FC1C35294620460DF050FFC20709D4A6
:2060A000B6F5007F0FD22046002239460DF053FF0120BDE720460DF03AFE0028B7D101A8C6
:2060C0000DF018FEE6E74FF40072414620460DF042FF294620460DF031FFC307E3D5204616
:2060E0000DF025FE0028A2D101A80DF003FEF0E72AB60108012908B503D0022906D00020A3
:2061000008BD0549BDE808400DF02FBF03490DF015FF000CF4E700BFFA81E00FF881E00FBF
:206120002DE9F04F836E044685B05BB11D6C55B193F83C60012E0AD0022E6ED03246504950
:206140000DF071FF0025284605B0BDE8F08F4D4A4D490DF068FF31462046FFF73DFF31464F
:2061600080462046FFF74AFF314607462046FFF7C1FF012E814653D0022E5CD04FF0000A16
:20618000B5F802B0CDE902792B692046CDE900733E4943466A680DF046FF5B465246204689
:2061A0003B490DF040FFD34503D9204639490DF03AFF204638490DF036FF022E4BD1204642
:2061C00036490DF0BBFEC0F307224A2A4FEA1043C0B236D04C2A36D04D2A36D0512A304A48
:2061E00018BF0022012832D0022832D02D4D05F11801032808BF0D46204652682A49DBB261
:206200000DF011FF204629496A680DF00CFF204621490DF008FF012595E7254A254998E7ED
:20622000204625490DF0BBFE02464FF0010A0A320AFA02FAA4E7204618490DF07FFE020E2A
:20624000F3E71E4ACEE71E4ACCE71E4ACAE71E4DD2E71E4DD0E7012EDDD16D786DB1204687
:206260001B490DF082FE1B49024620460DF0DBFE204609490DF0D7FE65E7354663E700BFFB
:20628000B6B501080080E00F60B60108BEB60108E9B6010828B7010889AB0108E481E00F5E
:2062A000FCBB010804BC010854B701086AB70108B081E00F8CB60108E781E00FE4BB0108AD
:2062C000ECBB0108F4BB01080CBC010814BC0108AE81E00F80B7010843684FF484719B6967
:2062E000184737B5D0F8F4402046FFF7F5FFC20721D463684FF482712046DB690F4A984766
:2063000063684FF4807120460122DB6998474FF4FA7101A80EF05EFB2046FFF7DDFF0546A1
:2063200001A80DF0E7FCEB07F6D42046FFF7D4FF012003B030BD0020FBE700BF18C1ACCF13
:206340002DE9F04F494989B004460DF0F7FD0546474920460DF0F2FD464BB3EB152F76D1FB
:20636000204645490DF0EAFD4FF00208C0F3074000271422414E06F1900302FB07F1049102
:20638000C95C81426AD13E4A414662652046FFF723FE414605902046FFF730FE41464FEA21
:2063A000802B07902046FFF7A5FE049B442106EB030A06900120BAF8929011F0FBF90546CF
:2063C000049A304B80F83C8013440364DAF8A030079A0293059B3C21019200932A4ADAF871
:2063E0009430A06611F0C0FF636E5A4643F00403204626496366A5674B460DF014FE069B7D
:206400004FF000519A0220460DF002FC5A464B4600212046FFF794FDBAF89C202AB14B46D6
:206420004FF07E612046FFF78BFD142303FB0766B6F89E2022B14B4620461549FFF780FDB1
:206440002046144A14490DF07DFB01200AE0204612490DF0A4FD4FF0010889E70137352FE8
:206460008BD1002009B0BDE8F08F00BFF481E00FF081E00F5ECFD000FC81E00F94BB01087F
:206480002560000824BC01088DB701089AB701080000E10FB6B7010848C00108FE81E00FFA
:2064A00070B5C668134A26F0704323F0F0039342054601D0002070BD0DF05CFB0446002859
:2064C000F8D00D4B43652846FBF7C2FE0B4B2A21C4F8F830C4F8F450012011F06BF9084978
:2064E000320F054611F0A0FF00230120A567E361E1E700BF0100E606E3620008632200088E
:20650000BCB70108094A38B513680BB911F04AF99D689C6E284207D0C3E90001014603F104
:206520000C00146011F08EFD2346EEE79401002010B50FF029F801280146FAD1064C07489B
:206540004023224600680FF0B0FF00232064636400B930BF10BD00BF98010020FC2B0020B8
:20656000F8B5184C0D46A36C5A1C2344A26483F84C0009B9402A05D10FF006F8012802D004
:206580000023A364F8BD0FF0B6F80028F8D00E4E0E4F3A460121B4F8483030680FF07EFFEC
:2065A0000028F6D0002DEBD0A36C402BE8D1084D01232A46194630680FF070FF0028DFD1AC
:2065C000F6E700BF98010020FC2B0020E401002078C0010810B5094CD4E91023934203D225
:2065E0005A1CE05C626404E00FF085F810B930BF042010BDFFF79CFFEEE700BF980100203C
:2066000013B5014601A80EF0E5F90F4CD4E910329A4208D2D4E91023934211D3FF200DE021
:20662000FFF786FFF2E701A80EF0DFF90028F1D10FF061F80028F3D130BF042002B010BDC7
:206640005A1CE05C6264F9E7980100200846114600F0F0BE38B50B4C0D4623688B420AD11C
:206660000921094800F086FE084800F0C5FE0023236001232371A368AB4204BF0023A360E9
:2066800038BD00BF240200207AC0010884C001080321014800F032BEB4C0010810B5064C8F
:2066A000206840B10DF0B0FB20680DF035FB2368A3600023236010BD240200201FB50F4991
:2066C00002AB01AA11F0D2FE022806D10C4B186830B903210B4800F011FE05B05DF804FB51
:2066E00003A9DDE90123FFF7E3FA10B903210648F1E70399054800F069FEEEE712C101082D
:2067000024020020B8C00108BCC00108C0C001084FF48061014800F059BE00BFC5C00108E3
:2067200073B50E46054612F03FF800230446CDE900336A4630460F4901AB11F097FE022819
:2067400005D003210C4800F0D9FD02B070BD009AA242F6D802D101210848F4E7019BA41A81
:20676000A34228BF2346012105482A4400F07DFDEBE700BF85C10108B8C001082ABB01084E
:206780006CB301082DE9F0414C0804F1080384B023F0070300AFADEB030D6B4600256E4604
:2067A0000146224618464FEAD30800F093FE0F4B3146186804F83850FCF7E8FFA84207DABD
:2067C00029460B4800F09AFD1037BD46BDE8F08102D102210748F5E707223846064900F009
:2067E0004EFE0E2100F08AFDEEE700BF2402002017AC0108FFC0010802C1010810F80B3C1E
:20680000662B0BBF022101210148024800F076BD0AC101082ABB010838B50D4B0546186850
:2068200038B9986828B9BDE838400321094800F065BD0DF073FB041E2946074818BF20465A
:20684000FFF76EFF2046BDE8384011F00FBA00BF24020020B8C0010817AC010810B50E4B18
:2068600004461868ADF5806D48B9986838B903210A480DF5806DBDE8104000F03FBD4FF444
:20688000806269460DF0E5F921466846FFF748FF0DF5806D10BD00BF24020020B8C00108F8
:2068A0002DE9F0479AB01E460B7802AF7A2B15460C4697F8802000F2F5813E2B06D8042B4A
:2068C00000F06D81212B00F0B380EBE13F3B3B2B00F2E881DFE813F0FE00E601E601E601E7
:2068E000F6006301E60156019400DC00E601E601E601E601AF00E601E6012901E6017701EE
:20690000E601E601E601E601E6018D01E601CA02E601E601E601E601E601E601E601E6017B
