:020000040800F2
:1020000000500020D92D0108D52D0108D32D01083D
:10201000D32D0108D32D0108D32D010800000000A5
:10202000000000000000000000000000D52D0108A5
:10203000D52D010800000000D52D01080712010868
:10204000D32D0108D32D0108D32D0108D32D01086C
:10205000D32D0108D32D0108D32D0108D32D01085C
:10206000D32D0108D32D0108D32D0108D32D01084C
:10207000D32D0108D32D010845100108FD100108DA
:1020800021110108A1100108D32D0108D32D010849
:1020900071060108D32D0108D32D0108D32D0108A5
:1020A000D32D0108D32D0108D32D0108D32D01080C
:1020B000D32D010849080108D32D0108D32D0108AB
:1020C000D32D0108D32D0108D32D0108D32D0108EC
:1020D000D32D0108EB0F010819100108D32D0108B9
:1020E000FD9D0008D32D0108D32D0108D32D010833
:1020F000D32D0108D32D0108D32D0108D32D0108BC
:10210000D32D0108D32D0108D32D0108D32D0108AB
:10211000D32D0108D32D0108D32D0108D32D01089B
:10212000D32D0108D32D0108D32D0108D32D01088B
:10213000D32D0108D32D0108D32D0108D32D01087B
:10214000D32D0108D32D0108D32D0108D32D01086B
:10215000036A1847436A184710B4846AA44610BC3F
:10216000604743681B6B184710B4846A1346A44643
:102170000A4610BC0021604770B504460D4616465D
:10218000027A01F0F0034068082143EA0262FFF797
:10219000EBFF324629466068BDE87040E4E738B599
:1021A00004460D46027A01F0F0034068082143EA34
:1021B0000262FFF7D9FF29466068BDE83840C7E7EB
:1021C0000268013A01D00260704711F02DBB4368EC
:1021D00013B59C6B04230A460DEB0301A04701983D
:1021E00002B010BDF8B5002407460D462646294624
:1021F0003846FFF7ECFFC3B2A3400834202C46EA70
:10220000030605F10405F2D13046F8BD70B5044669
:10221000104601280D46626914D00238012894BF87
:1022200042F0120242F01002636820464FF48071BF
:102230005B6B98472B4660684FF48272BDE8704034
:10224000002189E742F01102EEE72DE9F84F0C4634
:102250004FF00108A2469DF8287015463A4623FA29
:1022600007F68146FFF7D2FFBB1E08FA07F85FFAB0
:1022700083FB0EB9BDE8F88F012F23D004D9BBF141
:10228000010F24D9002304E0E2002B7802F01802A9
:1022900093404FF486720021D9F80400FFF75CFFE9
:1022A00044440C4A8AEA04031342454408D02346B6
:1022B0004FF482720021D9F80400FFF74DFFA246C7
:1022C000013ED6E7E2002B8802F01002E0E72B681F
:1022D000DFE700BF00FCFFFF03681BB941680A6825
:1022E00001320A60013303607047036810B5013B97
:1022F000044603603BB94068FFF762FF2046BDE833
:10230000104011F091BA10BD70B50C4601F57D6119
:102310000646FFF767FF054604F57E613046FFF786
:1023200061FF294670BD2DE9F34721F47F6525F053
:102330000F0504461746002D5ED005F57F61FFF7B7
:1023400051FF0190606890F84180B8F1000F53D1BF
:10235000019E474B26F470469E424DD1FFF7FAFE90
:10236000002849D1019B23F47043B34244D129464C
:102370002046FFF7C9FF019B0646C3F30333012B39
:102380003DD1CFB90902C6F3063301F47061194398
:10239000C6F30B0621846684226A364B9A420BD11F
:1023A00020463549FFF713FFC20305D5204602B08A
:1023B000BDE8F04702F004BEA846DFF8C0A005F56E
:1023C000706901376068FFF7C5FE41462046FFF798
:1023D000FEFE06466068FFF7BDFE68B966B1F3070A
:1023E00006D506EA0A013A4620462944FFF79BFF34
:1023F00008F10408C145E5D102B0BDE8F08700F45A
:102400007F22042908BFB2F53B2FF5D1092B2AD131
:1024100005F6CC712046FFF7DAFE05F6BC715FFACF
:1024200080F82046FFF7D3FE034610F4801000D05A
:1024300098B2134BC6F30B069A79032ADCD019889D
:10244000B14212D1997841450FD1998881420CD17E
:10245000012AABD0022ACFD12946204602B0BDE8DE
:10246000F04701F0C9BD4046E3E70833E4E700BFA9
:102470000D0005B11F00D00C0021004100F0FFFF4E
:102480006058010870B505460C468AB02422002128
:1024900001A811F0EFF94FF4FE7101A802958DF833
:1024A0000C40FFF75EFE4FF4FC71049001A8FFF7AB
:1024B00058FE0590013003D1002630460AB070BDA9
:1024C000049B002BF8D04FF4807101A8FFF749FE60
:1024D00020F0370306930306EED4242011F09CF974
:1024E00006460028E9D0054601AC0FCC0FC50FCC3D
:1024F0000FC5236830462B60FFF7EEFEDDE7012BAA
:102500000FD007D9991E012912D9012202FA03F32B
:1025100018447047C90001F0180122FA01F1017056
:10252000F3E7C90001F0100122FA01F10180ECE7A4
:102530000260EAE72DE9F74F0E469907154616BFE8
:10254000DC43022404F00104AA0718BFEA4307464B
:102550000CBF022202F00102002B53D09442A8BF0C
:1025600014465FFA84FAE340524629460093FFF787
:102570004DFE00234FF4867201217868FFF7ECFDD1
:102580000123AB46A846A340DDF800900193B9F1C2
:102590000109786812D1009B0C22013B03FA04F474
:1025A00001214B46FFF7D8FD2544024653462946F4
:1025B000304603B0BDE8F04FFFF7A1BF00234FF452
:1025C00086720121FFF7C8FD534602464146304658
:1025D000FFF795FF019B0D4A98448BEA08031342CD
:1025E0000646D4D043464FF4827200217868FFF744
:1025F000B3FD00234FF4867201217868FFF7ACFD2C
:10260000C346C4E703B0BDE8F08F00BF00FCFFFF86
:1026100073B59D0716BFDD43022505F001058C0744
:1026200016BFCC43022404F001044668A542D4BF7F
:1026300000950094F46BA04702B070BD2DE9F04FF7
:102640004368A7B0C3F30B02009022B103F07F628E
:10265000B2F17F6F05D1009811F0E6F827B0BDE820
:10266000F08F9C4A93420FD1242011F0D5F80446F4
:102670000028F3D02422002111F0FCF8009B204612
:10268000636008F0B7FAE9E7002305930B93022390
:102690000099914A0D934A63904A914B0A63914A7B
:1026A0000EA88A63904ACA631A6825920BAA1A6018
:1026B00011F0E8F928B90426894C0BAD2368AB4228
:1026C0002AD00B9B4BB1009B0121DB6A00989847F5
:1026D00004210098FFF73CFD059006ACC921204677
:1026E0000EF056FD059A042142F0A0420098059292
:1026F0000425FFF739FD29460098FFF729FD0590CD
:10270000059B03F02043B3F1204F0DD020460EF07F
:102710004AFD0028EFD09EE731460098FFF718FDEC
:102720000590259B2360C9E7059A042142F0806249
:1027300000980592FFF718FD059A042122F08062A7
:10274000009805921424FFF70FFD042520460EF093
:102750004DFD29460098FFF7FBFC0590059B1801ED
:1027600004D406A80EF01FFD0028EFD00025A946CE
:102770002E46009B009A1B68DFF870810133DFF85A
:1027800070A113600098E9B2FFF77CFE0446A0B97F
:10279000CDB109F101090135B5F5807F02D0B9F15C
:1027A000080FEFD1534B544D1C6864B129780029B0
:1027B00000F0D080D4F8E040F7E70369B34201931A
:1027C00005D1FFF792FD0098FFF7FAFC46E706F007
:1027D000BFFA204606F0E8FF204603F05BFA237AB2
:1027E000FBB9E36803F00F03012B1AD104216068E1
:1027F000FFF7AEFC414B0290196809A80EF0C8FC27
:102800003F4B0A9363685E6816F4803613D00EF06F
:102810001FFD80274FF0000B039009A80EF0C3FCAA
:10282000C8B1002220462169FFF77DFD2046FFF751
:102830005CFD019EAFE7626920464FF480715B6BDF
:1028400042F00202984743464FF482723146606874
:10285000FFF782FCDBE796BB029B0422314643EA8A
:1028600007336068FFF778FC0A9B4FF486723146A5
:102870006068FFF771FC40F6FE739F421CDC0EF0AF
:10288000E7FC039BC01A07EBC00700234FF48672D6
:1028900001216068FFF760FC411CBED0194B184253
:1028A000BBD1820130D5BBF1000F2DD1124B1B786B
:1028B0006BBB4FF0010BB0E740F6FF77E5E7414611
:1028C000204604230AAAFFF7A3FE41462046FFF74D
:1028D0007EFCE1E727292110792100089F210008CB
:1028E0002C010020352500084B220008F0ED00E007
:1028F000FCED00E06C080020280100200000002012
:1029000003005FA0F0FF00F0144B834385D15146D4
:102910002046FFF75CFC124B5146A061079320460E
:10292000042307AAFFF774FE0E4B08AE3046196861
:102930000EF02EFC002007F05DF941462046FFF71F
:1029400046FC83017FF56DAF30460EF02CFC00286D
:10295000F3D066E720460DF0FFFB2BE701000200F5
:10296000010400010000002030B50C4D85B04B0F74
:10297000C900CDE90213044690F840100822284609
:1029800004F002FB232300220093284694F8401011
:1029900002AB04F039FB05B030BD00BFD00B002006
:1029A000003918BF012170B5054641EAC301580F2F
:1029B000530803F0060388B0194312F4807FCDE971
:1029C000041014BF0B220A2295F84010184804F096
:1029D000DBFAFA2103A80EF0DBFB154E2323304669
:1029E000009395F8401004AB06AA04F00DFB9DF887
:1029F000184003A804F007040EF0D5FB68B9012CB9
:102A0000ECD0022C03D001200A4903F075F9069896
:102A1000079BC00840EA437008E0012CF1D128462A
:102A20002146EB6A9847002085F8414008B070BD08
:102A3000D00B0020A05A010810B504460023042240
:102A40000121FFF7ADFF042200212046024BFFF7D2
:102A5000A7FF00F0320010BD320000F010B50446B0
:102A60000A4600230121FFF79BFF2046BDE81040E6
:102A700000230C220121FFF793BF10B54421044627
:102A8000012010F0F9FC98B114210A4A80F8404066
:102A900001FB0424A268BDE810404260064A0262BD
:102AA000064A4262064A8262064AC262FFF7C6BD11
:102AB00010BD00BFC80500205D2A0008392A0008A3
:102AC000A12900086929000810B4846A1346A446A5
:102AD0000A4610BC0021604710B50446C368202197
:102AE0004FF0FF309847E3682021BDE810406FF0B9
:102AF000704018470A460021E6E738B590F84130A3
:102B0000044693B1436803F47043B3F5005F0CD1FE
:102B1000C36953B1FFF7E0FF0C21E3692046A268C7
:102B2000984700212046236A9847236A04212046BB
:102B3000984710F0020218BF1022C30648BF42F0A7
:102B40000202810648BF42F00402030600F0B2050B
:102B50004FF00001204648BF42F00802FFF7B4FFE3
:102B60000023284684F8413038BD11F4807F0CBF23
:102B70008123A32308B183F0240301F00C0104296D
:102B800043EA410001D0082901D180F020007047BC
:102B900070B5044601F00F010020FFF7E6FF0821A1
:102BA000E368164698476369032098470546202145
:102BB000304623699847681E18BF012070BD2DE973
:102BC000F3410E460446114630461F46FFF7CDFF3F
:102BD00080460020D305009002D594F84130FBB91F
:102BE000FA2101A80EF0D4FA08214046E36898477C
:102BF0000320636998470428054633D12046636A59
:102C0000984701A80EF0CFFA0028EDD0022D0AD186
:102C100001212046E36A98470123002084F84130CF
:102C200002B0BDE8F081042DF6D0012D03D00120C3
:102C30000E4903F061F866B120216846A369984700
:102C400028B101200A4984F8410003F055F80098A2
:102C5000E6E7384623692021984708213046E36893
:102C60009847F4E70228CCD0DFE700BFB45A010848
:102C7000C55A010811F4807370B50A4604460CD099
:102C800000230121856AA847A56A2046AC46BDE815
:102C9000704000230C22012160470121BDE87040F3
:102CA000FFF78DBF30B5B5B004460DF065F844228E
:102CB000002108A810F0DEFD8A4B0F938A4B109379
:102CC0008A4B11938A4B12938A4B139308AB184685
:102CD00001930EF041FD054618B14FF0FF3035B0BD
:102CE00030BD20214FF0FF300B9B984720214FF043
:102CF000FF300B9B984720217F480B9B9847202152
:102D00007E480B9B984720217D480B9B98472021AC
:102D10007C480B9B98470C214FF4D0700B9B984735
:102D2000029504951CB10F9B002B40F0998008A8D8
:102D3000FFF7D2FE002319934FF0FF331B93724B22
:102D40001CA81A68339219AA1A6010F09BFE20B9C9
:102D50006D4C19AD2368AB426AD0199B23B9019B16
:102D600093F84130002B32D0019B20214FF0FF30EF
:102D7000DB689847019B20214FF0FF30DB689847C4
:102D8000019B1021DB684EF29E70984708A8FFF760
:102D9000A3FE0023019A199382F841304FF0FF33CC
:102DA0001B93594B1CA81A68339219AA1A6010F089
:102DB00069FE20B9544C19AD2368AB4241D0199B30
:102DC000002B8AD1019B93F84130002B85D1029BC7
:102DD00003F47043B3F5005F47D10222082108A82D
:102DE000FFF772FE109B042108A898470022049068
:102DF000082108A8FFF768FE049A444B9A4229D09C
:102E0000019BDB69002B18BF0123039314BF102320
:102E1000012305930023079308AB079A0193059BB1
:102E20009A4226DB3A4B1868003818BF012056E753
:102E3000019B00211B6A08A89847339B02902360DE
:102E400088E7019B00211B6A08A89847339B0290E2
:102E50002360B1E70022042108A8FFF735FECFE781
:102E60000123049403931023D3E700230393012346
:102E7000CFE7039B002B4DD008A8FFF72DFE079A44
:102E8000049B0C2123F0704343EA02730693019BD9
:102E9000069ADB6908A89847002319934FF0FF337F
:102EA000194A1B9313681CA8339319AB136010F0D5
:102EB000E9FD20B919AC144B1B68A34208D0199B3B
:102EC0001BB9019B93F8413033B3079B0133A2E751
:102ED000019B00211B6A08A89847339B0A4A02906D
:102EE0001360E8E7912B0008752C0008FB2A000806
:102EF000BF2B0008F52A000892F30962952D8586FC
:102F0000E9AFDDE3A20EBC192C0100202729000146
:102F10006C080020049B06934421012010F0ACFAB9
:102F200004460028D1D0442208A910F095FC029B49
:102F300020466360069BA360FFF780FBC5E700BFE8
:102F400008B5044B196811B1034803F080FE012055
:102F500008BD00BF64080020685C010801292DE954
:102F6000FF410D4616462DDD5468204610F0A9FE9F
:102F700017490246204610F0CFFE044610BB022D32
:102F800022D002274FF0010856F8270010F06BFA04
:102F90001F2898BF08FA00F007F1010798BF044303
:102FA000BD42F1DC20460DF0C1FB01A80EF0CAF8CD
:102FB00085230522074801A903F049FE012004B03A
:102FC000BDE8F0810024EDE74FF0FF34EAE700BFF1
:102FD000D75A0108DE5A010808B50CF0CDFE0120D1
:102FE00006F008FE002006F005FE012008BD0129BC
:102FF00010B5064C03DD506810F039FA20602168E6
:10300000034803F024FE012010BD00BF0000002093
:10301000EC5A010810B5094803F0E9FD084803F02F
:10302000E6FD002107480CF07DFE044620B9064865
:1030300003F0DDFD204610BD0120FCE71C5B01080C
:10304000305B01084D300008405B01082DE9F0437A
:10305000054685B008460C460DF0FCF8244910F0F2
:1030600026FE48BB20460DF021F8224E224B0028B8
:1030700008BF1E4620460DF0EDF8074620460DF02D
:10308000EDF8804620460DF0ECF8814620460DF024
:10309000E3F878B120460DF0DFF8CDE901903B462A
:1030A000324629461548CDF8008003F0D0FD05B022
:1030B000BDE8F0831248F0E720460CF0F7FF002847
:1030C000204614BF2A2720270DF0C4F806462046C4
:1030D0000DF0C2F850B120460DF0BEF80090334616
:1030E0003A462946074803F0B2FDE0E70448F5E711
:1030F0005E5B01085A5B0108BCA201086B5B01081A
:10310000A65D01089A5B01080229134607B50FD195
:1031100058680A2201A910F001FF019B1B784D2B72
:1031200012D06B2B02D14FF47A7358430EF096F8FD
:103130000EF0AEF8431C014608D1064803F087FDA7
:10314000012003B05DF804FB034BEEE7034803F0F6
:103150007EFDF5E7AB5B010840420F00BB5B010859
:103160001346002230B501299FB0029204DD1146BA
:10317000586810F0D3FE029006F002FE00282DD110
:10318000254B1B7813B1012006F034FD0023039377
:103190004FF0FF33214A0593116806A81D9103A93A
:1031A0001160019310F06EFC20B91C4C03AD236834
:1031B000AB421AD0039B012B1ED0022B02D1184820
:1031C00003F045FD019B002B1BDC002006F012FDE7
:1031D000144803F00CFD00201FB030BD06F0D0FDF8
:1031E0000146114803F033FDCAE70298FFF75AFD84
:1031F0001D9B01902360DAE704990C4803F027FD3A
:10320000E0E7002211461046FFF704FF00210846C0
:1032100005F0F6FD0120DFE7280100202C01002049
:10322000E35B0108205C0108CF5B0108115C010829
:103230000B462DE9F0410733A0B023F0070300AFA0
:10324000ADEB030D1446F96001F1FF38C7F808D063
:1032500006F096FD002838D1FB68012B3CDC354B8D
:103260001B78002B4BD100237B614FF0FF33324A98
:10327000FB61116807F12000F96707F11401116083
:103280007B6010F0FFFB50B9FB68BC68012BD8BF16
:103290000024294D07F114062B68B34233D07B6913
:1032A000012B37D0022B02D1244803F0D0FC7B68DD
:1032B000002B34DC002006F09DFC214803F097FC35
:1032C00000208037BD46BDE8F08106F059FD01467B
:1032D0001C4803F0BCFCBFE7BB685E1EFB689D1E7C
:1032E000BB681D4454F8040F10F0BDF806F8010F38
:1032F000AE42F7D10023BA6802F80830AFE70120E8
:1033000006F078FCAFE7204603F016FDFB6F78600F
:103310002B60C1E7B9690C4803F099FCC7E70022AC
:1033200011461046FFF776FE0021084605F068FDBD
:103330000120C6E7280100202C010020E35B0108E2
:10334000345C0108CF5B0108115C010870B50446CC
:1033500038B143681B6823B920460DF001F80120FD
:1033600070BD084803F043FC074D084E296811B9A9
:10337000002CF1D1F3E7AA68304603F068FC0C3565
:10338000F4E700BF4E5C01081C610108615C0108A4
:1033900008B5084803F02BFC06F0DAFB01460648A6
:1033A00003F055FC054803F022FC054803F01FFC20
:1033B000012008BD6C5C0108855C01089C5C01086B
:1033C000CA5C01082DE9F3411446054630B91A4894
:1033D00003F00DFC012002B0BDE8F081052926D1E3
:1033E00010220021606810F017FE1022064600210E
:1033F000A06810F011FE102207460021E06810F0CE
:103400000BFE102280460021206910F005FE0446C4
:1034100043463A4631460090084803F018FC4346BC
:103420003A463146284600940CF0A7FED2E70448FD
:1034300003F00DFCCEE700BF1A5D0108285D01080E
:103440006E5D01082DE9F04701230446084600AFF0
:103450004A1E12F8015FD5B99B00073323F007031A
:10346000ADEB030D20496E4610F07EFCDFF878804E
:1034700098B9DFF87880D8F80090B9F1000F14D12E
:103480007CB33246294620460CF02BFF17E0202D56
:1034900001D0092DDDD10133DBE746F82500414697
:1034A000002010F061FC0135E2E75DB932462946A3
:1034B0002046D8F80430984780F00100C0B2BD46DD
:1034C000BDE8F087D6F800A0504610F0FAFB494658
:1034D0000246504610F020FC0028E7D008F10C0806
:1034E000C9E74FF0FF30EAE7A45D01081C6101085D
:1034F00070B5047805460E4624B90F4803F0A7FBC3
:1035000000200AE010F0DDFB0C4904460246284684
:1035100010F002FC10B90120307070BD2246284620
:10352000074910F0F9FB10B930700120F5E7294682
:10353000044803F08CFBE3E7A75D0108D85D0108B0
:10354000DF5D0108E75D0108012907B50DD106F02F
:10355000C5FB1C4A1C49002818BF11461B4803F034
:1035600076FB012003B05DF804FB022926D100237D
:1035700050680DF107018DF80730FFF7B9FF0028FB
:10358000EFD09DF807305BB106F0A8FB40B906F01C
:10359000CBFB052804D906F0F3FB01460C48DEE717
:1035A0009DF8070006F0ACFB9DF80710094A0A4B8E
:1035B0000A48002914BF11461946D0E7084803F00D
:1035C00046FBCEE71E5E0108265E0108425E01084A
:1035D000545E01082F5E0108385E0108715E010823
:1035E000825E0108012908B50CD0022906D10B49D9
:1035F0005068FFF77DFF28B9012008BD084803F097
:1036000026FBF9E7054B074A1978074B07480029BD
:1036100014BF1146194603F01AFBEDE728010020FC
:10362000825E01081E5E0108265E01089F5E010899
:1036300043685B6B18470022D0F8E43093F8E00051
:1036400083F8E0207047D0F8E430C26903F1080045
:1036500010F002B903460846D3F8E410DA690831DD
:1036600010F0FAB810B50C46112C1146D0F8E40051
:103670001ED007DC102C19D0002C0CDA00204FF0E3
:10368000FF340CE0A4F112020F2AF7D8083C00EB3B
:10369000C400082403E0023400EB840004249C42AC
:1036A00008D8224610F0D8F8204610BD4830F5E77B
:1036B0004C30F3E74FF0FF34F6E710B5044611291C
:1036C0001046D4F8E4401FD007DC102919D0002997
:1036D0000CDA00214FF0FF340CE0A1F112020F2AA6
:1036E000F7D8083904EBC101082403E0023104EBE8
:1036F000810104249C420AD8224610F0ADF82046ED
:1037000010BD04F14801F4E704F14C01F1E74FF07A
:10371000FF34F4E770B51546D0E90026304602EBD9
:1037200081024FF48271FFF783FF70682B46846A31
:103730004FF48672A446BDE8704000216047002324
:1037400070B59EB0039302230593114B01901A6844
:1037500006A81D9203AA1A6010F094F928B9012650
:103760000B4C03AD2368AB4207D0039B1BB1094947
:1037700001980CF0E0FD1EB070BD019B3246D3F8FD
:10378000E4002421FFF7C6FF1D9B2360EAE700BF8A
:103790002C010020C461010838B50B7905460C697D
:1037A0001BB1012B16D0012038BDCB68022B04D0F1
:1037B000042B0AD04FF0FF30F6E78968A2B20CF074
:1037C00071FD28460CF06EFCEEE7224689680CF08D
:1037D00055FDF6E7D0F8E450A340B5F8D42004F145
:1037E000500122EA030328460022A5F8D43089B20A
:1037F000FFF790FF0CB9C5F8D8400020D4E738B5E2
:1038000004460D46D0F8E4002021FFF783FF044A68
:10381000D4F8E40042EA05322121BDE8384079E7D6
:10382000150E10EE2DE9F04104460026D0F8E450C4
:10383000DFF88C8005F15007012120467A68FFF7F8
:10384000DEFF0021204657F8082BFFF7D8FF46EA95
:1038500008022121D4F8E4000136FFF75BFF102EA7
:10386000EAD1EA6C00212046FFF7C9FF2121154A61
:10387000D4F8E400FFF74EFFAA6C00212046FFF7C2
:10388000BEFF2121104AD4F8E400FFF743FF6A6C21
:1038900000212046FFF7B3FF21210C4AD4F8E400B1
:1038A000FFF738FF00260835F1B2204655F8042B03
:1038B0000136FFF7A4FF0F2EF6D1BDE8F08100BF5F
:1038C000100B41EC100AE1EE00F02FE100F0A0E156
:1038D00070B5D0E90024204602EB81024FF48271DA
:1038E000FFF7A6FE606800234FF486720121856A07
:1038F000A84760680023846A0C22A446BDE8704093
:10390000012160472DE9F04F83B098460446D0F876
:10391000E43002F0030A08F1030500AF55447B6070
:1039200025F00303073323F00703ADEB030D22F06B
:10393000030289460021FFF762FF2221D4F8E40048
:10394000FFF7C6FFEB4620F440162221D4F8E4002E
:1039500046F40012FFF7DEFE214A2121D4F8E400EC
:10396000FFF7D8FE2321D4F8E400FFF7B1FF5A4651
:1039700025F003055D44AA4221D142460BEB0A0122
:1039800048460FF069FF2221D4F8E40046F4801283
:10399000FFF7C0FE2221D4F8E400FFF799FF4306A9
:1039A00017D504222421D4F8E400FFF7B3FE012345
:1039B0007A6882F8E0300C37BD46BDE8F08F2321ED
:1039C000D4F8E4003A60FFF783FF3A6842F8040B4A
:1039D000D1E72321D4F8E400FFF77AFFEBE700BF3B
:1039E000015EB0ECF8B50446D0F8E4600CF05AFB88
:1039F0002221D4F8E400FFF76BFF20F440122221CB
:103A0000D4F8E40042F48312FFF784FE20460CF061
:103A10009FFB0A2706F030F9054688B10025D6F845
:103A2000D030AB4216D80020A6F8D400C6F8D80093
:103A300006F0E0F801250BE0C8200DF0D7FBE9E720
:103A4000014620460CF086FB0028E7D1013FF3D168
:103A50002846F8BD05F150010022D4F8E40089B2EF
:103A6000FFF758FE0135DAE700B54DF60D729FB04D
:103A7000234901900CF002FC2249012201980CF02C
:103A8000FDFB012006F0B6F8002006F0B3F84FF475
:103A90007A7102A80DF07CFB002303934FF0FF33F3
:103AA000194A0593136806A81D9303AB13600FF022
:103AB000E9FFF8B102A80DF076FB10B9039B012BCA
:103AC000EAD0039B012B03D10398049902F014F967
:103AD00064200DF08BFB0198FFF784FF1FB05DF8A9
:103AE00004FB019B0021D3F8E400FFF7F1FE1D9BCE
:103AF000054A1360044B03AA1B689342F1D0D9E72F
:103B0000080000F8000200F82C01002073B50446FC
:103B10000025D0F8E460D6F8D030AB4228D8204653
:103B2000FFF780FE2121D4F8E400164AFFF7F2FDEA
:103B3000C82101A80DF02CFB2221D4F8E400FFF7E6
:103B4000C7FEC301054604D401A80DF02CFB0028D4
:103B5000F2D0D4F8E40025F4C0422221FFF7DAFDC8
:103B600006222421D4F8E400FFF7D4FD02B070BD92
:103B700005F150010022D4F8E40089B2FFF7CAFD34
:103B80000135C8E7150F07EEF7B504460E46D0F825
:103B9000E450002953D0D5E9112399064CD512F0F1
:103BA000020F14BF4FF4C077602722F003024021B8
:103BB0002846FFF7AFFD47F4800242F00102502192
:103BC000D4F8E400FFF7A6FD2046FFF72BFE2121E5
:103BD000D4F8E400204AFFF79DFDC82101A80DF0AC
:103BE000D7FA2221D4F8E400FFF772FEC20105469D
:103BF00004D401A80DF0D7FA0028F2D046B345F45A
:103C000000652221D4F8E40025F40052FFF782FD7C
:103C100006222421D4F8E400FFF77CFD2221D4F809
:103C2000E400FFF755FE830704D401A80DF0BBFAAA
:103C30000028EDD003B0F0BD4FF4F077B5E7D5F82C
:103C4000DC2040212846FFF765FDD5F8D820B6E7EF
:103C500025F40065D5E700BF150F07EE2DE9F84301
:103C600004460F4616461D466BB1194311F0030179
:103C70003A46D0F8E48025D00D21FFF7C0FD2A4F49
:103C80003544B54201D1BDE8F8830021204616F83D
:103C9000012BFFF7B4FD3A462121D4F8E400FFF7E9
:103CA00039FD2221D4F8E400FFF712FE4206E8D5E0
:103CB00004222421D4F8E400FFF72CFD012388F826
:103CC000E030E0E7FFF79BFD2221D4F8E400FFF7A6
:103CD000FFFD20F440172221D4F8E40047F400123D
:103CE000FFF718FD2121114AD4F8E400FFF712FD77
:103CF000B14659F8042B2021D4F8E400FFF70AFD5F
:103D0000A6EB0903EB42F4D12221D4F8E40047F4F6
:103D10008012FFF7FFFC2221D4F8E400FFF7D8FD62
:103D20004306B0D5C4E700BF0100CDE4015EA0ECBE
:103D300010B50446064AD0F8E40042EA01322121D7
:103D4000FFF7E8FCD4F8E4002321BDE81040BFE50C
:103D5000150E00EE2DE9F0470B79064689462BB18A
:103D6000012B28D001242046BDE8F087CB68022B28
:103D700004D0042B13D04FF0FF34F4E789680CF023
:103D800086FA4FF43E42C9F81000D9F808103046C0
:103D90000CF088FA30460CF085F90446E3E78968B0
:103DA0000CF062FA3A4AC9F81000D9F80810304607
:103DB0000CF064FAEEE7CB68042B01D0022BDAD1C9
:103DC0000027D6F8E480D8F8D030BB42D3D0B8F87A
:103DD000D42042FA07F414F0010450D14FF0010A44
:103DE000D9F808500AFA07F3134321462A46304609
:103DF000C9F81070A8F8D430FFF701FD2121254A39
:103E0000D6F8E400FFF786FC2121234AD6F8E40027
:103E1000FFF780FC21463046FFF78AFFC30730D406
:103E200099F80C2020F47F6323F00F03C5F30B05F2
:103E3000042A43EA050327D013F0020F14BF4FF4FE
:103E4000C0794FF060091FFA87FA23F003050AF1E1
:103E500040012A46D6F8E40089B2FFF75BFC49F03E
:103E600001090AF150014A46D6F8E40089B2FFF789
:103E700051FC002F7FF477AFC8E9369573E701371F
:103E8000A3E788F8E0A0CBE74FF4F079DBE700BFC9
:103E9000700020E1180F07EE140F17EE00232DE934
:103EA000F04F9FB0029303934FF0FF3305934D4BB8
:103EB00001901A6806A81D9203AA1A600FF0E2FD8D
:103EC00028B92226474C03AD2368AB4278D0039C27
:103ED000012C7FD0022C00F08380029C14F001049E
:103EE0007AD0029B222143F400530293019B029A51
:103EF000D3F8E400FFF70EFC029B002613F03C0F02
:103F00000CBF02240424019BD3F8E45005F10807F8
:103F1000F1B20198FFF70CFF01360F2E47F8040BA2
:103F2000F6D1019B304AD3F8E4002121FFF7F2FBE0
:103F300000210198FFF7FCFE019B2C4A21216864B7
:103F4000D3F8E400FFF7E6FB00210198FFF7F0FE4D
:103F5000019B2121264AA864D3F8E400FFF7DAFB8D
:103F600000210198FFF7E4FE00264FF0210A4FF0F0
:103F70000109DFF880B0E86405F15007019B46EACB
:103F80000B02D3F8E4005146FFF7C4FB4946019801
:103F9000FFF7CEFE002180460198FFF7C9FE0136EB
:103FA000102EC7E9000807F10807E7D1D5E911325B
:103FB00012F0200F14BF042208229B1A6B640BE03E
:103FC000019B3146D3F8E400FFF782FC02901D9B71
:103FD000236079E70BF0D0FE20461FB0BDE8F08FDC
:103FE0000024F9E72C0100200F00A0E100000FE100
:103FF000100AF1EE100B51ECF8B506460F460BF027
:1040000066FE044608B90020F8BD3046FEF764F9A4
:10401000E82101200FF030FA05460028F3D01F4BAD
:10402000C4F8E400C4F8E8301D4B4660726963616F
:104030001C4B42F00202A3614FF4807107603046CE
:10404000FFF7F6FA0021D4F8E400FFF741FC164B25
:10405000C0F303600130C5F8D0002361134B144A4C
:10406000E3660D332362134BA2606362124B134A63
:10407000A362134B0120E362124BE2602363124BF5
:104080006363124BE363124B2364124B6364C823D4
:10409000E361114BA364114BE364B5E729380108D0
:1040A000053900085D3C000837360008F261010858
:1040B000E539000855360008473600080D3B000872
:1040C000BB36000865360008693A00083F3700082B
:1040D0009D3E0008893B0008553D000899370008BF
:1040E00043685B6B184708B5D0F8E4301B68586824
:1040F000436A9847003818BF012008BD0B44521A84
:10410000994201EB020000D17047007801F8010BE1
:10411000F6E710B51344891A9A4202EB010000D168
:1041200010BD12F8014B0470F6E72DE9F04F0F4671
:104130008DB0334D01AC06469146D0F8E4800FCDEA
:104140000FC40FCD0FC495E80700022F84E80700C5
:1041500001AD2EDDCB464FF0000A09EB87070024A6
:1041600055F8240048B1DBF800100FF0A0FD012342
:1041700018B903FA04F24AEA020A01340B2CEFD10F
:104180000BF1040B5F45EAD1D9F804000DF10301EE
:10419000FFF7AEF988B19DF80330D8F8202063B35B
:1041A0004AEA020230461749C8F820200CF066F8A7
:1041B00003E0304614490CF0BEF8304613490CF0C9
:1041C000BAF800240127DFF8489055F8042B4AB1CB
:1041D000D8F8200007FA04F3034203D049463046DA
:1041E0000CF0A9F801340B2CEFD1304609490CF042
:1041F000A2F801200DB0BDE8F08F22EA0A02D1E753
:10420000A4690108FCED00E06B680108BF680108C3
:10421000D2680108185D010810B50B690979D0F85A
:10422000E42001290DD00239022914D800241A44AF
:1042300094712246094901EB03110CF01FF8204646
:1042400010BD002403F160511A4401F602011475F7
:1042500089002246F1E70120F2E700BF281000E0C4
:10426000F8B504460025D0F8E460144FF369AB427A
:1042700013D80025124F3369AB4216D8D4F8E43076
:1042800020461B680F499A690BF0F8FF2046BDE8ED
:10429000F8400D4A0D490BF0F1BF07EB85010022F4
:1042A00020460BF0EBFF0135E0E707EB051100229C
:1042B00020460BF0E3FF0135DDE700BF082000E0FA
:1042C000281000E0FCED00E000005FA0F0ED00E051
:1042D00010B5044604490F220BF0D0FF2046BDE87C
:1042E000104002490BF0C0BFF4ED00E0F8ED00E033
:1042F000F8B51C4BD0F8E4700D1E1B4E18BF1E46BF
:104300003B790446AB4205D0184946F002020BF057
:10431000B5FF3D717B79B3B12046FFF7D9FF014668
:10432000054620460BF0B3FF00F47F40B0F53E4F4A
:1043300009D120460E49AA1C0BF0A0FF20460D4AC9
:104340000D490BF09BFF97F8243023B10022204643
:104350000A490BF093FF32462046BDE8F840034976
:104360000BF08CBF0D005FA001005FA0F0ED00E03E
:10437000F8ED00E00F000100F4ED00E050EF00E088
:10438000002370B59EB0039302230593104B019058
:104390001A6806A81D9203AA1A600FF073FB30B9C1
:1043A0000B4C0C4D0C4E206803AB984207D0039B7E
:1043B0001BB10A4901980BF0BEFF1EB070BD2A4622
:1043C000314601980BF05AFF1D9B2360EBE700BFBD
:1043D0002C01002003005FA0F0ED00E0C4610108A3
:1043E0002DE9F043CFB0D0F8E43002AFBB6000233A
:1043F0007B61C7F8C4304FF0FF33C7F8CC309F4B18
:10440000F8601A6807F1D000C7F82C2107F1C40240
:1044100079601A600FF036FB30B9984C984E07F16E
:10442000C4052368AB420AD0D7F8C440012C0FD092
:10443000022C02D07B699C0312D400200BE0314691
:10444000F8680BF011FF7861D7F82C312360E8E7AA
:104450000BF092FC204607F59A77BD46BDE8F08345
:10446000884CF86821460BF0FFFE054602462146BF
:10447000F8680BF003FF28076CD5DFF80C92F8689A
:1044800049460BF0F1FEDFF8048204464146F86825
:104490000BF0EAFE064622464946F8680BF0EEFEAF
:1044A00004F0804432464146F8680BF0E7FE54EAD7
:1044B00006034FD0FB686E46DB69F86823F0030300
:1044C000073323F00703ADEB030D02AC21460BF0DD
:1044D00009FED4F83880202318F0040914BFA26C18
:1044E000626CF86807F164010BF0E2FDF8680BF00C
:1044F000D9FD00282DD1BB6F18F01002A363FB6F0C
:10450000D7F88010E3630CBF68232023890548BFD8
:104510000433B9F1000F18D0E16C41F08061E1641F
:10452000A16C0B44A36463631AB9E36C43F000739A
:10453000E364574A5749F8680BF0A0FEF868214633
:104540000BF0EAFD0620B54685E7616C0B44636419
:10455000E9E7B54605F00204002C14BF012300234F
:10456000BA68537100F01182F868FFF7B1FE014696
:10457000F8680BF08CFE4BF6AB63984240F0058276
:104580000022FB686E46DB69F8689B00073323F066
:104590000703ADEB030DFB6802AD5B68294683F8AA
:1045A0003A200BF09FFDD5E90042182C00F0638102
:1045B0001023F86807F13C010BF07AFD631E302BE5
:1045C00000F26181DFE813F031008700A100A8004C
:1045D00099008D003B019101C500CB005F01EE0009
:1045E000AB01E000D5000A010A01E70053015F01B9
:1045F0006801A3015F015F015F015F015F015F016E
:104600005F015F015F0161015F015F015F015F01A8
:104610005F015F015F015F015F015F015F015F019A
:104620005F015F015F0174017401DFF86CC007F185
:104630004C04BCE80F000FC49CE803003B6C84E80A
:10464000030007F598725B0802EB830353F8E44C10
:1046500007F118010423FA6BF8680BF029FD0F49E4
:1046600007F118000FF023FBD0B924B114F4806FC8
:1046700014BF0120022001301EE000BF2C010020E9
:10468000F0ED00E030ED00E02CED00E028ED00E082
:104690000200FA050CED00E0D0690108D6680108B7
:1046A0004FF4D2737A6C00930132F96BF868A3B2BD
:1046B0000BF07AFE421CDED128602946F8680BF028
:1046C0002BFDFB685B6893F83A30B546002B00F091
:1046D00056810220BFE6F96BF86801390BF071FED4
:1046E000EAE7F96BF8680139D7E910230BF072FE9D
:1046F0000028E1DB7B6C181ADEE7F96BF8680139FA
:10470000D7E910230BF070FEF2E7012302216A685B
:10471000F8680BF069FECFE7D5F8048044462146DF
:10472000F8680BF0C9FD18B1F8680BF0BBFC70B16C
:10473000B4EB080400F0A780234642460221F86843
:104740000BF052FE201A18BF4FF0FF30B4E70134CF
:10475000E5E7F96BF86801390BF08AFEACE7002356
:10476000D7E90F12F86801390BF048FE3B6C181AB4
:10477000E9E7BB6C3A6C013300937B6CF96BF8682A
:1047800001320BF045FE97E73A6CF96BF86801329D
:104790000BF04BFE90E73A6CF96BF86801320BF0C6
:1047A0006DFE89E7FB68FA68D3E90584924BF96BE3
:1047B0005361924BF8689361013907F184020BF061
:1047C0004AFEFB68C3E90584002871D1D7E9283087
:1047D000002B6DD100BA40EAE0706DE7FB68FA6823
:1047E000D3E90598844BF8685361844B07F1300195
:1047F000936100220BF035FEFB68C3E905980028A1
:1048000056D1386B112C00BA3FF456AFD7E90D13CF
:104810007B4A93FA83FC1468794BA04238BF10603E
:104820001C6809BA041B774842F21072E4FB00C10D
:104830000023604610F02CFE20F000403CE73F23B0
:10484000FB74FB68FA68D3E905846B4B0021536164
:104850006A4BF8689361012307F113020BF0BAFD6C
:10486000FB680128C3E9058422D1F87C24E7FB68B2
:104870005B68188F20E76449F8680BF05CFD012144
:10488000F8680BF069FC002016E76049F868D7E982
:104890000F320BF050FDF2E7FB68D7F83C8003F1D4
:1048A000780420460FF00DFA3A6C431C9A4202D26B
:1048B0004FF0FF3000E722464146F8680BF000FC5D
:1048C0000028F5D12046C7F81C800FF0FAF908231C
:1048D00001306968386207F11C02F8680BF0F0FBE0
:1048E000003818BF01204042E6E6F86B421E1D2A40
:1048F00003D8474BD340DB073FD458283DD05B2833
:104900003BD042F20F73C41A60426041D4E6FA68A9
:1049100010236968F868CC320BF0D2FBB3E7DFF8FC
:10492000F4C007F12402DCF80000DCF80410D7F82A
:10493000448003C2D7E90F43BCF808009CF80A1072
:1049400010809170002CB3D0B8F1000FB0DDFF2BB8
:10495000AED803F00F021B114133413207F124009E
:1049600087F8283087F829200FF0ABF9431C9845C9
:104970009ED3214607F12402AFE701209CE6BB68E5
:10498000F86819790BF0E8FB57E5690728D57B68CB
:1049900023B30024FB68DFF88080D3F8E450AE1D19
:1049A0002B699C420BD216F8013B0BB90134F7E797
:1049B000F86808EB04110BF057FCC201F6D52B691F
:1049C0009C4201D1002007E004F1606101F5817192
:1049D000F86809010BF048FC7B68186005203AE58F
:1049E00044B9EB0706D5BB681B79002B3FF471AEC9
:1049F000032030E504202EE5FD40000813410008A7
:104A00000400002040420F00DA680108E76801084E
:104A10001BB1FD3CF8680108281000E037B50446DA
:104A20001E490BF021FC606D10F0040508D1012037
:104A300005F0E0F8284605F0DDF80A200CF0D6FB7A
:104A4000204616490BF010FC820104D42046144A7B
:104A500014490BF013FCA36B0BB1204698474FF49D
:104A60007A7101A80CF094FB0C4D294620460BF0FE
:104A7000FBFB830104D501A80CF095FB0028F4D0C2
:104A80000A200CF0B3FB1F22204607490BF0F6FB6F
:104A900020460BF007FB03B030BD00BFF0ED00E097
:104AA0000400FA050CED00E030ED00E02DE9F74FD1
:104AB0008846D0F8E410064691F8240080B1D1F879
:104AC0002890B9F1000F0BD016481749746E002BCF
:104AD00014BF83468B4608EB0205C9F1000A14B9DE
:104AE00003B0BDE8F08FD4E900371F44AF4228BFC0
:104AF0002F4698452CBF0AEA08020AEA03020192EF
:104B0000019B9F4201D8A468E9E70423D6F8E4009A
:104B10000DEB030259460068FDF77AFD019B4B44FB
:104B20000193EDE770EF00E068EF00E02DE9F04160
:104B300014461D4607460E462A4621460023FFF727
:104B4000B5FFD7F8E43022461868314643689F6BBA
:104B50002B46BC46BDE8F04160472DE9F0411C46BC
:104B600007460D46164601232246FFF79FFFD7F85A
:104B7000E400234632462946BDE8F0410068FDF7CF
:104B800047BD10B504460068FDF7AFFB2046BDE801
:104B900010400EF049BE2DE9F74301220446D0F83B
:104BA000E43000261B68B1465B68DFF8F88083F8C4
:104BB00041200BF077FAD4F8E45020460BF072FA5B
:104BC00020460BF0C5FA20462A6A37490BF056FBFF
:104BD0001F22204635490BF051FB08233449EB6175
:104BE00020460BF041FBEA69C0F30313934238BF40
:104BF000EB610423000FE8602B6120462D490BF088
:104C000033FB2A69030FB2EB107F88BF2B6105F1DC
:104C10001407EB69B3422ED80026B146DFF898801E
:104C2000AF1D2B69B34230D80322204620490BF038
:104C300025FB224920460BF017FB20461F490BF0AD
:104C400013FB82012BD5002004F0D4FF4FF47A71BE
:104C500001A80CF09DFA194D294620460BF004FBE3
:104C600083011CD501A80CF09EFA0028F4D0002086
:104C700003B0BDE8F08308EB8601002220460BF06C
:104C8000FDFA013607F8019BC3E708EB0611002285
:104C900020460BF0F3FA013607F8019BC1E701202B
:104CA000E6E700BF082000E0FCED00E030ED00E0AA
:104CB000002000E0001000E0281000E0F0ED00E02F
:104CC00010B4846A1346A4460A4610BC002160470B
:104CD0002DE9F8430D462E46D0F8E4304FF48071AC
:104CE0001C6807466269204642F00202FFF7F8F9A5
:104CF0004FF48271204A6068FFF7E2FF4FF48C7135
:104D0000204656F8502BFFF7EBF94FF480324FF462
:104D10008A716068FFF7D4FFDFF8609005F104083E
:104D200058F8042B4FF48C716068FFF7C9FF59F8ED
:104D3000042B4FF48A71606842F48032FFF7C0FFA1
:104D4000B045EDD17B6D9B0713D50D4FD43556F88B
:104D5000042B4FF48C716068FFF7B2FF57F8042BF7
:104D60004FF48A71606842F48032FFF7A9FFB542C0
:104D7000EDD1BDE8F88300BFF0ED00E0EC6901087B
:104D8000386A0108132904D8064B03EB8101486CEB
:104D90007047436D9B0701D53429F5D94FF0FF309B
:104DA000704700BFA4690108032B38B504460D46BF
:104DB0000FD9126808490BF061FA29462046FFF71F
:104DC000E1FF064940F4803220460BF057FA0420F8
:104DD00038BD4FF0FF30FBE7F8ED00E0F4ED00E008
:104DE000032B38B5044615460DD9FFF7CBFF07490D
:104DF000024620460BF042FA204605490BF034FAF1
:104E00002860042038BD4FF0FF30FBE7F4ED00E0F0
:104E1000F8ED00E0F8B58A680E46097907460129E1
:104E2000D0F8E43034D0023902296DD80025186951
:104E3000991DA84240D011F8014B002C54D10121FA
:104E400005F1606404F581742B442401997138469E
:104E500021460BF013FAF368211D013B032B45D9C2
:104E60004FF0FF3238460BF009FA7A6D337912F0C1
:104E7000010F14BF00224FF40062032B04F108015C
:104E800039D0042B3AD0022B3BD142F0060223E06A
:104E9000D96859B912F0020F22F0604114BF4FF0E7
:104EA00000424FF0804221F003010A430025D869F7
:104EB00003F11401A84202D14FF0FF30F8BD11F800
:104EC000014B7CB901212B44197505F1605101F6A4
:104ED000020142F00102890038460BF0CFF90020B0
:104EE0003561EBE70135E5E70135A2E7074A1344F1
:104EF00093F91821B6E742F00502EDE742F0070208
:104F0000EAE74FF0FF32E7E70120D7E7A46901089D
:104F10002DE9F8430D46D0F8E4304FF480711C6859
:104F200007466269204642F00202FFF7D9F84FF4C3
:104F300082711E4A6068FFF7C3FE00224FF48A7137
:104F40002046FFF7CDF860684FF48C71036A9847EC
:104F50002E46DFF85C9005F1040846F8500B4FF43C
:104F60008A7159F8042B6068FFF7AAFE60684FF455
:104F70008C71036A984748F8040BB045EFD17B6DFC
:104F80009B0711D50B4FD4354FF48A7157F8042B7A
:104F90006068FFF795FE60684FF48C71036A98476C
:104FA00046F8040BB542EFD1BDE8F883F0ED00E020
:104FB000EC690108386A0108D0F8E43018687047D5
:104FC0002DE9F04105460AF082FE044610B90020A2
:104FD000BDE8F0812846FDF77FF92B8C2C21A4F841
:104FE00058306B8C0120A4F85A300EF045FA064672
:104FF0000028ECD0A74BC4F8E400C4F8E830A64B76
:1050000005602361A54B20466361A54BA549A361BB
:10501000A54BE3660BF028F94CF2702220F00F0349
:105020001B041B0C9342206700F085806ED84CF265
:10503000302293427BD04CF24022934279D0B3F598
:10504000424F7AD0994B9A4FA3609A4BA7F10D0229
:10505000E360994B20466362984B07F27741A36265
:10506000974B2762E362974B2363974B6363974B9E
:10507000E363974B2364974B63645023E361964B40
:10508000A364964BE3640AF0ABFE954920460BF00F
:10509000EBF840F470084246204691490BF0EEF8D8
:1050A00020468F490BF0E0F8404509D1636D07F2C7
:1050B0008F4743F002036365E36927628433E3614A
:1050C000884B2046336288490BF0CEF8430F042BFF
:1050D00035D1012200F00F0003FA00F086F82420F9
:1050E000B062298CB1F5117F00F0D0805FD81F2904
:1050F00000F00E8127D80E2900F0A980172900F0B2
:105100001F816A8C794801F0A2FD63E0B3F5524F2C
:105110000BD04DF21022934204D0B3F5464F91D1FB
:10512000734B00E0734B63678CE7734BFBE7734B88
:10513000F9E7734BF7E7734BF5E7734BF3E720465B
:105140000AF0B0FFCDE7342900F08680412900F055
:1051500083802029D5D1204607F044FC00287BD14C
:1051600020460AF09FFF204608F08CFD002873D1EE
:1051700020460AF097FF204609F032F900286BD14B
:1051800020460AF08FFF204609F0E4FD002863D195
:1051900020460AF087FF20460AF0E6F900285BD196
:1051A00020460AF07FFF20460AF00AFD68E040F240
:1051B0007363994200F0C08040D840F20153994295
:1051C00000F0C28040F25553994256D040F23B4322
:1051D000994296D16B8CB3F5986F40F0B98040F648
:1051E00027126B689B68C3F30B03934206D12046DA
:1051F00005F026FC80BB20460AF054FF204602F052
:105200000DFA48BB20460AF04DFF204605F04EFE41
:1052100010BB20460AF046FF204601F0BBFFD8B97C
:1052200020460AF03FFF204604F020FCA0B92046AB
:105230000AF038FF204602F0CFFC21E040F2517323
:1052400099427FF45EAF204607F072FB18E02046DB
:1052500003F0E4FA064608B10120B9E620460AF058
:1052600021FF40F68C036A8C9A42F5D1274B3146D8
:105270002046E3660AF070FFEEE7204607F0B2FB37
:105280000028E9D120460AF00DFFE5E7204604F0AA
:1052900003FAF5E7834B0008E74000082D4B0008B0
:1052A0005B4B000800ED00E0C06A0108974B000866
:1052B000CD6A010861420008114F0008D14C000876
:1052C000E14D0008A94D00081D4A0008814300086F
:1052D000E1430008F1420008154E00081942000899
:1052E00088ED00E0010400017CED00E02A6901087E
:1052F0001169010803690108076901080B690108C0
:105300001A8A01080E690108348A01081569010822
:10531000204605F04DFF00289ED120460AF0C2FE2F
:10532000204606F043FB002896D120460AF0BAFE3C
:10533000204606F079FFA3E7204600F0F7FB9FE741
:10534000204603F0D1FE9BE7204602F067F997E77D
:1053500040F2C342934215D1204607F045FD002894
:105360007FF47AAF20460AF09DFE204607F03AFB14
:1053700000287FF471AF20460AF094FE204602F028
:1053800019FD3EE740F2714293420CD1204602F0F3
:1053900045F900287FF460AF20460AF083FE2046DE
:1053A00002F03EFE2DE740F2C442934215D1204662
:1053B00002F0DCFF00287FF44FAF20460AF072FEB7
:1053C000204602F02DFE00287FF446AF20460AF06A
:1053D00069FE204603F022FA13E740F2CB429342E3
:1053E0007FF413AF204607F0A3FA0AE72DE9F34153
:1053F0001D4604460E46174601232A46FFF756FB74
:10540000D4F8E4309DF820201868314643680092B3
:10541000D3F83C803A462B46C04720460AF042FE6D
:1054200002B0BDE8F0812DE9F04383B00446C069C5
:10543000914620F003029846D31D23F0070300AFE6
:10544000ADEB030D6D460E46284600210EF012FA14
:10545000BB6A2946AB60FB6A2046EB604FF0807365
:105460002B640023C5E90098EB64EE63FFF730FC82
:1054700020460AF017FE014680BB2046FEF738FFA3
:1054800041F28831381D0BF083FE381D0BF08BFE86
:105490000146204639B1FEF773FF6FF002000C376A
:1054A000BD46BDE8F083FEF79BFF0028EDD0012844
:1054B00005D10C4900F020FC6FF00100EFE7042853
:1054C000FAD12046FEF704FF014620460AF0DFFE2F
:1054D000C0F30F23BE2BEFD1C0B2E0E74FF0FF3097
:1054E000DDE700BF6B6901082DE9F04FDFF8B8A0D8
:1054F0001C46DAF80830A1B043F00103CAF80830BE
:105500000746894616460BF0A3FE8046032C0FD8AB
:10551000254B32461D686946234638460AF0C8FDC9
:1055200008BB6B46214E013C31D2C9F800501CE04B
:105530000BF08EFE08F57A738342054604D20121F2
:10554000002000F005FCA846802CA34628BF4FF0A1
:10555000800B2BF0030B5B463246694638460AF057
:10556000A7FD054620B14FF0FF3021B0BDE8F08F18
:1055700005F180036B4453F8803C04351BBAAB45FE
:10558000CAF80030F4D85E44A4EB0B04BEE713F86D
:10559000012B85EA02650822002D4FEA4505B8BFB8
:1055A0007540013AF8D1BEE700300240B71DC10492
:1055B00038B5C36E05461B78313B012B0FD809491E
:1055C0000AF052FE0849044628460AF04DFE2346DA
:1055D0000246284605490AF0AEFE012038BD0022E9
:1055E0001346F6E7F481E00FF081E00F0E77010833
:1055F000F8B5C36E0E469B780446A3F1200134290A
:10560000174601D90120F8BD14222D4B02FB0133AE
:10561000DD8925B92B490AF08EFE0020F3E72A49DF
:105620009D680AF021FE012E0AD1284B10F0020FCE
:10563000274A204608BF1A4626490AF07CFEE1E7C1
:105640007B6825491B7841F67132652B0CBF4FF002
:10565000FF366FF002068D420CBF3C214021064010
:10566000294420460AF00AFE05F1080101222046DD
:105670000AF004FE05F10C0705F110012046124A5C
:105680000AF0FCFD0122394620460AF0F7FD05F13B
:105690001801324620460AF0F1FD0822394620461C
:1056A0000AF0ECFD1C35294620460AF0DDFDC30753
:1056B000A8D520460AF0F6FC0028F4D0ADE700BFDC
:1056C000047D010828770108E841E00F265E010803
:1056D0001E5E01084877010800000C4070B5C36EDB
:1056E00004469B78203B342B28D81421184A01FB10
:1056F00003239D68012205F1080105F154060AF013
:10570000BDFD46F21A32314620460AF0B7FD05F1DA
:105710000C014FF4807220460AF0B0FD1C3529467A
:1057200020460AF0A1FD10F0010209D131462046C1
:105730000AF0A4FD204607490AF0FDFD012070BDD6
:1057400020460AF0AFFC0028E9D00020F7E700BFB0
:10575000047D0108577701082DE9F84F84698046D8
:10576000E36E0F469B781546203B342B43D814211B
:10577000224A204601FB032321499E6841F67132EB
:105780008E420CBF3C21402131440AF077FD0122BA
:10579000204606F108010AF071FD06F1100A06F133
:1057A0000C09DDB13A46514620460AF067FD012258
:1057B000494620460AF062FD0222494620460AF088
:1057C0005DFD06F11C0B594620460AF04DFDC3074E
:1057D00007D4D8F80830AB421F440AD30020BDE8F4
:1057E000F88F20460AF05EFC0028ECD04FF0FF3026
:1057F000F5E7ED1AD5E70120F1E700BF047D0108C8
:1058000000000C40F8B505460F4601203021164631
:105810001C460DF031FE014660B1074BC0E9007631
:10582000C360064B8460036104622846BDE8F8400B
:105830000AF020BBF8BD00BF5957000841580008C6
:105840002DE9F74384691D46E36E88469E789146AC
:10585000A6F12007342F1ED8104E502306F2244202
:105860004FF0005120460AF02BFC2B464A460C49CB
:1058700020460AF025FC142303FB0766B368424662
:10588000CDE900534FF000512046054BFFF7CBFD0B
:1058900003B0BDE8F0830120FAE700BF047D0108F2
:1058A00050000020012908B503D0022906D00020AD
:1058B00008BD04490AF000FD80B2F9E701490AF089
:1058C000D3FCF9E7FC81E00F012908B503D00229D8
:1058D00006D0002008BD0549BDE808400AF0D7BC45
:1058E00002490AF0C1FC80B2F4E700BFF881E00F82
:1058F000012908B503D0022906D0002008BD0549BA
:10590000BDE808400AF0C3BC03490AF0ADFC000C36
:10591000F4E700BFFA81E00FF881E00F2DE9F04FC6
:10592000C36E04461D7887B0303DEDB2012D09D01D
:10593000022D76D02A4651490AF0FDFC012007B01D
:10594000BDE8F08F4E4A4F490AF0F5FCE36E9E78B1
:10595000203E342EF2D829462046FFF7A3FF2946E1
:1059600082462046FFF7B0FF294681462046FFF7D2
:10597000BFFF012D059057D0022D5DD000271422C6
:10598000DFF80481059B02FB0682CDE902931369CF
:10599000B2F802B02046CDE90093526853463B4925
:1059A0000AF0C9FC5B463A46204639490AF0C3FC76
:1059B000BB4503D9204637490AF0BDFC204636498D
:1059C0000AF0B9FC022D47D1204634490AF04CFCBC
:1059D000C0F307224A2A4FEA1043C0B232D04C2A01
:1059E00032D04D2A32D0512A2D4A18BF0022012828
:1059F0002ED002282ED02B4D05F11801032808BF08
:105A00000D46526828492046DBB20AF094FC6A68C9
:105A1000264920460AF08FFC20461F490AF08BFCDD
:105A20008CE7234A23498FE7204623490AF044FCA8
:105A300001270A308740A2E7204618490AF014FCE3
:105A4000000EF5E71D4AD2E71D4AD0E71D4ACEE712
:105A50001D4DD6E71D4DD4E7012D7FF46FAF142304
:105A600003FB06867378002B3FF468AF1849204685
:105A70000AF00DFC17490246CBE700BFC6770108C4
:105A80000080E00F6A770108047D010809780108A9
:105A9000307801086F780108185D0108E481E00F93
:105AA00090810108988101089B780108AF7801086E
:105AB000B081E00F95770108E781E00F7881010858
:105AC0008081010888810108A0810108A88101085E
:105AD000AE81E00FC578010843684FF484711B6BF9
:105AE000184710B5D0F8E4402046FFF7F5FFC2078D
:105AF00017D463684FF4827120465B6B0A4A98475B
:105B0000636801224FF4807120465B6B9847204602
:105B1000FFF7E2FFC307FAD42046FFF7DDFF0120BD
:105B200010BD0020FCE700BF18C1ACCF2DE9F04F3D
:105B30008BB00446FFF740FA43684A4A5B689342D9
:105B400009D002F1604202F50412934203D0002012
:105B50000BB0BDE8F08F444920460AF085FB0546AE
:105B6000424920460AF080FB414BB3EB152F15D17B
:105B7000204640490AF078FB4FF0020AC0F3074084
:105B800000261422DFF8F09002FB06F515F8091044
:105B900081420AD00136352EF6D1D8E72046374962
:105BA0000AF08AFB4FF0010AEAE751462046FFF768
:105BB00079FE514607902046FFF786FE51464FEA90
:105BC000802B09902046FFF793FE4D443C2108901E
:105BD00001206F880DF050FC8046099A29690392D4
:105BE0006A68079B019206F12002049102933C210E
:105BF00000920AF13003224AE0650DF095FF636DD3
:105C00005A4643F0040320461E496365C4F86C807D
:105C10003B460AF090FB089B4FF000519A02204649
:105C20000AF01AF95A463B4600212046FFF7EAFDE2
:105C3000AA892AB13B464FF07E612046FFF7E2FD7C
:105C4000142303FB0696F28922B13B4620460E49F7
:105C5000FFF7D8FD20460D4A0D490AF0C1F8012092
:105C600076E700BF7714A02BF481E00FF081E00FFE
:105C70005ECFD000FC81E00F047D0108FE81E00FC3
:105C8000D7780108EA7801080000E10FD17801080F
:105C9000B881010870B5C668134A26F0704323F036
:105CA000F003934205461DD10AF011F80446284638
:105CB000FCF712FB0D4BC4F8E450C4F8E8302A217D
:105CC00001200DF0D9FB320F094905460DF060FFA8
:105CD00004232A462046E566E3610649BDE8704094
:105CE0000AF07EB870BD00BF0100E606EB22000896
:105CF00006790108F4810108094A38B513680BB91F
:105D00000DF0AAFB9D689C6E284207D0C3E90001F4
:105D1000014603F10C0014600DF0BAFE2346EEE7D5
:105D20002C01002010B50AF069FC01280146FAD1C7
:105D3000054C06484023224600680CF0CAFB0023AD
:105D40002064636410BD00BF300100208009002082
:105D5000F8B5184C0D46A36C5A1C2344A26483F872
:105D60004C0009B9402A05D10AF048FC012802D0AC
:105D70000023A364F8BD0AF047FC0028F8D00E4EBB
:105D80000E4F3A460121B4F8483030680CF09AFBC7
:105D90000028F6D0002DEBD0A36C402BE8D1084DA5
:105DA00001232A46194630680CF08CFB0028F7D0F6
:105DB000DEE700BF30010020800900207C010020C8
:105DC0000C82010810B5084CD4E91023934203D289
:105DD0005A1CE05C626410BD0AF016FC10B1FFF7BB
:105DE000A1FFF1E70420F6E73001002013B50146DA
:105DF00001A80BF0CDF90D4CD4E910329A4212D320
:105E00000AF002FC68B1FFF78DFF01A80BF0CBF997
:105E10000028F1D0D4E910329A4204D3FF2002B016
:105E200010BD0420FBE7FFF7CDFFF8E730010020AD
:105E30000321014800F05EBE0E8201084FF480612C
:105E4000014800F0BFBE00BF1282010810B5064C29
:105E5000206840B10AF07AF920680AF01CF923683A
:105E600063600023236010BDBC010020084611467A
:105E700000F0DCBE38B50B4C0D4623688B420AD1CE
:105E80000921094800F072FE084800F0B0FE002326
:105E90002360012323726368AB4204BF0023636065
:105EA00038BD00BFBC0100204C82010856820108A9
:105EB0001FB50F4902AB01AA0DF08AFE022806D1D8
:105EC0000C4B186830B903210B4800F013FE05B0E5
:105ED0005DF804FB03A9DDE90123FFF705FB10B121
:105EE00003210648F1E70399054800F06BFEEEE751
:105EF000A6820108BC010020868201088A8201086E
:105F00008E82010873B50E4605460DF0DAFE0023B9
:105F10000446CDE900336A4630460F4901AB0DF027
:105F200057FE022805D003210C4800F0E3FD02B023
:105F300070BD009AA242F6D802D101210848F4E7C8
:105F4000019BA41AA34228BF2346012105482A44E5
:105F500000F086FDEBE700BF43830108868201085D
:105F6000987C01084E6801082DE9F0414C0804F1C5
:105F7000080323F0070300AFADEB030D6B460025CC
:105F80006E46224601464FEAD308184600F088FEC6
:105F900004F838500C4C31462068FDF753FAA842FB
:105FA00006DA2946094800F0A5FDBD46BDE8F081A6
:105FB00002D102210648F6E70649072204F109004A
:105FC00000F052FE0E21EEE7BC010020A65D0108A4
:105FD000938201089682010810F80B3C662B0BBFD8
:105FE000022101210148024800F084BD9E8201087F
:105FF000987C010838B50C4C054623682BB96068BD
:1060000018B10A4909F004FF2060206828B9BDE8EA
:1060100038400321064800F06DBD0AF012F9294608
:10602000BDE838406EE700BFBC010020080000203A
:106030008682010830B5114C05462368ADF2044D47
:106040002BB9606818B10E4909F0E2FE20602068A3
:1060500038B903210B480DF2044DBDE8304000F083
:1060600049BD4FF48062694609F012FF294668462F
:10607000FFF748FF0DF2044D30BD00BFBC0100200A
:1060800008000020868201082DE9F04F4FF0000A39
:106090009FB002AFC7E90201A04C4FF48062A04B51
:1060A0001146C3F8102C9F4800F077FC4FF4806233
:1060B0009D4B06469A82637A7A2B00F2B2813E2B80
:1060C00006D8042B00F0B081212B00F0EA80A8E173
:1060D0003F3B3B2B00F2A581DFE813F0F700A30163
:1060E000A301A301A301A601A3019F018400D40081
:1060F000A301A301A301A3019C00A301A3016E01BD
:10610000A301B501A301A301A301A301A301CA0136
:10611000A3012803A301A301A301A301A301A301D8
:10612000A301A301E800A301A301A3013C00A30173
:10613000A301A301B201A3015A00A301A3015101CC
:106140000402B501E600A301A3010602A301A30115
:10615000A301280320686D4610B90321734813E09A
:106160000AF06DF80646C31D23F00703ADEB030DDF
:106170000DF108094946206809F0B4FF4946324646
:10618000684800F071FD710000F0B4FCAD4684E792
:1061900023686D46002BE0D007F11C036449614879
:1061A00007F118020DF014FDFB69B3F5007F02D969
:1061B00003216048E8E7DA1D22F00702ADEB020D8B
:1061C00002AE3146BA69206809F072FF10B10321AE
:1061D0005948D9E73146FA69524800F045FDF96956
:1061E0004900D1E720686D460028B6D00AF027F8AC
:1061F000C31D23F00703ADEB030D02AE02464F496A
:10620000304600F04DFD3146206809F085FF02213F
:106210004B48B9E70023C7E905332368E9462BB9A2
:106220000321424800F066FCCD4636E73D4D07F1BC
:106230001C034449009307F11402284607F1180390
:106240000DF0C6FCD7E90621761AB2EB560F02D93B
:1062500003213848E6E7D31D23F00703ADEB030D18
:1062600002AE2944304600F01BFD3246BB69796915
:10627000206809F025FF10B103212F48D2E7022141
:106280002F48CFE7002330493B76FB61254807F1D3
:106290001C0307F118020DF09BFCFB69012B00F2B7
:1062A00006810221264805E04FF0010A206820B946
:1062B0000321264800F01EFCEFE6514609F04CFF92
:1062C00001224FF0000A224B1A7023685BB90321A8
:1062D0002048EFE7FFF78AFD0338C0B2012802D853
:1062E000206809F035FF206807F11C0109F032FF32
:1062F0000028EFD00021164A431E1170052B3CD810
:10630000DFE803F0032E3B3B33391D21124800F038
:1063100059FC0121114802F073FDBEE6BC010020CA
:1063200000000140C5010020000C0140A1820108CD
:10633000A5820108AE82010886820108C6010020FC
:1063400093820108B2820108BE820108C582010859
:10635000C40B002052820108C9820108CF820108C3
:106360000221AA4800F02EFC97E60521FA69A84808
:1063700000F028FC91E60B21F3E70521F1E7236803
:1063800013B90321A34895E7A34907F11802A348CD
:106390000DF01EFC0823B969206807F11C0209F002
:1063A00097FE05460028ECD0024607F11C019B48E9
:1063B00000F05AFC69007DE723686E462BB9032183
:1063C000944800F097FBB54667E6944D07F11C032F
:1063D00007F11802284692490DF0FAFBF96905EB1E
:1063E000010840460DF06DFC4FEA500909F1070322
:1063F00023F00703ADEB030D02AD4A4641462846A4
:1064000000F04EFC4B462A46B969206809F065FE4B
:106410000028D4DD02218348D3E7FB68002B40F03D
:10642000A5810021804845E7206820B101227F4BEB
:106430001A7009F030FE236863600023236030E7A0
:10644000FFF704FD29E625681DB1284609F07EFE08
:1064500023E6606800283FF420AE754909F0D8FCB7
:10646000206018B12946284602F0CAFC2068EDE7F2
:106470002368002B85D0694D07F11C03009307F1B9
:10648000140207F1180328466A490DF0A1FBD7E969
:106490000632B61A9E4202D2032167480AE779699A
:1064A00020682A4409F00CFE00283FF4FAAE0321CC
:1064B0006248FFE60835D5F80080B8F1000FB0D08B
:1064C00040460DF0FEFB41468146024653480DF022
:1064D00023FC0028EED151486B68A6EB0901484423
:1064E0009847DAE5564DE6E74FF000094B4D554920
:1064F000284607F11402C7E905990DF069FB012848
:106500000DD14B49786909F096FC20600028CED067
:106510004946484602F074FC0C214B48CAE6062264
:1065200028464A490DF0F8FB10B9FFF78FFCB8E692
:106530000422284646490DF0EFFB8046002840F033
:106540008D8007F11C06B146627B291D05353B2A6B
:1065500014BF8B46AB463F4D38779BF8002062B99D
:106560002568002D3BD02846494609F0F7FD2068F4
:1065700009F0ECFD032138489CE648467A600DF0AE
:10658000A0FB03305228EBD87A683B2A09D1324667
:10659000202002F8010B0BF1010B86F80180164652
:1065A000DBE7525D12F0440FDAD09BF80120525D18
:1065B00012F0440FD4D002225946304600F070FB4E
:1065C0003278202A01D05C2A03D172705C2206F84E
:1065D000012B86F801800BF1020B0136BDE76068E4
:1065E00000283FF464AF124909F012FC2060002833
:1065F0003FF45DAF494609F0B1FD206809F0A6FD02
:106600002946284602F0FCFBB4E700BFDC82010803
:10661000E2820108A1820108F3820108C50100207D
:10662000F882010893820108A65D0108C40B0020CE
:106630000800002000830108AE820108868201085C
:10664000FC8301080C8301081A83010827830108D1
:106650002E830108DDB40108338301082846484928
:1066600007F1180307F114020DF0B2FA022817D14E
:10667000206800283FF485AE94F80A3423B909F065
:1066800065FD012384F80A342068D7E9051209F072
:106690004FFC00283FF405AE002384F80A3470E66E
:1066A0002846384907F11C0307F114020DF090FA4F
:1066B000012809D120680028EED0FA697969B31A57
:1066C0002A4409F058FCE4E728462F490DF0EFFA78
:1066D0000646C8B9206809F0CEFC2C4D2C4B00288A
:1066E00014BF9946A946206809F0C5FC284B00282C
:1066F00014BF184628460DF0E4FA0146484600F05B
:10670000F9F984F80A64C8E4284622490DF0CFFA62
:10671000054600287FF485AE237A002B3FF4C1ADF7
:1067200003211D4800F0E6F92572B6E42368002B2A
:106730003FF427AE07F118031849009307F114023C
:1067400007F11C0316480DF043FA637AFA695A2BD5
:106750002068D7E90513C9B205D109F017FD002853
:10676000BFF6B3ACA3E609F041FDF8E702460C49D9
:10677000B86800F01DF87437BD46BDE8F08F00BF63
:10678000378301084F83010864830108938201085D
:10679000A18201086F8301085282010878830108F1
:1067A000C501002000210148FFF76EBC0800002051
:1067B00030B50C464B7887B02D2B0DF10F030546F5
:1067C00000930CBF881C481C05AB0D4904AA0DF0B2
:1067D000FFF963782D2B02BF049B5B4204930328CF
:1067E0000CD19DF80F30A3F143025342534104985A
:1067F00085F83A30059B2B8707B030BD0023F6E7BC
:106800004484010813B5044604980090044800F03D
:10681000D9F90121204602B0BDE81040FFF734BC91
:106820004D84010810B50446044800F0CBF9204619
:10683000BDE810400121FFF727BC00BF65840108B7
:1068400010B50446044800F0BDF92046BDE81040EC
:106850000121FFF719BC00BF7184010810B504467F
:10686000044800F0AFF92046BDE810400121FFF7D1
:106870000BBC00BF8684010810B50446044800F034
:10688000A1F92046BDE810400121FFF7FDBB00BF84
:106890009C84010813B5044604980090044800F055
:1068A00091F90121204602B0BDE81040FFF7ECBB92
:1068B000B284010810B50446044800F083F920466C
:1068C000BDE810400121FFF7DFBB00BFCA8401080B
:1068D00010B50446044800F075F92046BDE81040A4
:1068E0000121FFF7D1BB00BFDA84010810B50446CF
:1068F000044800F067F92046BDE810400121FFF789
:10690000C3BB00BFED84010810B50446044800F085
:1069100059F92046BDE810400121FFF7B5BB00BF83
:10692000FC84010810B50446044800F04BF92046E9
:10693000BDE810400121FFF7A7BB00BF1485010887
:1069400010B50446044800F03DF92046BDE810406B
:106950000121FFF799BB00BF2185010838B5A0F1DF
:106960002303012B04460D4603D97D2801D02A2894
:106970000ED100217D2084F02004FFF7E9F92046A4
:106980000021FFF7E5F928787D3004442C7038BDEC
:106990000021FFF7DDF92878F7E72DE9F7430646F0
:1069A00088460027FFF70EFA0428307056D02428B6
:1069B00049D02128F6D100240AE031462046375537
:1069C00003F01AFC3770EDE74445FBD23055013433
:1069D000FFF7F8F92328F0D02428F3D02128F3D1A9
:1069E000E9E7454515D024282DD07D2806EB05097B
:1069F00005F1010524D1FFF7E5F97D34044404F0E5
:106A0000FF0480F0200089F80000FFF7DBF923285D
:106A1000E7D1FFF7D7F98DF80400FFF7D3F900218C
:106A20008DF80500102201A88DF806700DF076FA99
:106A300084424FF0010109D02D20FFF789F9B1E719
:106A40000444E4B2DFE700252C46DEE72B20FFF705
:106A50007FF97755284603B0BDE8F0830125F9E7B3
:106A60002DE9F74F04460F461546984604264FF089
:106A7000000A002124208DF803A0A146FFF768F941
:106A800007EB040BD94524D1A94608EB050BD945E2
:106A900026D100212320FFF75BF99DF80330144A2B
:106AA000032101A80DF040F800219DF80400FFF734
:106AB0004FF901219DF80500FFF74AF94FF4FA60FC
:106AC000FFF794F92B2801D0013ED2D103B0BDE8E5
:106AD000F08F19F8010B0DF10301FFF73FFFD1E72C
:106AE00019F8010B0DF10301FFF738FFCFE700BFE5
:106AF000DD8201082DE9F74304460E4604254FF0D8
:106B00000008002124208DF803802746FFF720F994
:106B100006EB04094F451FD100212320FFF718F988
:106B20009DF80330104A032101A80CF0FDFF00215D
:106B30009DF80400FFF70CF901219DF80500FFF70F
:106B400007F94FF4FA60FFF751F92B2801D0013D06
:106B5000D7D103B0BDE8F08317F8010B0DF10301A5
:106B6000FFF7FCFED6E700BFDD82010837B50D4612
:106B70000021044625208DF80310FFF7E9F825448D
:106B8000AC4216D100212320FFF7E2F89DF8033034
:106B90000B4A032101A80CF0C7FF9DF80400002157
:106BA000FFF7D6F801219DF80500FFF7D1F803B0F3
:106BB00030BD14F8010B0DF10301FFF7CFFEDFE745
:106BC000DD8201080FB407B504AA52F8041B01A81E
:106BD00000920DF043FA01460198FFF78BFF0198F0
:106BE0000CF022FE03B05DF804EB04B07047F8B57A
:106BF00006460DF066F847000546791C01200CF0AA
:106C00003BFC044670B12A46314600F02DF83B4665
:106C1000224605480121FFF723FF2046BDE8F84042
:106C20000CF002BEF8BD00BF3185010807B50A4669
:106C3000014601A80DF012FA002805DB0198FFF7C4
:106C4000D6FF01980CF0F0FD03B05DF804FB0FB423
:106C500007B504A951F8040B0191FFF7E7FF03B052
:106C60005DF804EB04B07047002370B50B4D01399B
:106C7000461C934203D1002200F8132070BD11F886
:106C8000014F24092C5D00F813400C7804F00F0428
:106C90002C5D06F813400133EBE700BF3385010894
:106CA000F0B500254E1C954200D1F0BD11F81540FD
:106CB000A4F13003DBB2092B07D9A4F13703DBB20F
:106CC000102B84BFA4F15703DBB216F815701B011B
:106CD000A7F13004E4B2092C5BB207D9A7F137045D
:106CE000E4B2102C84BFA7F15704E4B22343435508
:106CF0000135D8E7F8B50C46054628B901464FF4EA
:106D000025720C480CF0B6FD14222346094E04F1FE
:106D1000100702FB0562144618685968083303C45B
:106D2000BB422246F7D1186801352060C6F894525C
:106D3000F8BD00BFC80500202DE9F74F0027064623
:106D40008D4C8E4D09F018F839464FF425722046C7
:106D5000C4F894720CF08EFD0AF01EFF2B68984761
:106D600004210320AB68002E4FD098474FF0140940
:106D7000DFF80CA2D4F89432202B04DC09FB034387
:106D80009B78102B20D901216B68084698477A4FD1
:106D900002210120AB68984703210120AB68984786
:106DA000B84600266B68012100209847D4F8943239
:106DB00000286BD1B34208F114082CDB013B9B1B6C
:106DC00008F8133C0136EDE73378002BDBD0524650
:106DD0000021D5F80CC001A8E047019BDB0704D4D3
:106DE0004FF0FF3003B0BDE8F08FD4F89432307824
:106DF00009FB03F2A118CF70A354887016F8012B79
:106E000001331744C4F89432B4E79847012130465F
:106E10006B68984720B94FF0FF30C4F89402E1E75F
:106E200001261427B046A670D4F89432202B10DC2B
:106E300007FB03439B78102B0BD86B6801210020C4
:106E40009847D4F89432D8B107FB03429278012ACC
:106E50000AD1D4F89432202BDDDC142202FB034348
:106E60009B78102B8FD9D6E7013307FB03F2A118CB
:106E7000C4F8943281F80280CE70A3540136D3E76F
:106E800007FB03439A7801329A70F7E7B342C2D105
:106E900001216B680846984701200221AB6898479A
:106EA000D4F8940200289DD01423461E03FB004012
:106EB0001438FEB92B68984703210120AB68984726
:106EC000B146DFF8B480D4F8942201214A456B68BA
:106ED00017DC08469847AB680221012098474FF01D
:106EE000FF35D4F89402B0427FF77CAF254B0021E8
:106EF000984627E003798278013E134400F8103C5D
:106F0000D6E70020984720B909F1010908F11408D3
:106F1000D9E701234FF01F0B4FF0020AC8F80830E1
:106F2000012100206B68984728B1D8F8083043EA5F
:106F30000A03C8F80830BBF1010B4FEA4A0AEFD147
:106F4000E2E70131D3F800C09E46BCF1000F0FD03C
:106F5000DEF80400BA68103310406045F1D108EB48
:106F600001139A68DB683D61FA600BB1F0B2984793
:106F700001361437B5E700BFC8050020D00B00204C
:106F800034880108B48601081423F7B51B4C054664
:106F900003FB01431B690192934228D02046002342
:106FA0004FF0FF37D4F894629E4200F1140020DCC9
:106FB000142303FB0144124E04210320B368226111
:106FC000984700202B69E2780E49984720792B6971
:106FD000B0FA80F0A27801A94009984701202B69F6
:106FE00008492279984702210120B368984703B0E5
:106FF000F0BD40F8047C0133D6E700BFC80500208F
:10700000D00B0020348801082DE9F14F1C4F0446B5
:107010008B46012003211E46BB689046DDF828A060
:107020009847142202FB0BF2164D002005EB0209D3
:107030002369AA5C1449984799F80100B8F1000F38
:1070400016D0B0FA80F1324653464046E668490908
:10705000B047142101FB0B55236901206A780A49C6
:10706000984702210120BB6801B0BDE8F04F1847E6
:10707000B0FA80F052463146236940099847E8E764
:10708000D00B0020C80500203488010838B504461C
:107090000D46012030210CF0EFF9014670B14FF49C
:1070A00080638360064B4560C360064B0361FF232A
:1070B00003772046BDE8384008F0DCBE38BD00BF8D
:1070C00021710008C9700008F7B517461D4684698C
:1070D0000E46204608F0E6FF40234FF000510E4ACE
:1070E000204608F0EDFF2B463A4620460B4908F0B3
:1070F000E7FF204608F0D6FF50B9CDE900503246F0
:107100004FF000512046054BFEF78DF903B0F0BD5E
:107110004FF0FF30FAE700BF3C8801084000002034
:107120002DE9F04785690E462846144608F0BAFF57
:10713000DFF85490DFF854A0DFF8548014B92046EB
:10714000BDE8F08732464946284609F097F852468E
:107150004146284609F092F84146284609F084F84D
:1071600010F00207F8D1284608F09CFF40B9B4F5AA
:10717000806F88BFA4F580673C4606F58066DDE732
:107180004FF0FF30DCE700BF00D00F40020042A408
:1071900008D00F4010B52949044609F065F841F2BE
:1071A0004903000C984221D009D841F21F039842AC
:1071B00038D041F22203984228D0002010BD41F27D
:1071C000A1039842F9D11E4B4FF000514FF4803289
:1071D0002046E36608F040FE4FF400212046FFF70A
:1071E00055FF636D43F0040363650DE0144B4FF0EE
:1071F000005120464FF40042E36608F02DFE4FF4A4
:1072000080212046FFF742FF0120D7E70C4B4FF0CB
:1072100000514FF4C0422046E36608F01DFE4FF4D3
:107220008031DBE7064B4FF000514FF480222046BF
:10723000E36608F011FE4FF48011CFE704E00F4041
:107240007C880108F8B505460F4601204421164602
:107250000CF012F9044658B1064B0146C360064BC8
:10726000C0E900760361FF230377284608F002FE99
:107270002046F8BD7B740008A97300080CB42DE902
:10728000F04798B000AF054684690E462C220021D5
:1072900007F108000CF0EEFA4FF43E433B8197F8FB
:1072A0008030FB606B6B0BB12046984707F13409C7
:1072B000EA6B2C234946204608F0FAFEE369204693
:1072C00023F00303073323F00703ADEB030DEA4676
:1072D000514608F007FFD7F8842007F184033A618C
:1072E000D7F888207B607A61D7F89030D7F88C2067
:1072F000E96BBA61FB6107F108022C23204608F014
:10730000DFFEE369204623F00303073323F007037E
:10731000ADEB030DE846414608F0E4FEEB6B414659
:107320001A1DC8F8002003F1180243F00103C8F841
:107330000420C8F838302A6CAB6B2046C8F84420CB
:10734000C8F83C3008F0E8FE0021204608F004FFB1
:107350000021204608F0FEFE0028F9D02C23EA6B1D
:1073600007F10801204608F0A3FEE96B2C234A46EA
:10737000204608F0A5FE5146204608F0CDFE5EB13D
:10738000334607F12404224603CA4A45186059606F
:10739000144603F10803F6D197F820006037BD4684
:1073A000BDE8F04702B070472DE9FF4705681E466B
:1073B00083684D1BB5FBF3F590F8303088461D44CB
:1073C00090F83130EDB29146CDE9005332222B4690
:1073D00000210446FFF752FF20B14FF0FF3004B008
:1073E000BDE8F087E76B33462F3727F003074A469F
:1073F0003946A06908F064FE94F832302BB1626817
:1074000008EB0601921B914210D842F6E06333224A
:10741000CDE901630021434620460097FFF72EFF88
:1074200008B90020DBE76FF00100D8E7A6EB831670
:107430003744B044A7EB060AA8EB0609002EF0D0AB
:1074400094F831300021CDE9005332222B462046FA
:10745000FFF714FF01460028BFD1402342F6E06247
:107460002046CDE90132CDF800A04B463322FFF78C
:1074700005FF0028D7D1403EDCE72DE9FF41D0F8D9
:1074800000E08D18D0F808C06B1EA1EB0E07A3EB2F
:107490000E03B3FBFCF3B7FBFCF790F8306032222D
:1074A00037441E4490F83130FFB2F6B2CDE90063A4
:1074B00000213B460446FFF7E1FE20B14FF0FF30CC
:1074C00004B0BDE8F08194F83230002B4ED06368F0
:1074D000A3F580639D4249D306F1FF38474518D88C
:1074E00094F831300021029342F6E0633422CDE972
:1074F000008320463B46FFF7C1FE014680BB94F85F
:1075000031303522CDE9008320463B46FFF7B6FEF9
:1075100048BB464501D10020D2E7A5F5806594F827
:107520003230AD0905F10F07FF1A94F83130002110
:10753000CDE90063322233462046FFF79FFE014625
:107540000028BBD194F831303B22029342F6E0632D
:107550002046CDE900732B46FFF790FE0028DAD0D5
:107560006FF00100ACE76FF00200A9E7B742D2D894
:10757000B046B5E7F0B451B90C46151F02F1180634
:1075800055F8047FB5423C44FAD16442D461F0BC62
:107590000AE700BFF0B585B005463A226946806E1D
:1075A000FFF76CFE0446A8B928460B4908F0C3FE55
:1075B0006E460A4F3946284616F8012B013408F06A
:1075C000BAFE102CF6D12846054908F0B4FE012079
:1075D00005B0F0BD0020FBE78E8801089688010801
:1075E000185D010838B515460A4600211C46FFF70C
:1075F00029FE4FF400730362074B856003614FF06F
:107600008053C36303F5787303649DF8103084637B
:1076100080F8323038BD00BF7575000837B5AD4908
:10762000044608F021FEAC4B984200F0CF805AD8B7
:1076300048F60423984200F0EB8048F60323984272
:1076400040F2FF80A54B984200F0AA8049D803F190
:107650007A4303F5FC1398420FD027D8A3F5F6130D
:1076600098420AD01AD820F40022A3F570239A4237
:1076700003D09B4B984240F0E4809A4D4FF4005267
:107680004FF080512046E56608F0E6FB00234FF4FA
:10769000805200934FF40031934BC9E0934B20F498
:1076A00080429A42E9D0A3F5D823E3E7904B984271
:1076B000E3D00CD8A3F570139842DED003F5F01395
:1076C0009842DAD0A3F1A663A3F5C623D2E7894B8B
:1076D0009842D2D003F54C239842CED0A3F5E413C0
:1076E000C8E7854BC6E7854B9842C6D04CD8A3F176
:1076F0007663A3F56C33984252D011D803F17A43E4
:1077000003F5DC139842B8D008D8A3F5801398424B
:10771000B3D020F48010A3F57023ABE7784BD7E704
:10772000784B9842A9D017D8A3F5DC139842A4D07F
:107730000AD820F48042A3F560239A429DD003F139
:10774000754303F5281395E76F4B20F400429A42E6
:1077500093D0A3F554238DE76C4B98428DD00CD871
:10776000A3F5F013984288D003F50423984284D0FF
:10777000A3F18363A3F57C337CE7654B98423FF428
:107780007CAF03F5B02375E7624B98422FD003F12D
:10779000506398422BD0A3F19B53A3F5F02369E7E4
:1077A0005D4B4FF480524FF08051E366204608F065
:1077B00053FB00234FF480524FF4803100934A4B27
:1077C0002046FFF70FFF012003B030BD534B4FF4AD
:1077D00000424FF08051E366204608F03DFB002355
:1077E0004FF4805200934FF480213F4BE8E74C4B1D
:1077F0004FF400524FF08051E366204608F02CFB16
:1078000000234FF4805200934FF40041364BD7E7EA
:10781000444D4FF400524FF080512046E56608F089
:107820001BFB00234FF480624FF4F04100932E4B7A
:107830002046FFF7D7FE2A4620463B4908F0D0FAFB
:10784000C1E72046394908F00FFD48F2223398423B
:1078500000F0038100F2828048F24403984215D878
:1078600048F23F03984200F2E78048F2240398422E
:107870001CD848F22003984200F2CD8047F64043DE
:1078800020F00400984211D1294DF7E648F2222356
:10789000984251D848F22023984252D848F2101307
:1078A00098420AD004D8B0F5014F06D000208BE7EB
:1078B000A0F5014020380228F8D81E4D4FF4805220
:1078C0004FF080512046E56608F0C6FA0023009389
:1078D000054BACE0F48304402B0000102B90240AED
:1078E000800005009B880108F11FFF1F2B10340446
:1078F0002B8098092BD0160A2B90400A2B40882900
:107900002BD0161A2B1040252B1032252B40722914
:107910002B807A292B000030A3880108AB8801084E
:10792000B3880108BB88010834890108F883044042
:10793000FB880108D8880108A0F5024041380128D9
:10794000B4D84FF400524B4DE5664FF080512046BD
:1079500008F082FA00230093474B79E048F2544341
:1079600098421DD848F2504398427DD848F241339E
:10797000984274D0A0F504404138032896D84FF4BB
:1079800000523E4DE5664FF08051204608F064FA03
:1079900000234FF4806200934FF48031384B47E767
:1079A000384B98421ED01FD8374B98423FF46CAFEB
:1079B0000AD8364B984205D8023B984212D84BF66B
:1079C00040435FE7324B5DE7324B98423FF45CAF98
:1079D00002D8A3F5805355E7A0F5003022380128DE
:1079E0003FF664AF2C4D49E62C4B9842FAD00BD8A9
:1079F0002B4B98423FF448AF03F530539842F1D0F7
:107A0000284B9842EED051E7274B9842EAD0274BBB
:107A100020F01000F5E7264D4FF400624FF0805142
:107A20002046E56608F018FA02230093144B4FF441
:107A300080624FF48041FBE61E4D4FF480524FF0C0
:107A400080512046E56608F007FA022300930C4BAC
:107A50004FF480624FF40041EAE6174D2EE7174DD0
:107A60004FF48052E56670E7154D4FF48042E566AD
:107A700089E700BFDF880108F11FFF1FC3880108E5
:107A8000F11F000F30000300409C010013000100B3
:107A9000407C010040CC0100048901084200040040
:107AA00040D40300320003008000050060000400A1
:107AB000CA880108D1880108E6880108ED88010814
:107AC000F48801080122014908F0D8BB40C00F40EA
:107AD0000CB4F0B583B00C464FF43E41054600AF00
